BL51 BANKED LINKER/LOCATER V6.22                                                        12/24/2016  16:31:11  PAGE 1


BL51 BANKED LINKER/LOCATER V6.22, INVOKED BY:
C:\KEIL_V5\C51\BIN\BL51.EXE .\Objects\STARTUP.obj, .\Objects\Program.obj TO .\Objects\Program PRINT (.\Listings\Program.
>> m51) RAMSIZE (256)


MEMORY MODEL: SMALL


INPUT MODULES INCLUDED:
  .\Objects\STARTUP.obj (?C_STARTUP)
  .\Objects\Program.obj (PROGRAM)
  C:\KEIL_V5\C51\LIB\C51S.LIB (?C_INIT)


LINK MAP OF MODULE:  .\Objects\Program (?C_STARTUP)


            TYPE    BASE      LENGTH    RELOCATION   SEGMENT NAME
            -----------------------------------------------------

            * * * * * * *   D A T A   M E M O R Y   * * * * * * *
            REG     0000H     0008H     ABSOLUTE     "REG BANK 0"
            DATA    0008H     0007H     UNIT         ?DT?PROGRAM
            IDATA   000FH     0001H     UNIT         ?STACK

            * * * * * * *   C O D E   M E M O R Y   * * * * * * *
            CODE    0000H     0003H     ABSOLUTE     
            CODE    0003H     0092H     UNIT         ?PR?MAIN?PROGRAM
            CODE    0095H     008CH     UNIT         ?C_C51STARTUP
            CODE    0121H     0023H     UNIT         ?PR?_DELAY?PROGRAM
            CODE    0144H     0010H     UNIT         ?CO?PROGRAM
            CODE    0154H     000BH     UNIT         ?C_INITSEG



OVERLAY MAP OF MODULE:   .\Objects\Program (?C_STARTUP)


SEGMENT
  +--> CALLED SEGMENT
---------------------
?C_C51STARTUP
  +--> ?PR?MAIN?PROGRAM
  +--> ?C_INITSEG

?PR?MAIN?PROGRAM
  +--> ?CO?PROGRAM
  +--> ?PR?_DELAY?PROGRAM

?PR?_DELAY?PROGRAM
  +--> ?CO?PROGRAM



SYMBOL TABLE OF MODULE:  .\Objects\Program (?C_STARTUP)

  VALUE           TYPE          NAME
  ----------------------------------
BL51 BANKED LINKER/LOCATER V6.22                                                      12/24/2016  16:31:11  PAGE 2



  -------         MODULE        ?C_STARTUP
  C:0095H         SEGMENT       ?C_C51STARTUP
  I:000FH         SEGMENT       ?STACK
  C:0000H         PUBLIC        ?C_STARTUP
  D:00E0H         SYMBOL        ACC
  D:00F0H         SYMBOL        B
  D:0083H         SYMBOL        DPH
  D:0082H         SYMBOL        DPL
  N:0000H         SYMBOL        IBPSTACK
  N:0100H         SYMBOL        IBPSTACKTOP
  N:0080H         SYMBOL        IDATALEN
  C:0098H         SYMBOL        IDATALOOP
  N:0000H         SYMBOL        PBPSTACK
  N:0100H         SYMBOL        PBPSTACKTOP
  N:0000H         SYMBOL        PDATALEN
  N:0000H         SYMBOL        PDATASTART
  N:0000H         SYMBOL        PPAGE
  N:0000H         SYMBOL        PPAGEENABLE
  D:00A0H         SYMBOL        PPAGE_SFR
  D:0081H         SYMBOL        SP
  C:0095H         SYMBOL        STARTUP1
  N:0000H         SYMBOL        XBPSTACK
  N:0000H         SYMBOL        XBPSTACKTOP
  N:0000H         SYMBOL        XDATALEN
  N:0000H         SYMBOL        XDATASTART
  C:0000H         LINE#         126
  C:0095H         LINE#         133
  C:0097H         LINE#         134
  C:0098H         LINE#         135
  C:0099H         LINE#         136
  C:009BH         LINE#         185
  C:009EH         LINE#         196
  -------         ENDMOD        ?C_STARTUP

  -------         MODULE        PROGRAM
  C:0000H         SYMBOL        _ICE_DUMMY_
  B:00A0H.3       PUBLIC        K4
  D:0090H         PUBLIC        P1
  D:00A0H         PUBLIC        P2
  C:0144H         PUBLIC        table
  C:012BH         PUBLIC        _delay
  D:0008H         PUBLIC        value
  D:000CH         PUBLIC        timer
  C:0003H         PUBLIC        main
  D:000DH         PUBLIC        n
  B:00A0H.0       PUBLIC        K1
  B:00A0H.1       PUBLIC        K2
  B:00A0H.2       PUBLIC        K3
  -------         PROC          MAIN
  C:0003H         LINE#         36
  C:0003H         LINE#         37
  C:0003H         LINE#         39
  C:000BH         LINE#         40
  C:0012H         LINE#         41
  C:001AH         LINE#         43
  C:001AH         LINE#         44
BL51 BANKED LINKER/LOCATER V6.22                                                      12/24/2016  16:31:11  PAGE 3


  C:001AH         LINE#         46
  C:001DH         LINE#         47
  C:0024H         LINE#         48
  C:0024H         LINE#         53
  C:0026H         LINE#         56
  C:0029H         LINE#         57
  C:0030H         LINE#         58
  C:0030H         LINE#         63
  C:0032H         LINE#         66
  C:0035H         LINE#         67
  C:003CH         LINE#         68
  C:003CH         LINE#         73
  C:003EH         LINE#         75
  C:0041H         LINE#         76
  C:0048H         LINE#         77
  C:0048H         LINE#         79
  C:004EH         LINE#         80
  C:005BH         LINE#         81
  C:005BH         LINE#         83
  C:0061H         LINE#         84
  C:0063H         LINE#         85
  C:0065H         LINE#         86
  C:0068H         LINE#         88
  C:006EH         LINE#         89
  C:0070H         LINE#         90
  C:0072H         LINE#         91
  C:0075H         LINE#         93
  C:007BH         LINE#         94
  C:007DH         LINE#         95
  C:007FH         LINE#         96
  C:0082H         LINE#         98
  C:0088H         LINE#         99
  C:008AH         LINE#         100
  C:008CH         LINE#         101
  C:008FH         LINE#         102
  C:0091H         LINE#         103
  C:0093H         LINE#         106
  -------         ENDPROC       MAIN
  C:0121H         SYMBOL        L?0023
  -------         PROC          L?0022
  -------         ENDPROC       L?0022
  C:0121H         SYMBOL        L?0023
  -------         PROC          _DELAY
  D:0006H         SYMBOL        t
  C:012BH         LINE#         114
  C:012BH         LINE#         115
  C:012BH         LINE#         116
  C:0135H         LINE#         117
  C:0135H         LINE#         118
  C:0143H         LINE#         119
  C:0143H         LINE#         120
  -------         ENDPROC       _DELAY
  -------         ENDMOD        PROGRAM

Program Size: data=16.0 xdata=0 code=351
LINK/LOCATE RUN COMPLETE.  0 WARNING(S),  0 ERROR(S)
