BL51 BANKED LINKER/LOCATER V6.22                                                        01/11/2017  09:52:32  PAGE 1


BL51 BANKED LINKER/LOCATER V6.22, INVOKED BY:
C:\KEIL_V5\C51\BIN\BL51.EXE D:\WORKS\单片机\PROTEUS\01.流水灯\流水灯循环滚动ASM\LED.OBJ


INPUT MODULES INCLUDED:
  D:\WORKS\单片机\PROTEUS\01.流水灯\流水灯循环滚动ASM\LED.OBJ (LED)


LINK MAP OF MODULE:  D:\WORKS\单片机\PROTEUS\01.流水灯\流水灯循环滚动ASM\LED (LED)


            TYPE    BASE      LENGTH    RELOCATION   SEGMENT NAME
            -----------------------------------------------------

            * * * * * * *   D A T A   M E M O R Y   * * * * * * *
            REG     0000H     0008H     ABSOLUTE     "REG BANK 0"

            * * * * * * *   C O D E   M E M O R Y   * * * * * * *
            CODE    0000H     010FH     ABSOLUTE     

Program Size: data=8.0 xdata=0 code=271
LINK/LOCATE RUN COMPLETE.  0 WARNING(S),  0 ERROR(S)
