:03000000020026D5
:0C002600787FE4F6D8FD75810802006DBB
:03001D00010800D7
:100003007598F0758780758920758BFA758DFAD28E
:0A0013008ED2ACD2AF7590F980FEDA
:030023000200B226
:1000B200C0E0C0D0309819859908C298309A0CE5F2
:1000C20008B4010CC29D7599018005D29D8508A0D6
:0A00D200309902C299D0D0D0E0327C
:10003200020003E493A3F8E493A34003F68001F2E1
:1000420008DFF48029E493A3F85407240CC8C333CF
:10005200C4540F4420C8834004F456800146F6DF9E
:10006200E4800B010204081020408090001DE47E11
:10007200019360BCA3FF543F30E509541FFEE49393
:10008200A360010ECF54C025E060A840B8E493A35A
:10009200FAE493A3F8E493A3C8C582C8CAC583CA85
:1000A200F0A3C8C582C8CAC583CADFE9DEE780BE3D
:0100200000DF
:00000001FF
