BL51 BANKED LINKER/LOCATER V6.22                                                        12/15/2016  22:52:37  PAGE 1


BL51 BANKED LINKER/LOCATER V6.22, INVOKED BY:
C:\KEIL_V5\C51\BIN\BL51.EXE .\Objects\STARTUP.obj, .\Objects\Program.obj TO .\Objects\Project PRINT (.\Listings\Project.
>> m51) RAMSIZE (256)


MEMORY MODEL: SMALL


INPUT MODULES INCLUDED:
  .\Objects\STARTUP.obj (?C_STARTUP)
  .\Objects\Program.obj (PROGRAM)
  C:\KEIL_V5\C51\LIB\C51S.LIB (?C_INIT)
  C:\KEIL_V5\C51\LIB\C51S.LIB (?C?LMUL)
  C:\KEIL_V5\C51\LIB\C51S.LIB (?C?ULDIV)


LINK MAP OF MODULE:  .\Objects\Project (?C_STARTUP)


            TYPE    BASE      LENGTH    RELOCATION   SEGMENT NAME
            -----------------------------------------------------

            * * * * * * *   D A T A   M E M O R Y   * * * * * * *
            REG     0000H     0008H     ABSOLUTE     "REG BANK 0"
            DATA    0008H     000AH     UNIT         ?DT?PROGRAM
            IDATA   0012H     0001H     UNIT         ?STACK

            * * * * * * *   C O D E   M E M O R Y   * * * * * * *
            CODE    0000H     0003H     ABSOLUTE     
            CODE    0003H     0013H     UNIT         ?C_INITSEG
                    0016H     000DH                  *** GAP ***
            CODE    0023H     0003H     ABSOLUTE     
            CODE    0026H     011DH     UNIT         ?C?LIB_CODE
            CODE    0143H     008CH     UNIT         ?C_C51STARTUP
            CODE    01CFH     0051H     UNIT         ?PR?MAIN?PROGRAM
            CODE    0220H     0011H     UNIT         ?PR?SERIAL?PROGRAM



OVERLAY MAP OF MODULE:   .\Objects\Project (?C_STARTUP)


SEGMENT
  +--> CALLED SEGMENT
---------------------
?C_C51STARTUP
  +--> ?PR?MAIN?PROGRAM
  +--> ?C_INITSEG



SYMBOL TABLE OF MODULE:  .\Objects\Project (?C_STARTUP)

  VALUE           TYPE          NAME
  ----------------------------------

  -------         MODULE        ?C_STARTUP
  C:0143H         SEGMENT       ?C_C51STARTUP
BL51 BANKED LINKER/LOCATER V6.22                                                      12/15/2016  22:52:37  PAGE 2


  I:0012H         SEGMENT       ?STACK
  C:0000H         PUBLIC        ?C_STARTUP
  D:00E0H         SYMBOL        ACC
  D:00F0H         SYMBOL        B
  D:0083H         SYMBOL        DPH
  D:0082H         SYMBOL        DPL
  N:0000H         SYMBOL        IBPSTACK
  N:0100H         SYMBOL        IBPSTACKTOP
  N:0080H         SYMBOL        IDATALEN
  C:0146H         SYMBOL        IDATALOOP
  N:0000H         SYMBOL        PBPSTACK
  N:0100H         SYMBOL        PBPSTACKTOP
  N:0000H         SYMBOL        PDATALEN
  N:0000H         SYMBOL        PDATASTART
  N:0000H         SYMBOL        PPAGE
  N:0000H         SYMBOL        PPAGEENABLE
  D:00A0H         SYMBOL        PPAGE_SFR
  D:0081H         SYMBOL        SP
  C:0143H         SYMBOL        STARTUP1
  N:0000H         SYMBOL        XBPSTACK
  N:0000H         SYMBOL        XBPSTACKTOP
  N:0000H         SYMBOL        XDATALEN
  N:0000H         SYMBOL        XDATASTART
  C:0000H         LINE#         126
  C:0143H         LINE#         133
  C:0145H         LINE#         134
  C:0146H         LINE#         135
  C:0147H         LINE#         136
  C:0149H         LINE#         185
  C:014CH         LINE#         196
  -------         ENDMOD        ?C_STARTUP

  -------         MODULE        PROGRAM
  C:0000H         SYMBOL        _ICE_DUMMY_
  B:00A8H.7       PUBLIC        EA
  B:00A8H.4       PUBLIC        ES
  B:0098H.0       PUBLIC        RI
  D:0008H         PUBLIC        BAUD
  B:0098H.1       PUBLIC        TI
  C:01CFH         PUBLIC        main
  D:000CH         PUBLIC        FOSC
  D:0099H         PUBLIC        SBUF
  D:0087H         PUBLIC        PCON
  D:0098H         PUBLIC        SCON
  D:0089H         PUBLIC        TMOD
  D:0010H         PUBLIC        dat
  D:0011H         PUBLIC        thl
  D:008DH         PUBLIC        TH1
  D:008BH         PUBLIC        TL1
  B:0088H.6       PUBLIC        TR1
  C:0220H         PUBLIC        Serial
  -------         PROC          MAIN
  C:01CFH         LINE#         18
  C:01CFH         LINE#         19
  C:01CFH         LINE#         21
  C:01D2H         LINE#         23
  C:01D5H         LINE#         25
BL51 BANKED LINKER/LOCATER V6.22                                                      12/15/2016  22:52:37  PAGE 3


  C:01D8H         LINE#         28
  C:0213H         LINE#         29
  C:0215H         LINE#         30
  C:0218H         LINE#         32
  C:021AH         LINE#         34
  C:021CH         LINE#         36
  C:021EH         LINE#         38
  -------         ENDPROC       MAIN
  -------         PROC          SERIAL
  C:0220H         LINE#         41
  C:0220H         LINE#         44
  C:0223H         LINE#         45
  C:0223H         LINE#         47
  C:0226H         LINE#         49
  C:0228H         LINE#         51
  C:022BH         LINE#         56
  C:022BH         LINE#         59
  C:022EH         LINE#         60
  C:022EH         LINE#         61
  C:0230H         LINE#         62
  C:0230H         LINE#         63
  -------         ENDPROC       SERIAL
  -------         ENDMOD        PROGRAM

  -------         MODULE        ?C?LMUL
  C:0026H         PUBLIC        ?C?LMUL
  -------         ENDMOD        ?C?LMUL

  -------         MODULE        ?C?ULDIV
  C:00B1H         PUBLIC        ?C?ULDIV
  -------         ENDMOD        ?C?ULDIV

Program Size: data=19.0 xdata=0 code=548
LINK/LOCATE RUN COMPLETE.  0 WARNING(S),  0 ERROR(S)
