BL51 BANKED LINKER/LOCATER V6.22                                                        12/12/2016  08:17:30  PAGE 1


BL51 BANKED LINKER/LOCATER V6.22, INVOKED BY:
C:\KEIL_V5\C51\BIN\BL51.EXE .\Objects\STARTUP.obj, .\Objects\Program.obj TO .\Objects\Project PRINT (.\Listings\Project.
>> m51) RAMSIZE (256)


MEMORY MODEL: SMALL


INPUT MODULES INCLUDED:
  .\Objects\STARTUP.obj (?C_STARTUP)
  .\Objects\Program.obj (PROGRAM)
  C:\KEIL_V5\C51\LIB\C51S.LIB (?C_INIT)
  C:\KEIL_V5\C51\LIB\C51S.LIB (?C?CCASE)


LINK MAP OF MODULE:  .\Objects\Project (?C_STARTUP)


            TYPE    BASE      LENGTH    RELOCATION   SEGMENT NAME
            -----------------------------------------------------

            * * * * * * *   D A T A   M E M O R Y   * * * * * * *
            REG     0000H     0008H     ABSOLUTE     "REG BANK 0"
            DATA    0008H     0005H     UNIT         ?DT?PROGRAM
            IDATA   000DH     0001H     UNIT         ?STACK

            * * * * * * *   C O D E   M E M O R Y   * * * * * * *
            CODE    0000H     0003H     ABSOLUTE     
            CODE    0003H     00AEH     UNIT         ?PR?KEYSCAN?PROGRAM
            CODE    00B1H     008CH     UNIT         ?C_C51STARTUP
            CODE    013DH     0026H     UNIT         ?C?LIB_CODE
            CODE    0163H     0018H     UNIT         ?PR?MAIN?PROGRAM
            CODE    017BH     0017H     UNIT         ?PR?_DELAY?PROGRAM
            CODE    0192H     0015H     UNIT         ?CO?PROGRAM
            CODE    01A7H     0010H     UNIT         ?C_INITSEG



OVERLAY MAP OF MODULE:   .\Objects\Project (?C_STARTUP)


SEGMENT
  +--> CALLED SEGMENT
---------------------
?C_C51STARTUP
  +--> ?PR?MAIN?PROGRAM
  +--> ?C_INITSEG

?PR?MAIN?PROGRAM
  +--> ?PR?KEYSCAN?PROGRAM
  +--> ?CO?PROGRAM
  +--> ?PR?_DELAY?PROGRAM

?PR?KEYSCAN?PROGRAM
  +--> ?PR?_DELAY?PROGRAM
  +--> ?CO?PROGRAM


BL51 BANKED LINKER/LOCATER V6.22                                                      12/12/2016  08:17:30  PAGE 2



SYMBOL TABLE OF MODULE:  .\Objects\Project (?C_STARTUP)

  VALUE           TYPE          NAME
  ----------------------------------

  -------         MODULE        ?C_STARTUP
  C:00B1H         SEGMENT       ?C_C51STARTUP
  I:000DH         SEGMENT       ?STACK
  C:0000H         PUBLIC        ?C_STARTUP
  D:00E0H         SYMBOL        ACC
  D:00F0H         SYMBOL        B
  D:0083H         SYMBOL        DPH
  D:0082H         SYMBOL        DPL
  N:0000H         SYMBOL        IBPSTACK
  N:0100H         SYMBOL        IBPSTACKTOP
  N:0080H         SYMBOL        IDATALEN
  C:00B4H         SYMBOL        IDATALOOP
  N:0000H         SYMBOL        PBPSTACK
  N:0100H         SYMBOL        PBPSTACKTOP
  N:0000H         SYMBOL        PDATALEN
  N:0000H         SYMBOL        PDATASTART
  N:0000H         SYMBOL        PPAGE
  N:0000H         SYMBOL        PPAGEENABLE
  D:00A0H         SYMBOL        PPAGE_SFR
  D:0081H         SYMBOL        SP
  C:00B1H         SYMBOL        STARTUP1
  N:0000H         SYMBOL        XBPSTACK
  N:0000H         SYMBOL        XBPSTACKTOP
  N:0000H         SYMBOL        XDATALEN
  N:0000H         SYMBOL        XDATASTART
  C:0000H         LINE#         126
  C:00B1H         LINE#         133
  C:00B3H         LINE#         134
  C:00B4H         LINE#         135
  C:00B5H         LINE#         136
  C:00B7H         LINE#         185
  C:00BAH         LINE#         196
  -------         ENDMOD        ?C_STARTUP

  -------         MODULE        PROGRAM
  C:0000H         SYMBOL        _ICE_DUMMY_
  D:0080H         PUBLIC        P0
  D:0090H         PUBLIC        P1
  D:00A0H         PUBLIC        P2
  C:0196H         PUBLIC        table
  C:017BH         PUBLIC        _delay
  C:0163H         PUBLIC        main
  D:0008H         PUBLIC        scan
  C:0192H         PUBLIC        line
  D:0009H         PUBLIC        temp
  D:000AH         PUBLIC        col
  D:000BH         PUBLIC        key
  C:0003H         PUBLIC        keyscan
  D:000CH         PUBLIC        seconds
  -------         PROC          MAIN
  C:0163H         LINE#         38
BL51 BANKED LINKER/LOCATER V6.22                                                      12/12/2016  08:17:30  PAGE 3


  C:0163H         LINE#         39
  C:0163H         LINE#         40
  C:0166H         LINE#         41
  C:0166H         LINE#         42
  C:0166H         LINE#         43
  C:016BH         LINE#         44
  C:0172H         LINE#         45
  C:0179H         LINE#         46
  -------         ENDPROC       MAIN
  -------         PROC          KEYSCAN
  C:0003H         LINE#         50
  C:0003H         LINE#         51
  C:0003H         LINE#         53
  C:0006H         LINE#         55
  C:000EH         LINE#         56
  C:000EH         LINE#         58
  C:0015H         LINE#         60
  C:001DH         LINE#         61
  C:001DH         LINE#         63
  C:0023H         LINE#         66
  C:0026H         LINE#         67
  C:0026H         LINE#         68
  C:002EH         LINE#         70
  C:0036H         LINE#         71
  C:0036H         LINE#         72
  C:003CH         LINE#         74
  C:003EH         LINE#         75
  C:003EH         LINE#         76
  C:0045H         LINE#         77
  C:0045H         LINE#         78
  C:0045H         LINE#         81
  C:007EH         LINE#         82
  C:007EH         LINE#         83
  C:007EH         LINE#         84
  C:0081H         LINE#         85
  C:0081H         LINE#         86
  C:0081H         LINE#         87
  C:0084H         LINE#         88
  C:0084H         LINE#         89
  C:0084H         LINE#         90
  C:0087H         LINE#         91
  C:0087H         LINE#         92
  C:0087H         LINE#         93
  C:008AH         LINE#         94
  C:008AH         LINE#         95
  C:008AH         LINE#         96
  C:008DH         LINE#         97
  C:008DH         LINE#         98
  C:008DH         LINE#         99
  C:0090H         LINE#         100
  C:0090H         LINE#         101
  C:0090H         LINE#         102
  C:0093H         LINE#         103
  C:0093H         LINE#         104
  C:0093H         LINE#         105
  C:0096H         LINE#         106
  C:0096H         LINE#         107
BL51 BANKED LINKER/LOCATER V6.22                                                      12/12/2016  08:17:30  PAGE 4


  C:0096H         LINE#         108
  C:0099H         LINE#         109
  C:0099H         LINE#         110
  C:0099H         LINE#         111
  C:009CH         LINE#         112
  C:009CH         LINE#         113
  C:009CH         LINE#         114
  C:009FH         LINE#         115
  C:009FH         LINE#         116
  C:009FH         LINE#         117
  C:00A2H         LINE#         118
  C:00A2H         LINE#         119
  C:00A2H         LINE#         120
  C:00A5H         LINE#         121
  C:00A5H         LINE#         122
  C:00A5H         LINE#         123
  C:00A8H         LINE#         124
  C:00A8H         LINE#         125
  C:00A8H         LINE#         126
  C:00ABH         LINE#         127
  C:00ABH         LINE#         128
  C:00ABH         LINE#         129
  C:00AEH         LINE#         130
  C:00AEH         LINE#         131
  C:00AEH         LINE#         132
  C:00B0H         LINE#         133
  C:00B0H         LINE#         134
  C:00B0H         LINE#         135
  -------         ENDPROC       KEYSCAN
  -------         PROC          _DELAY
  D:0006H         SYMBOL        t
  C:017BH         LINE#         138
  C:017BH         LINE#         139
  C:017BH         LINE#         140
  C:017EH         LINE#         141
  C:0188H         LINE#         142
  C:0188H         LINE#         143
  C:0191H         LINE#         145
  -------         ENDPROC       _DELAY
  -------         ENDMOD        PROGRAM

  -------         MODULE        ?C?CCASE
  C:013DH         PUBLIC        ?C?CCASE
  -------         ENDMOD        ?C?CCASE

Program Size: data=14.0 xdata=0 code=439
LINK/LOCATE RUN COMPLETE.  0 WARNING(S),  0 ERROR(S)
