C51 COMPILER V9.54   INTERRUPUT                                                            12/07/2016 22:52:29 PAGE 1   


C51 COMPILER V9.54, COMPILATION OF MODULE INTERRUPUT
OBJECT MODULE PLACED IN .\Objects\Interruput.obj
COMPILER INVOKED BY: C:\Keil_v5\C51\BIN\C51.EXE Interruput.c OPTIMIZE(8,SPEED) BROWSE DEBUG OBJECTEXTEND PRINT(.\Listing
                    -s\Interruput.lst) OBJECT(.\Objects\Interruput.obj)

line level    source

   1          // 51实验板演示程序
   2          // 外部中断实现
   3          // 循环显示数码管
   4          // 外部中断0触发的LED灯的亮
   5          // 外部中断1触发的LED灯的灭
   6          
   7          #include <REGX52.H>
   8          
   9          #define uchar unsigned char
  10          #define uint unsigned int
  11                  
  12          sbit D1 = P2^0;
  13          uchar num = 0;
  14          const uint time = 114;
  15          
  16          // 共阳极数码管编码表
  17          uchar code table[] = {
  18                  0xc0,0xf9,0xa4,0xb0,
  19                  0x99,0x92,0x82,0xf8,
  20                  0x80,0x90,0x88,0x83,
  21                  0xc6,0xa1,0x86,0x8e
  22          };
  23          
  24          void delay(uint t);
  25          
  26          void main(void)
  27          {
  28   1              // 开中断总开关
  29   1              EA = 1;
  30   1              // 外部中断0控制方式, 0-低电平触发，1-下降沿触发
  31   1              IT0 = 0;
  32   1              // 外部中断0开关
  33   1              EX0 = 1;
  34   1              // 外部中断1控制方式, 0-低电平触发，1-下降沿触发
  35   1              IT1 = 0;
  36   1              // 外部中断1开关
  37   1              EX1 = 1;
  38   1              
  39   1              while(1)
  40   1              {
  41   2                      num = 0;
  42   2                      do
  43   2                      {
  44   3                              P1 = table[num];
  45   3                              delay(1000);
  46   3                              
  47   3                      }while(++num < 16);
  48   2              }
  49   1      }
  50          
  51          // 外部中断0触发事件
  52          void Interrupt0() interrupt 0
  53          {
  54   1              D1 = 0;
C51 COMPILER V9.54   INTERRUPUT                                                            12/07/2016 22:52:29 PAGE 2   

  55   1      }
  56          
  57          // 外部中断1触发事件
  58          void Interrupt1() interrupt 2
  59          {
  60   1              D1 = 1;
  61   1      }
  62          
  63          // 延时X毫秒
  64          void delay(uint t)
  65          {
  66   1              t = t * time;
  67   1              while(t--);
  68   1      }


MODULE INFORMATION:   STATIC OVERLAYABLE
   CODE SIZE        =     63    ----
   CONSTANT SIZE    =     16    ----
   XDATA SIZE       =   ----    ----
   PDATA SIZE       =   ----    ----
   DATA SIZE        =      3    ----
   IDATA SIZE       =   ----    ----
   BIT SIZE         =   ----    ----
END OF MODULE INFORMATION.


C51 COMPILATION COMPLETE.  0 WARNING(S),  0 ERROR(S)
