:03000000020006F5
:0C000600787FE4F6D8FD75811502004DEE
:10017600C0F9A4B0999282F880908883C6A1868E31
:06019E0004100000000047
:0E018600D2A8758801D2AFD2B212011B80FB45
:10011B00C2AFE512C4540FFFE512540FFEE511C434
:10012B00540FFDE511540FFCE4FB75A0FDEF90019E
:10013B007693F5800BBB0AF2E4FB75A0FEEE900103
:10014B007693F5800BBB0AF2E4FB75A0FBED9001F7
:10015B007693F5800BBB0AF2E4FB75A0F7EC9001EC
:0A016B007693F5800BBB0AF2D2AFC9
:010175002267
:0300030002009266
:0D009200C0E0C0F0C083C082C0D075D008AF
:10009F00C2A87FEA7E0112019430B204D2A8806117
:1000AF0030B2FD7FEA7E01120194751400751500C0
:1000BF0030B2FD7F5A7E0012019430B219AF157421
:1000CF0001A80F088002C333D8FCFF74102514F861
:1000DF00E64FF620B2FD0515E515C3940840D1058E
:1000EF0014E514C3940440C5E513F465126010754C
:1000FF001300751200751100751000D2A88002D27E
:01010F00A847
:0B011000D0D0D082D083D0F0D0E032FD
:0A019400EF1F70011E144E70F722D9
:10001200020186E493A3F8E493A34003F68001F27D
:1000220008DFF48029E493A3F85407240CC8C333EF
:10003200C4540F4420C8834004F456800146F6DFBE
:10004200E4800B010204081020408090019EE47EAF
:10005200019360BCA3FF543F30E509541FFEE493B3
:10006200A360010ECF54C025E060A840B8E493A37A
:10007200FAE493A3F8E493A3C8C582C8CAC583CAA5
:10008200F0A3C8C582C8CAC583CADFE9DEE780BE5D
:0101A400005A
:00000001FF
