BL51 BANKED LINKER/LOCATER V6.22                                                        12/05/2016  19:50:18  PAGE 1


BL51 BANKED LINKER/LOCATER V6.22, INVOKED BY:
C:\KEIL_V5\C51\BIN\BL51.EXE .\Objects\STARTUP.obj, .\Objects\Learning.obj TO .\Objects\Learning PRINT (.\Listings\Learni
>> ng.m51) RAMSIZE (256)


MEMORY MODEL: SMALL


INPUT MODULES INCLUDED:
  .\Objects\STARTUP.obj (?C_STARTUP)
  .\Objects\Learning.obj (LEARNING)
  C:\KEIL_V5\C51\LIB\C51S.LIB (?C_INIT)


LINK MAP OF MODULE:  .\Objects\Learning (?C_STARTUP)


            TYPE    BASE      LENGTH    RELOCATION   SEGMENT NAME
            -----------------------------------------------------

            * * * * * * *   D A T A   M E M O R Y   * * * * * * *
            REG     0000H     0008H     ABSOLUTE     "REG BANK 0"
            DATA    0008H     0007H     UNIT         ?DT?LEARNING
            IDATA   000FH     0001H     UNIT         ?STACK

            * * * * * * *   C O D E   M E M O R Y   * * * * * * *
            CODE    0000H     0003H     ABSOLUTE     
            CODE    0003H     008CH     UNIT         ?C_C51STARTUP
            CODE    008FH     0047H     UNIT         ?PR?MAIN?LEARNING
            CODE    00D6H     003DH     UNIT         ?PR?_DISPLAY?LEARNING
            CODE    0113H     0024H     UNIT         ?PR?_DELAY?LEARNING
            CODE    0137H     0012H     UNIT         ?C_INITSEG



OVERLAY MAP OF MODULE:   .\Objects\Learning (?C_STARTUP)


SEGMENT
  +--> CALLED SEGMENT
---------------------
?C_C51STARTUP
  +--> ?PR?MAIN?LEARNING
  +--> ?C_INITSEG

?PR?MAIN?LEARNING
  +--> ?PR?_DISPLAY?LEARNING
  +--> ?PR?_DELAY?LEARNING



SYMBOL TABLE OF MODULE:  .\Objects\Learning (?C_STARTUP)

  VALUE           TYPE          NAME
  ----------------------------------

  -------         MODULE        ?C_STARTUP
  C:0003H         SEGMENT       ?C_C51STARTUP
BL51 BANKED LINKER/LOCATER V6.22                                                      12/05/2016  19:50:18  PAGE 2


  I:000FH         SEGMENT       ?STACK
  C:0000H         PUBLIC        ?C_STARTUP
  D:00E0H         SYMBOL        ACC
  D:00F0H         SYMBOL        B
  D:0083H         SYMBOL        DPH
  D:0082H         SYMBOL        DPL
  N:0000H         SYMBOL        IBPSTACK
  N:0100H         SYMBOL        IBPSTACKTOP
  N:0080H         SYMBOL        IDATALEN
  C:0006H         SYMBOL        IDATALOOP
  N:0000H         SYMBOL        PBPSTACK
  N:0100H         SYMBOL        PBPSTACKTOP
  N:0000H         SYMBOL        PDATALEN
  N:0000H         SYMBOL        PDATASTART
  N:0000H         SYMBOL        PPAGE
  N:0000H         SYMBOL        PPAGEENABLE
  D:00A0H         SYMBOL        PPAGE_SFR
  D:0081H         SYMBOL        SP
  C:0003H         SYMBOL        STARTUP1
  N:0000H         SYMBOL        XBPSTACK
  N:0000H         SYMBOL        XBPSTACKTOP
  N:0000H         SYMBOL        XDATALEN
  N:0000H         SYMBOL        XDATASTART
  C:0000H         LINE#         126
  C:0003H         LINE#         133
  C:0005H         LINE#         134
  C:0006H         LINE#         135
  C:0007H         LINE#         136
  C:0009H         LINE#         185
  C:000CH         LINE#         196
  -------         ENDMOD        ?C_STARTUP

  -------         MODULE        LEARNING
  C:0000H         SYMBOL        _ICE_DUMMY_
  D:0090H         PUBLIC        P1
  D:00A0H         PUBLIC        P2
  C:0113H         PUBLIC        _delay
  D:0008H         PUBLIC        timer
  D:000AH         PUBLIC        state
  C:008FH         PUBLIC        main
  B:00A0H.0       PUBLIC        p2_1
  B:00A0H.1       PUBLIC        p2_2
  B:00A0H.2       PUBLIC        p2_3
  D:000BH         PUBLIC        temp
  D:000CH         PUBLIC        i
  D:000EH         PUBLIC        LIGHT
  C:00D6H         PUBLIC        _display
  -------         PROC          MAIN
  C:008FH         LINE#         21
  C:008FH         LINE#         22
  C:008FH         LINE#         23
  C:0095H         LINE#         25
  C:0095H         LINE#         26
  C:0095H         LINE#         28
  C:0097H         LINE#         29
  C:009EH         LINE#         30
  C:00A0H         LINE#         33
BL51 BANKED LINKER/LOCATER V6.22                                                      12/05/2016  19:50:18  PAGE 3


  C:00A2H         LINE#         34
  C:00A9H         LINE#         35
  C:00ABH         LINE#         38
  C:00ADH         LINE#         39
  C:00B4H         LINE#         40
  C:00B6H         LINE#         43
  C:00BDH         LINE#         46
  C:00C7H         LINE#         47
  C:00CAH         LINE#         48
  C:00D0H         LINE#         49
  C:00D4H         LINE#         50
  -------         ENDPROC       MAIN
  -------         PROC          _DISPLAY
  D:0007H         SYMBOL        d
  C:00D6H         LINE#         53
  C:00D6H         LINE#         54
  C:00D6H         LINE#         55
  C:00E2H         LINE#         56
  C:00E2H         LINE#         57
  C:00E2H         LINE#         58
  C:00E5H         LINE#         59
  C:00E7H         LINE#         60
  C:00E7H         LINE#         61
  C:00F1H         LINE#         62
  C:00F4H         LINE#         63
  C:00F6H         LINE#         64
  C:00F6H         LINE#         65
  C:00F8H         LINE#         66
  C:00F8H         LINE#         67
  C:0101H         LINE#         68
  C:0104H         LINE#         69
  C:010CH         LINE#         70
  C:0110H         LINE#         71
  C:0110H         LINE#         72
  C:0110H         LINE#         73
  C:0112H         LINE#         74
  -------         ENDPROC       _DISPLAY
  -------         PROC          _DELAY
  D:0006H         SYMBOL        t
  C:0113H         LINE#         76
  C:0113H         LINE#         77
  C:0113H         LINE#         78
  C:011DH         LINE#         79
  C:011DH         LINE#         80
  C:0136H         LINE#         81
  C:0136H         LINE#         82
  -------         ENDPROC       _DELAY
  -------         ENDMOD        LEARNING

Program Size: data=16.0 xdata=0 code=329
LINK/LOCATE RUN COMPLETE.  0 WARNING(S),  0 ERROR(S)
