:03000000020003F8
:0C000300787FE4F6D8FD75811202004AF7
:10013500C0F9A4B0999282F880908883C6A1868E72
:10012100010C7202110000040D0E0D0B07040800F2
:03013100000000CB
:10008F00E4F5A090013593F59075A00FE4F50BE41E
:10009F00F50AE4F509E4F5087511007512C8E512C3
:1000AF001512AE11700215114E60228510A0E50BCE
:1000BF00120100850FA0E50A120100850EA0E509C7
:1000CF00120100850DA0E50812010080D10508E599
:1000DF0008C3941040C20509E509941040B7050AFA
:1000EF00E50A941040AC050BE50B941040A10200FB
:0100FF009B65
:0A01000090013593F5907F017E0019
:10010A00750C72EF1FAC0670011E4C6009AD0C1520
:07011A000CED60EF80F722FD
:10000F0002008FE493A3F8E493A34003F68001F278
:10001F0008DFF48029E493A3F85407240CC8C333F2
:10002F00C4540F4420C8834004F456800146F6DFC1
:10003F00E4800B0102040810204080900121E47E2F
:10004F00019360BCA3FF543F30E509541FFEE493B6
:10005F00A360010ECF54C025E060A840B8E493A37D
:10006F00FAE493A3F8E493A3C8C582C8CAC583CAA8
:10007F00F0A3C8C582C8CAC583CADFE9DEE780BE60
:0101340000CA
:00000001FF
