:03000000020006F5
:0C000600787FE4F6D8FD75812702004DDC
:10020C00C0F9A4B0999282F880908883C6A1868E9A
:0F01FC000115000116000117000118000119007C
:10015E00751000751100751200751300751400D21C
:10016E00A8758801D2AFD2B2E515B40122E518C444
:10017E00540FFFEF540FF510E518540FF511E51657
:10018E00C4540FFFEF540FF512E516540FF51385F7
:0D019E00131DAB12AD11AF1012010780CB85
:0101AB002231
:100107008F1A8D1B8B1C75A0FBAF1AEF90020C93F7
:10011700FF8F907F647E001201DC75A0F7AF1BEFA5
:1001270090020C93FF8F907F647E001201DC75A014
:10013700FEAF1CEF90020C93FF8F907F647E00123E
:1001470001DC75A0FDAF1DEF90020C93FF8F907F30
:07015700647E001201DC22AE
:0300030002009266
:0D009200C0E0C0F0C083C082C0D075D008AF
:10009F00751E00751F00752000752100C2AF75A079
:1000AF00FF7F137E011201DC30B204D2AF803E30ED
:1000BF00B2FD20B2FD1201AC8F1E1201AC8F1F12C8
:1000CF0001AC8F201201AC8F2130B2FDE521F4FF7E
:1000DF00EF65206007751500D2AF8011851E16855C
:0D00EF001F17852018852119751501D2AF46
:0B00FC00D0D0D082D083D0F0D0E03212
:1001AC00752700752600E526C394085020E527C363
:1001BC0013F52730B2FD7F497E001201DC53277FF7
:0F01CC0030B20643278020B2FD052680D9AF2729
:0101DB002201
:0401DC008E228F23BD
:1001E000752400752500C3E5259523E52495225047
:0B01F0000A0525E5257002052480EBC0
:0101FB0022E1
:1000120002015EE493A3F8E493A34003F68001F2A5
:1000220008DFF48029E493A3F85407240CC8C333EF
:10003200C4540F4420C8834004F456800146F6DFBE
:10004200E4800B01020408102040809001FCE47E51
:10005200019360BCA3FF543F30E509541FFEE493B3
:10006200A360010ECF54C025E060A840B8E493A37A
:10007200FAE493A3F8E493A3C8C582C8CAC583CAA5
:10008200F0A3C8C582C8CAC583CADFE9DEE780BE5D
:01020B0000F2
:00000001FF
