:03000000020003F8
:0C000300787FE4F6D8FD75810C02004AFD
:1000F800EFDFBF7FFEFDFBF7C0F9A4B0999282F84D
:0901080080908883C6A1868EFF59
:0F014000010C00010810010A00010900010B0069
:1001110075A00112008F8F0AEF90010093F5807F87
:08012100057E0012012980EBAC
:10008F0075900FE590640F605DAF90EF24F56010F1
:10009F0024FE601114601324077012750903800D7C
:1000AF0075090280087509018003E4F5097590F060
:1000BF007F0A7E00120129AF90EF2450601124E0D7
:1000CF00601224F0601324707012750B03800D758D
:1000DF000B028008750B018003E4F50BE50B25E09F
:0900EF0025E02509F508AF0822FF
:10012900750C72EF1FAC0670011E4C6009AD0C1501
:070139000CED60EF80F722DE
:10000F00020111E493A3F8E493A34003F68001F2F5
:10001F0008DFF48029E493A3F85407240CC8C333F2
:10002F00C4540F4420C8834004F456800146F6DFC1
:10003F00E4800B0102040810204080900140E47E10
:10004F00019360BCA3FF543F30E509541FFEE493B6
:10005F00A360010ECF54C025E060A840B8E493A37D
:10006F00FAE493A3F8E493A3C8C582C8CAC583CAA8
:10007F00F0A3C8C582C8CAC583CADFE9DEE780BE60
:01014F0000AF
:00000001FF
