:0300000002000EED
:0C000E00787FE4F6D8FD758108020055EB
:030003000108FFF2
:1000B500758905758CFF758AFED2A9D2AFD28C855C
:0400C500089080FE21
:03000B0002009A56
:10009A00C0E0C2AF758CFF758AFE1508850890E529
:0B00AA000870037508FFD2AFD0E032F1
:10001A000200B5E493A3F8E493A34003F68001F247
:10002A0008DFF48029E493A3F85407240CC8C333E7
:10003A00C4540F4420C8834004F456800146F6DFB6
:10004A00E4800B0102040810204080900003E47E43
:10005A00019360BCA3FF543F30E509541FFEE493AB
:10006A00A360010ECF54C025E060A840B8E493A372
:10007A00FAE493A3F8E493A3C8C582C8CAC583CA9D
:10008A00F0A3C8C582C8CAC583CADFE9DEE780BE55
:0100060000F9
:00000001FF
