BL51 BANKED LINKER/LOCATER V6.22                                                        12/18/2016  13:40:55  PAGE 1


BL51 BANKED LINKER/LOCATER V6.22, INVOKED BY:
C:\KEIL_V5\C51\BIN\BL51.EXE .\Objects\STARTUP.obj, .\Objects\Mathine_C.obj TO .\Objects\MachineC PRINT (.\Listings\Machi
>> neC.m51) RAMSIZE (256)


MEMORY MODEL: SMALL


INPUT MODULES INCLUDED:
  .\Objects\STARTUP.obj (?C_STARTUP)
  .\Objects\Mathine_C.obj (MATHINE_C)
  C:\KEIL_V5\C51\LIB\C51S.LIB (?C_INIT)


LINK MAP OF MODULE:  .\Objects\MachineC (?C_STARTUP)


            TYPE    BASE      LENGTH    RELOCATION   SEGMENT NAME
            -----------------------------------------------------

            * * * * * * *   D A T A   M E M O R Y   * * * * * * *
            REG     0000H     0008H     ABSOLUTE     "REG BANK 0"
            DATA    0008H     0001H     UNIT         ?DT?MATHINE_C
            IDATA   0009H     0001H     UNIT         ?STACK

            * * * * * * *   C O D E   M E M O R Y   * * * * * * *
            CODE    0000H     0003H     ABSOLUTE     
            CODE    0003H     001AH     UNIT         ?PR?MAIN?MATHINE_C
            CODE    001DH     0004H     UNIT         ?C_INITSEG
                    0021H     0002H                  *** GAP ***
            CODE    0023H     0003H     ABSOLUTE     
            CODE    0026H     008CH     UNIT         ?C_C51STARTUP
            CODE    00B2H     002AH     UNIT         ?PR?SERIAL?MATHINE_C



OVERLAY MAP OF MODULE:   .\Objects\MachineC (?C_STARTUP)


SEGMENT
  +--> CALLED SEGMENT
---------------------
?C_C51STARTUP
  +--> ?PR?MAIN?MATHINE_C
  +--> ?C_INITSEG



SYMBOL TABLE OF MODULE:  .\Objects\MachineC (?C_STARTUP)

  VALUE           TYPE          NAME
  ----------------------------------

  -------         MODULE        ?C_STARTUP
  C:0026H         SEGMENT       ?C_C51STARTUP
  I:0009H         SEGMENT       ?STACK
  C:0000H         PUBLIC        ?C_STARTUP
  D:00E0H         SYMBOL        ACC
BL51 BANKED LINKER/LOCATER V6.22                                                      12/18/2016  13:40:55  PAGE 2


  D:00F0H         SYMBOL        B
  D:0083H         SYMBOL        DPH
  D:0082H         SYMBOL        DPL
  N:0000H         SYMBOL        IBPSTACK
  N:0100H         SYMBOL        IBPSTACKTOP
  N:0080H         SYMBOL        IDATALEN
  C:0029H         SYMBOL        IDATALOOP
  N:0000H         SYMBOL        PBPSTACK
  N:0100H         SYMBOL        PBPSTACKTOP
  N:0000H         SYMBOL        PDATALEN
  N:0000H         SYMBOL        PDATASTART
  N:0000H         SYMBOL        PPAGE
  N:0000H         SYMBOL        PPAGEENABLE
  D:00A0H         SYMBOL        PPAGE_SFR
  D:0081H         SYMBOL        SP
  C:0026H         SYMBOL        STARTUP1
  N:0000H         SYMBOL        XBPSTACK
  N:0000H         SYMBOL        XBPSTACKTOP
  N:0000H         SYMBOL        XDATALEN
  N:0000H         SYMBOL        XDATASTART
  C:0000H         LINE#         126
  C:0026H         LINE#         133
  C:0028H         LINE#         134
  C:0029H         LINE#         135
  C:002AH         LINE#         136
  C:002CH         LINE#         185
  C:002FH         LINE#         196
  -------         ENDMOD        ?C_STARTUP

  -------         MODULE        MATHINE_C
  C:0000H         SYMBOL        _ICE_DUMMY_
  D:0090H         PUBLIC        P1
  D:00A0H         PUBLIC        P2
  B:00A8H.7       PUBLIC        EA
  B:00A8H.4       PUBLIC        ES
  B:0098H.0       PUBLIC        RI
  B:0098H.1       PUBLIC        TI
  C:0003H         PUBLIC        main
  D:0008H         PUBLIC        info
  D:0099H         PUBLIC        SBUF
  D:0087H         PUBLIC        PCON
  D:0098H         PUBLIC        SCON
  D:0089H         PUBLIC        TMOD
  B:0098H.2       PUBLIC        RB8
  D:008DH         PUBLIC        TH1
  D:008BH         PUBLIC        TL1
  B:0098H.5       PUBLIC        SM2
  B:0088H.6       PUBLIC        TR1
  C:00B2H         PUBLIC        Serial
  -------         PROC          MAIN
  C:0003H         LINE#         15
  C:0003H         LINE#         16
  C:0003H         LINE#         18
  C:0006H         LINE#         20
  C:0009H         LINE#         22
  C:000CH         LINE#         24
  C:0012H         LINE#         26
BL51 BANKED LINKER/LOCATER V6.22                                                      12/18/2016  13:40:55  PAGE 3


  C:0014H         LINE#         28
  C:0016H         LINE#         30
  C:0018H         LINE#         32
  C:001BH         LINE#         34
  -------         ENDPROC       MAIN
  -------         PROC          SERIAL
  C:00B2H         LINE#         38
  C:00B6H         LINE#         41
  C:00B9H         LINE#         42
  C:00B9H         LINE#         43
  C:00BCH         LINE#         44
  C:00BEH         LINE#         46
  C:00C1H         LINE#         47
  C:00C1H         LINE#         48
  C:00C6H         LINE#         49
  C:00C6H         LINE#         51
  C:00C8H         LINE#         52
  C:00CBH         LINE#         53
  C:00CBH         LINE#         54
  C:00CDH         LINE#         57
  C:00CDH         LINE#         59
  C:00CFH         LINE#         61
  C:00D2H         LINE#         62
  C:00D2H         LINE#         63
  C:00D2H         LINE#         65
  C:00D5H         LINE#         66
  C:00D5H         LINE#         67
  C:00D7H         LINE#         68
  C:00D7H         LINE#         69
  -------         ENDPROC       SERIAL
  -------         ENDMOD        MATHINE_C

Program Size: data=10.0 xdata=0 code=218
LINK/LOCATE RUN COMPLETE.  0 WARNING(S),  0 ERROR(S)
