BL51 BANKED LINKER/LOCATER V6.22                                                        12/18/2016  12:19:24  PAGE 1


BL51 BANKED LINKER/LOCATER V6.22, INVOKED BY:
C:\KEIL_V5\C51\BIN\BL51.EXE .\Objects\STARTUP.obj, .\Objects\Mathine_A.obj TO .\Objects\Project PRINT (.\Listings\Projec
>> t.m51) RAMSIZE (256)


MEMORY MODEL: SMALL


INPUT MODULES INCLUDED:
  .\Objects\STARTUP.obj (?C_STARTUP)
  .\Objects\Mathine_A.obj (MATHINE_A)
  C:\KEIL_V5\C51\LIB\C51S.LIB (?C_INIT)


LINK MAP OF MODULE:  .\Objects\Project (?C_STARTUP)


            TYPE    BASE      LENGTH    RELOCATION   SEGMENT NAME
            -----------------------------------------------------

            * * * * * * *   D A T A   M E M O R Y   * * * * * * *
            REG     0000H     0008H     ABSOLUTE     "REG BANK 0"
            DATA    0008H     0003H     UNIT         ?DT?MATHINE_A
            DATA    000BH     0001H     UNIT         _DATA_GROUP_
            IDATA   000CH     0001H     UNIT         ?STACK

            * * * * * * *   C O D E   M E M O R Y   * * * * * * *
            CODE    0000H     0003H     ABSOLUTE     
            CODE    0003H     0015H     UNIT         ?PR?_DELAY?MATHINE_A
            CODE    0018H     000AH     UNIT         ?C_INITSEG
                    0022H     0001H                  *** GAP ***
            CODE    0023H     0003H     ABSOLUTE     
            CODE    0026H     008CH     UNIT         ?C_C51STARTUP
            CODE    00B2H     0056H     UNIT         ?PR?SERIAL?MATHINE_A
            CODE    0108H     0053H     UNIT         ?PR?MAIN?MATHINE_A
            CODE    015BH     0010H     UNIT         ?CO?MATHINE_A



OVERLAY MAP OF MODULE:   .\Objects\Project (?C_STARTUP)


SEGMENT                          DATA_GROUP 
  +--> CALLED SEGMENT          START    LENGTH
----------------------------------------------
?C_C51STARTUP                  -----    -----
  +--> ?PR?MAIN?MATHINE_A
  +--> ?C_INITSEG

?PR?MAIN?MATHINE_A             000BH    0001H
  +--> ?CO?MATHINE_A
  +--> ?PR?_DELAY?MATHINE_A

*** NEW ROOT ***************************************************

?PR?SERIAL?MATHINE_A           -----    -----
  +--> ?CO?MATHINE_A

BL51 BANKED LINKER/LOCATER V6.22                                                      12/18/2016  12:19:24  PAGE 2




SYMBOL TABLE OF MODULE:  .\Objects\Project (?C_STARTUP)

  VALUE           TYPE          NAME
  ----------------------------------

  -------         MODULE        ?C_STARTUP
  C:0026H         SEGMENT       ?C_C51STARTUP
  I:000CH         SEGMENT       ?STACK
  C:0000H         PUBLIC        ?C_STARTUP
  D:00E0H         SYMBOL        ACC
  D:00F0H         SYMBOL        B
  D:0083H         SYMBOL        DPH
  D:0082H         SYMBOL        DPL
  N:0000H         SYMBOL        IBPSTACK
  N:0100H         SYMBOL        IBPSTACKTOP
  N:0080H         SYMBOL        IDATALEN
  C:0029H         SYMBOL        IDATALOOP
  N:0000H         SYMBOL        PBPSTACK
  N:0100H         SYMBOL        PBPSTACKTOP
  N:0000H         SYMBOL        PDATALEN
  N:0000H         SYMBOL        PDATASTART
  N:0000H         SYMBOL        PPAGE
  N:0000H         SYMBOL        PPAGEENABLE
  D:00A0H         SYMBOL        PPAGE_SFR
  D:0081H         SYMBOL        SP
  C:0026H         SYMBOL        STARTUP1
  N:0000H         SYMBOL        XBPSTACK
  N:0000H         SYMBOL        XBPSTACKTOP
  N:0000H         SYMBOL        XDATALEN
  N:0000H         SYMBOL        XDATASTART
  C:0000H         LINE#         126
  C:0026H         LINE#         133
  C:0028H         LINE#         134
  C:0029H         LINE#         135
  C:002AH         LINE#         136
  C:002CH         LINE#         185
  C:002FH         LINE#         196
  -------         ENDMOD        ?C_STARTUP

  -------         MODULE        MATHINE_A
  C:0000H         SYMBOL        _ICE_DUMMY_
  D:0090H         PUBLIC        P1
  D:00A0H         PUBLIC        P2
  B:00A8H.7       PUBLIC        EA
  D:0008H         PUBLIC        current
  C:015BH         PUBLIC        table
  C:0003H         PUBLIC        _delay
  B:0098H.0       PUBLIC        RI
  B:0098H.1       PUBLIC        TI
  C:0108H         PUBLIC        main
  D:0009H         PUBLIC        info
  D:0099H         PUBLIC        SBUF
  D:0087H         PUBLIC        PCON
  D:0098H         PUBLIC        SCON
  D:0089H         PUBLIC        TMOD
BL51 BANKED LINKER/LOCATER V6.22                                                      12/18/2016  12:19:24  PAGE 3


  D:000AH         PUBLIC        senddata
  D:008DH         PUBLIC        TH1
  B:0098H.3       PUBLIC        TB8
  D:008BH         PUBLIC        TL1
  B:0088H.6       PUBLIC        TR1
  C:00B2H         PUBLIC        Serial
  -------         PROC          MAIN
  -------         DO            
  D:000BH         SYMBOL        temp
  -------         ENDDO         
  C:0108H         LINE#         28
  C:0108H         LINE#         29
  C:0108H         LINE#         30
  C:010BH         LINE#         33
  C:010EH         LINE#         35
  C:0111H         LINE#         37
  C:0114H         LINE#         39
  C:011AH         LINE#         41
  C:011CH         LINE#         43
  C:011EH         LINE#         45
  C:011EH         LINE#         46
  C:011EH         LINE#         47
  C:0120H         LINE#         48
  C:0128H         LINE#         49
  C:0128H         LINE#         50
  C:012BH         LINE#         51
  C:012BH         LINE#         53
  C:0134H         LINE#         56
  C:0136H         LINE#         58
  C:013BH         LINE#         59
  C:013BH         LINE#         60
  C:013EH         LINE#         62
  C:0141H         LINE#         63
  C:0143H         LINE#         65
  C:0148H         LINE#         66
  C:0148H         LINE#         67
  C:014BH         LINE#         69
  C:0152H         LINE#         70
  C:0152H         LINE#         73
  C:0159H         LINE#         74
  -------         ENDPROC       MAIN
  -------         PROC          SERIAL
  -------         DO            
  D:0007H         SYMBOL        tmp
  -------         ENDDO         
  C:00B2H         LINE#         78
  C:00C1H         LINE#         80
  C:00C1H         LINE#         83
  C:00C4H         LINE#         84
  C:00C4H         LINE#         85
  C:00C7H         LINE#         86
  C:00C9H         LINE#         88
  C:00D5H         LINE#         89
  C:00D5H         LINE#         91
  C:00D7H         LINE#         92
  C:00E0H         LINE#         93
  C:00E0H         LINE#         94
BL51 BANKED LINKER/LOCATER V6.22                                                      12/18/2016  12:19:24  PAGE 4


  C:00E2H         LINE#         95
  C:00E2H         LINE#         96
  C:00ECH         LINE#         98
  C:00EEH         LINE#         100
  C:00F4H         LINE#         102
  C:00F6H         LINE#         103
  C:00F6H         LINE#         110
  C:00F6H         LINE#         112
  C:00F9H         LINE#         113
  C:00F9H         LINE#         114
  C:00FBH         LINE#         115
  C:00FBH         LINE#         116
  -------         ENDPROC       SERIAL
  -------         PROC          _DELAY
  D:0006H         SYMBOL        t
  -------         DO            
  D:0005H         SYMBOL        tm
  -------         ENDDO         
  C:0003H         LINE#         119
  C:0003H         LINE#         120
  C:0003H         LINE#         121
  C:0005H         LINE#         122
  C:000FH         LINE#         123
  C:000FH         LINE#         124
  C:0017H         LINE#         126
  -------         ENDPROC       _DELAY
  -------         ENDMOD        MATHINE_A

Program Size: data=13.0 xdata=0 code=362
LINK/LOCATE RUN COMPLETE.  0 WARNING(S),  0 ERROR(S)
