BL51 BANKED LINKER/LOCATER V6.22                                                        12/08/2016  09:35:18  PAGE 1


BL51 BANKED LINKER/LOCATER V6.22, INVOKED BY:
C:\KEIL_V5\C51\BIN\BL51.EXE .\Objects\STARTUP.obj, .\Objects\Program.obj TO .\Objects\program PRINT (.\Listings\program.
>> m51) RAMSIZE (256)


MEMORY MODEL: SMALL


INPUT MODULES INCLUDED:
  .\Objects\STARTUP.obj (?C_STARTUP)
  .\Objects\Program.obj (PROGRAM)
  C:\KEIL_V5\C51\LIB\C51S.LIB (?C_INIT)
  C:\KEIL_V5\C51\LIB\C51S.LIB (?C?UIDIV)


LINK MAP OF MODULE:  .\Objects\program (?C_STARTUP)


            TYPE    BASE      LENGTH    RELOCATION   SEGMENT NAME
            -----------------------------------------------------

            * * * * * * *   D A T A   M E M O R Y   * * * * * * *
            REG     0000H     0008H     ABSOLUTE     "REG BANK 0"
            DATA    0008H     000BH     UNIT         ?DT?PROGRAM
            IDATA   0013H     0001H     UNIT         ?STACK

            * * * * * * *   C O D E   M E M O R Y   * * * * * * *
            CODE    0000H     0003H     ABSOLUTE     
            CODE    0003H     00E9H     UNIT         ?PR?MAIN?PROGRAM
            CODE    00ECH     008CH     UNIT         ?C_C51STARTUP
            CODE    0178H     0055H     UNIT         ?C?LIB_CODE
            CODE    01CDH     0032H     UNIT         ?CO?PROGRAM
            CODE    01FFH     0021H     UNIT         ?PR?_DELAY?PROGRAM
            CODE    0220H     0016H     UNIT         ?C_INITSEG



OVERLAY MAP OF MODULE:   .\Objects\program (?C_STARTUP)


SEGMENT
  +--> CALLED SEGMENT
---------------------
?C_C51STARTUP
  +--> ?PR?MAIN?PROGRAM
  +--> ?C_INITSEG

?PR?MAIN?PROGRAM
  +--> ?CO?PROGRAM
  +--> ?PR?_DELAY?PROGRAM

?PR?_DELAY?PROGRAM
  +--> ?CO?PROGRAM



SYMBOL TABLE OF MODULE:  .\Objects\program (?C_STARTUP)

BL51 BANKED LINKER/LOCATER V6.22                                                      12/08/2016  09:35:18  PAGE 2


  VALUE           TYPE          NAME
  ----------------------------------

  -------         MODULE        ?C_STARTUP
  C:00ECH         SEGMENT       ?C_C51STARTUP
  I:0013H         SEGMENT       ?STACK
  C:0000H         PUBLIC        ?C_STARTUP
  D:00E0H         SYMBOL        ACC
  D:00F0H         SYMBOL        B
  D:0083H         SYMBOL        DPH
  D:0082H         SYMBOL        DPL
  N:0000H         SYMBOL        IBPSTACK
  N:0100H         SYMBOL        IBPSTACKTOP
  N:0080H         SYMBOL        IDATALEN
  C:00EFH         SYMBOL        IDATALOOP
  N:0000H         SYMBOL        PBPSTACK
  N:0100H         SYMBOL        PBPSTACKTOP
  N:0000H         SYMBOL        PDATALEN
  N:0000H         SYMBOL        PDATASTART
  N:0000H         SYMBOL        PPAGE
  N:0000H         SYMBOL        PPAGEENABLE
  D:00A0H         SYMBOL        PPAGE_SFR
  D:0081H         SYMBOL        SP
  C:00ECH         SYMBOL        STARTUP1
  N:0000H         SYMBOL        XBPSTACK
  N:0000H         SYMBOL        XBPSTACKTOP
  N:0000H         SYMBOL        XDATALEN
  N:0000H         SYMBOL        XDATASTART
  C:0000H         LINE#         126
  C:00ECH         LINE#         133
  C:00EEH         LINE#         134
  C:00EFH         LINE#         135
  C:00F0H         LINE#         136
  C:00F2H         LINE#         185
  C:00F5H         LINE#         196
  -------         ENDMOD        ?C_STARTUP

  -------         MODULE        PROGRAM
  C:0000H         SYMBOL        _ICE_DUMMY_
  D:0090H         PUBLIC        P1
  D:00A0H         PUBLIC        P2
  C:01CDH         PUBLIC        table
  C:01D7H         PUBLIC        number
  C:0209H         PUBLIC        _delay
  D:0008H         PUBLIC        value
  D:000CH         PUBLIC        timer
  C:0003H         PUBLIC        main
  D:000DH         PUBLIC        turbo
  C:01F7H         PUBLIC        ch
  D:0011H         PUBLIC        tm
  D:0012H         PUBLIC        n
  -------         PROC          MAIN
  C:0003H         LINE#         42
  C:0003H         LINE#         43
  C:0003H         LINE#         45
  C:0006H         LINE#         46
  C:000CH         LINE#         47
BL51 BANKED LINKER/LOCATER V6.22                                                      12/08/2016  09:35:18  PAGE 3


  C:000FH         LINE#         49
  C:000FH         LINE#         53
  C:002FH         LINE#         54
  C:004BH         LINE#         55
  C:0065H         LINE#         56
  C:0082H         LINE#         59
  C:0085H         LINE#         60
  C:008CH         LINE#         61
  C:008CH         LINE#         63
  C:008FH         LINE#         64
  C:0091H         LINE#         65
  C:0094H         LINE#         67
  C:0097H         LINE#         68
  C:0099H         LINE#         69
  C:009CH         LINE#         71
  C:009FH         LINE#         72
  C:00A1H         LINE#         73
  C:00A4H         LINE#         75
  C:00A7H         LINE#         76
  C:00A9H         LINE#         77
  C:00ACH         LINE#         78
  C:00AEH         LINE#         79
  C:00BAH         LINE#         82
  C:00BAH         LINE#         83
  C:00BAH         LINE#         85
  C:00BDH         LINE#         86
  C:00C3H         LINE#         87
  C:00C6H         LINE#         89
  C:00C9H         LINE#         90
  C:00CFH         LINE#         91
  C:00D2H         LINE#         93
  C:00D5H         LINE#         94
  C:00DBH         LINE#         95
  C:00DEH         LINE#         97
  C:00E1H         LINE#         98
  C:00E7H         LINE#         99
  C:00EAH         LINE#         100
  -------         ENDPROC       MAIN
  C:01FFH         SYMBOL        L?0016
  C:0202H         SYMBOL        L?0017
  -------         PROC          L?0015
  -------         ENDPROC       L?0015
  C:01FFH         SYMBOL        L?0016
  C:0202H         SYMBOL        L?0017
  -------         PROC          _DELAY
  D:0006H         SYMBOL        t
  C:0209H         LINE#         104
  C:0209H         LINE#         105
  C:0209H         LINE#         106
  C:020CH         LINE#         107
  C:0216H         LINE#         108
  C:0216H         LINE#         109
  C:021FH         LINE#         111
  -------         ENDPROC       _DELAY
  -------         ENDMOD        PROGRAM

  -------         MODULE        ?C?UIDIV
BL51 BANKED LINKER/LOCATER V6.22                                                      12/08/2016  09:35:18  PAGE 4


  C:0178H         PUBLIC        ?C?UIDIV
  -------         ENDMOD        ?C?UIDIV

Program Size: data=20.0 xdata=0 code=566
LINK/LOCATE RUN COMPLETE.  0 WARNING(S),  0 ERROR(S)
