C51 COMPILER V9.54   38KHZ1                                                                01/26/2017 16:21:02 PAGE 1   


C51 COMPILER V9.54, COMPILATION OF MODULE 38KHZ1
OBJECT MODULE PLACED IN .\Objects\38KHz1.obj
COMPILER INVOKED BY: C:\Keil_v5\C51\BIN\C51.EXE 38KHz1.c OPTIMIZE(8,SPEED) BROWSE DEBUG OBJECTEXTEND PRINT(.\Listings\38
                    -KHz1.lst) OBJECT(.\Objects\38KHz1.obj)

line level    source

   1          /****************************************
   2          *@文件: 38KHz1.c
   3          *@作者: Scriptfan <scriptfan@hotmail.com>
   4          *@日期: 2017-01-26
   5          *@描述: 延时法产生38KHz载波演示
   6          *@接线: P1.0输出载波脉冲
   7          ****************************************/
   8          
   9          #include <REG1051.H>
  10          #include <intrins.h>
  11          
  12          // 宏定义
  13          typedef unsigned char uchar;
  14          typedef unsigned int uint;
  15          typedef unsigned long ulong;
  16          
  17          #define HH 1
  18          #define LL 0
  19          
  20          sbit WAVE = P1^0;
  21          sbit KEY = P3^2;
  22          bit STATE = LL;
  23          
  24          // 全局变量
  25          
  26          // 函数声明
  27          void delay(uint);
  28          void makeWave(void);
  29          void makeSignal(void);
  30          
  31          /****************************************
  32          *@描述: 
  33          *@参数: 
  34          *@返回:
  35          ****************************************/
  36          void main(void)
  37          {       
  38   1              // 设置为输入口
  39   1              KEY = 1;
  40   1              
  41   1              while(1)
  42   1              {
  43   2                      if(KEY == 0)
  44   2                      {
  45   3                              // 按键消抖
  46   3                              delay(900);
  47   3                              if(KEY == 0)
  48   3                              {
  49   4                                      // 按键弹起
  50   4                                      while(!KEY);
  51   4                                      
  52   4                                      makeWave();
  53   4                              }
  54   3                      }
C51 COMPILER V9.54   38KHZ1                                                                01/26/2017 16:21:02 PAGE 2   

  55   2              }
  56   1      }
  57          
  58          /****************************************
  59          *@描述: 仿NEC编码发生器
  60          *@参数: void
  61          *@返回: void
  62          ****************************************/
  63          void makeWave(void)
  64          {
  65   1              uchar n = 0;
  66   1              uint t;
  67   1              
  68   1              // 9ms引导码
  69   1              WAVE = LL;
  70   1              STATE = LL;
  71   1              for(t = 0; t < 346; t++)
  72   1              {
  73   2                      makeSignal();
  74   2              }
  75   1      
  76   1              // 4.5ms起始码
  77   1              WAVE = HH;
  78   1              STATE = HH;
  79   1              for(t = 0; t < 173; t++)
  80   1              {
  81   2                      makeSignal();
  82   2              }
  83   1              
  84   1              for(n = 0; n < 32; n++)
  85   1              {
  86   2                      // 输出高电平
  87   2                      WAVE = LL;
  88   2                      STATE = LL;
  89   2                      // 延时650us
  90   2                      for(t = 0; t < 25; t++)
  91   2                      {
  92   3                              makeSignal();
  93   3                      }
  94   2                      
  95   2                      // 输出低电平
  96   2                      WAVE = HH;
  97   2                      STATE = HH;
  98   2                      // 延时1685us
  99   2                      for(t = 0; t < 64; t++)
 100   2                      {
 101   3                              makeSignal();
 102   3                      }
 103   2              }
 104   1              
 105   1              // 结束码,延时2.5ms
 106   1              WAVE = LL;
 107   1              STATE = LL;
 108   1              for(t = 0; t < 96; t++)
 109   1              {
 110   2                      makeSignal();
 111   2              }
 112   1              WAVE = HH;
 113   1              STATE = HH;
 114   1      }
 115          
 116          /****************************************
C51 COMPILER V9.54   38KHZ1                                                                01/26/2017 16:21:02 PAGE 3   

 117          *@描述: 定时器T0中断函数, 产生17/9的PWM脉冲
 118          *       38KHz载波每个波长的周期为26us
 119          *       11.0592MHz的单片机，每个机器周期为1.08us
 120          *@参数: void
 121          *@返回: void
 122          ****************************************/
 123          void makeSignal(void)
 124          {       
 125   1              uchar i;
 126   1              
 127   1              if(STATE == HH)
 128   1              {
 129   2                      for(i = 0; i < 14; i++);
 130   2                      return;
 131   2              }
 132   1              else
 133   1              {
 134   2                      // 跳过16个高电平
 135   2                      for(i = 0; i < 8; i++);
 136   2                      
 137   2                      WAVE = HH;
 138   2                      for(i = 0; i < 4; i++);
 139   2                      
 140   2                      WAVE = STATE;
 141   2                      return;
 142   2              }
 143   1      }
 144          
 145          /****************************************
 146          *@描述: 微秒延时函数, Time=18+6(t-1)
 147          *@参数: unsigned int
 148          *@返回: void
 149          ****************************************/
 150          void delay(uint t)
 151          {
 152   1              while(--t);
 153   1      }


MODULE INFORMATION:   STATIC OVERLAYABLE
   CODE SIZE        =    226    ----
   CONSTANT SIZE    =   ----    ----
   XDATA SIZE       =   ----    ----
   PDATA SIZE       =   ----    ----
   DATA SIZE        =   ----       3
   IDATA SIZE       =   ----    ----
   BIT SIZE         =      1    ----
END OF MODULE INFORMATION.


C51 COMPILATION COMPLETE.  0 WARNING(S),  0 ERROR(S)
