C51 COMPILER V9.54   38KHZ                                                                 01/26/2017 13:00:22 PAGE 1   


C51 COMPILER V9.54, COMPILATION OF MODULE 38KHZ
OBJECT MODULE PLACED IN .\Objects\38KHz.obj
COMPILER INVOKED BY: C:\Keil_v5\C51\BIN\C51.EXE 38KHz.c OPTIMIZE(8,SPEED) BROWSE DEBUG OBJECTEXTEND PRINT(.\Listings\38K
                    -Hz.lst) OBJECT(.\Objects\38KHz.obj)

line level    source

   1          /****************************************
   2          *@文件: 38KHz.c
   3          *@作者: Scriptfan <scriptfan@hotmail.com>
   4          *@日期: 2017-01-26
   5          *@描述: 38KHz载波演示
   6          *@接线: P1.0输出载波脉冲
   7          ****************************************/
   8          
   9          #include <REG1051.H>
  10          
  11          // 宏定义
  12          typedef unsigned char uchar;
  13          typedef unsigned int uint;
  14          typedef unsigned long ulong;
  15          
  16          #define HH 1
  17          #define LL 0
  18          
  19          sbit WAVE = P1^0;
  20          sbit KEY = P3^2;
  21          bit STATE = 1;
  22          
  23          // 全局变量
  24          
  25          // 函数声明
  26          void delay(uint);
  27          void makeWave(void);
  28          
  29          /****************************************
  30          *@描述: 
  31          *@参数: 
  32          *@返回:
  33          ****************************************/
  34          void main(void)
  35          {
  36   1              // 初始化定时器, 8位自动重装定时器
  37   1              TMOD = 0x02;
  38   1              // 38KHz的波长周期为26us, 延时17秒，产生17/9的PWM脉冲
  39   1              TH0 = TL0 = 0xEE; //0xEE
  40   1              // 打开定时器开关
  41   1              ET0 = 1;
  42   1              //TR0 = 1;
  43   1              // 设置定时器中断优先
  44   1              //IP |= 0x02;
  45   1              
  46   1              // 初始化外部中断0, 低电平触发
  47   1              //IT0 = 1;
  48   1              //EX0 = 1;
  49   1              
  50   1              // 开中断
  51   1              EA = 1;
  52   1              
  53   1              while(1)
  54   1              {
C51 COMPILER V9.54   38KHZ                                                                 01/26/2017 13:00:22 PAGE 2   

  55   2                      KEY = 1;
  56   2                      if(KEY == 0)
  57   2                      {
  58   3                              delay(900);
  59   3                              if(KEY == 0)
  60   3                              {
  61   4                                      while(!KEY);
  62   4                                      TR0 = 1;
  63   4                                      makeWave();
  64   4                                      TR0 = 0;
  65   4                              }
  66   3                      }
  67   2              }
  68   1      }
  69          
  70          /****************************************
  71          *@描述: 仿NEC编码发生器
  72          *@参数: void
  73          *@返回: void
  74          ****************************************/
  75          void makeWave(void)
  76          {
  77   1              uchar n = 0;
  78   1              
  79   1              // 9ms引导码
  80   1              WAVE = LL;
  81   1              STATE = LL;
  82   1              delay(1498);
  83   1              // 4.5ms起始码
  84   1              WAVE = HH;
  85   1              STATE = HH;
  86   1              delay(748);
  87   1              
  88   1              for(n = 0; n < 32; n++)
  89   1              {
  90   2                      // 输出高电平
  91   2                      WAVE = LL;
  92   2                      STATE = LL;
  93   2                      // 延时650us
  94   2                      delay(157);
  95   2                      // 输出低电平
  96   2                      WAVE = HH;
  97   2                      STATE = HH;
  98   2                      // 延时1658us
  99   2                      delay(274);
 100   2              }
 101   1              
 102   1              // 结束码,延时2.5ms
 103   1              WAVE = LL;
 104   1              STATE = LL;
 105   1              delay(415);
 106   1              WAVE = HH;
 107   1              STATE = HH;
 108   1      }
 109          
 110          /****************************************
 111          *@描述: 外部中断0中断函数
 112          *@参数: void
 113          *@返回: void
 114          ****************************************/
 115          //void int0(void) interrupt 0 using 1
 116          //{
C51 COMPILER V9.54   38KHZ                                                                 01/26/2017 13:00:22 PAGE 3   

 117          //      TR0 = 1;
 118          //      makeWave();
 119          //      TR0 = 0;
 120          //}
 121          
 122          /****************************************
 123          *@描述: 定时器T0中断函数, 产生17/9的PWM脉冲
 124          *@参数: void
 125          *@返回: void
 126          ****************************************/
 127          void timer0(void) interrupt 1 using 1
 128          {       
 129   1              uchar i;
 130   1              
 131   1              if(STATE == LL)
 132   1              {
 133   2                      WAVE = HH;              
 134   2              }
 135   1              else
 136   1              {
 137   2                      i = 0;
 138   2              }
 139   1              for(i = 0; i < 2; i++);
 140   1              WAVE = STATE;
 141   1      }
 142          
 143          /****************************************
 144          *@描述: 微秒延时函数, Time=18+6(t-1)
 145          *@参数: unsigned int
 146          *@返回: void
 147          ****************************************/
 148          void delay(uint t)
 149          {
 150   1              while(--t);
 151   1      }


MODULE INFORMATION:   STATIC OVERLAYABLE
   CODE SIZE        =    150    ----
   CONSTANT SIZE    =   ----    ----
   XDATA SIZE       =   ----    ----
   PDATA SIZE       =   ----    ----
   DATA SIZE        =   ----       1
   IDATA SIZE       =   ----    ----
   BIT SIZE         =      1    ----
END OF MODULE INFORMATION.


C51 COMPILATION COMPLETE.  0 WARNING(S),  0 ERROR(S)
