:030000000200EC0F
:0C00EC00787FE4F6D8FD75811202013324
:1001CD00C0F9A4B0999282F88090045708AE0D053D
:1001DD00115C15B31A0A1E6122B8270F04D2092922
:1001ED000D8011D7162E1A851ED200C000C10084B5
:0201FD00008D73
:10022000010C00011100011200040D070B0D0E045A
:050230000800000000C1
:10000300E4F5A09001CD93F59075A00FE51225E0DE
:1000130024D7F582E43401F583E493FA740193FB66
:100023007C037DE8FFAE021201788F087C037DE834
:10003300AF03AE02120178AA04AB057D647C00AF66
:1000430003AE021201788F097D647C00AF03AE0218
:100053001201787E007F0ACFCDCFCECCCE120178AD
:100063008F0AE51225E024D7F582E43401F583E411
:1000730093FE740193FF7C007D0A1201788D0B754A
:1000830011F4AF111511EF6022850DA0E5081201DF
:10009300FF850EA0E5091201FF850FA0E50A1201F5
:1000A300FF8510A0E50B1201FF80D70512E512C3EF
:1000B3009410500302000F850DA09001F7E4740122
:1000C300120202850EA09001F9E474011202028566
:1000D3000FA09001FBE474011202028510A09001AD
:0900E300FDE4740112020280CE5A
:0A01FF009001CD93F5907F017E0082
:10020900750C72EF1FAC0670011E4C6009AD0C1520
:070219000CED60EF80F722FD
:1000F800020003E493A3F8E493A34003F68001F21B
:1001080008DFF48029E493A3F85407240CC8C33308
:10011800C4540F4420C8834004F456800146F6DFD7
:10012800E4800B0102040810204080900220E47E45
:10013800019360BCA3FF543F30E509541FFEE493CC
:10014800A360010ECF54C025E060A840B8E493A393
:10015800FAE493A3F8E493A3C8C582C8CAC583CABE
:10016800F0A3C8C582C8CAC583CADFE9DEE780BE76
:0102350000C8
:10017800BC000BBE0029EF8DF084FFADF022E4CC6B
:10018800F875F008EF2FFFEE33FEEC33FCEE9DEC34
:10019800984005FCEE9DFE0FD5F0E9E4CEFD22ED7A
:1001A800F8F5F0EE8420D21CFEADF075F008EF2FC4
:1001B800FFED33FD4007985006D5F0F222C398FDB5
:0501C8000FD5F0EA2252
:00000001FF
