:0300000002009566
:0C009500787FE4F6D8FD75810E0200DCD7
:100144008EC0F9A4B0999282F880908883C6A18663
:0A015400020D000004080000000086
:10000300C2A3C2A2C2A1C2A0900144E493F590D2BC
:10001300A3D2A2D2A1D2A0E4F50BE50BC394105056
:10002300F6050BE4F50AE50AC3941050ED050AE45E
:10003300F509E509C3941050ED0509E4F508E50851
:10004300C3941050ED750D00750E64E50E150EAEDC
:100053000D7002150D4E6036D2A2D2A1D2A0C2A35A
:10006300E50B120121D2A3D2A1D2A0C2A2E50A12AA
:100073000121D2A3D2A2D2A0C2A1E509120121D2A9
:10008300A3D2A2D2A1C2A0E50812012180BD050816
:0200930080AC3F
:0A01210090014493F5907F017E00E9
:10012B00EF1FAC0670011E4C600E750C72E50CD304
:09013B00940040EC150C80F52243
:1000A100020003E493A3F8E493A34003F68001F272
:1000B10008DFF48029E493A3F85407240CC8C33360
:1000C100C4540F4420C8834004F456800146F6DF2F
:1000D100E4800B0102040810204080900154E47E6A
:1000E100019360BCA3FF543F30E509541FFEE49324
:1000F100A360010ECF54C025E060A840B8E493A3EB
:10010100FAE493A3F8E493A3C8C582C8CAC583CA15
:10011100F0A3C8C582C8CAC583CADFE9DEE780BECD
:01015E0000A0
:00000001FF
