C51 COMPILER V9.54   NECDECODER                                                            01/31/2017 11:13:06 PAGE 1   


C51 COMPILER V9.54, COMPILATION OF MODULE NECDECODER
OBJECT MODULE PLACED IN .\Objects\NECDecoder.obj
COMPILER INVOKED BY: C:\Keil_v5\C51\BIN\C51.EXE NECDecoder.c OPTIMIZE(0,SPEED) REGFILE(.\Objects\NECDecoder.ORC) BROWSE 
                    -DEBUG OBJECTEXTEND PRINT(.\Listings\NECDecoder.lst) OBJECT(.\Objects\NECDecoder.obj)

line level    source

   1          /****************************************
   2          *@文件: NEC.c
   3          *@作者: Scriptfan <scriptfan@hotmail.com>
   4          *@日期: 2017-01-25
   5          *@描述: 采用NEC协议的红外接收器
   6          *@接线: P0口控制7段数码管的段显示
   7          *       P2.0-P2.3控制数码管的位选择
   8          *       P3.2用于红外信号传输
   9          ****************************************/
  10          
  11          #include <REGX52.H>
  12          #include <intrins.h>
  13          
  14          // 宏定义
  15          typedef unsigned char uchar;
  16          typedef unsigned int uint;
  17          typedef unsigned long ulong;
  18          
  19          // 七段数码管
  20          #define SEG P1
  21          #define POS P2
  22          #define TRUE 1
  23          #define FALSE 0
  24          
  25          // 红外接收头数据线
  26          sbit IRIN = P3^2;
  27          sbit LED = P3^0;
  28          uchar DECODE_OK = FALSE;
  29          
  30          // 接收到的数据
  31          uchar GETCODE[4] = {0, 0, 0, 0};
  32          uchar addr1 = 0, addr2 = 0, dat1 = 0, dat2 = 0;
  33          
  34          // 全局变量
  35          // LED显示字模 0-F 共阳模式
  36          uchar code table[]= {
  37                  0xC0,0xF9,0xA4,0xB0,
  38                  0x99,0x92,0x82,0xF8,
  39                  0x80,0x90,0x88,0x83,
  40                  0xC6,0xA1,0x86,0x8E
  41          };
  42          // 函数声明
  43          void delay(uint);
  44          void display(void);
  45          
  46          /****************************************
  47          *@描述: 主函数
  48          ****************************************/
  49          void main(void)
  50          {
  51   1              uchar i = 0;
  52   1              // 初始化外部中断0
  53   1              EX0 = 1;
  54   1              // 负边沿触发
C51 COMPILER V9.54   NECDECODER                                                            01/31/2017 11:13:06 PAGE 2   

  55   1              TCON = 0x01;
  56   1              // 打开中断开关
  57   1              EA = 1;
  58   1              // 
  59   1              IRIN = 1;
  60   1                      
  61   1              while(1)
  62   1              {
  63   2                      display();
  64   2      //              if(DECODE_OK == TRUE)
  65   2      //              {
  66   2      //                      //for(i = 0; i < 100; i++)
  67   2      //                      display();
  68   2      //              }
  69   2      //              else
  70   2      //              {
  71   2      //                      POS = 0xF0;
  72   2      //                      SEG = table[0];
  73   2      //              }
  74   2              }
  75   1      }
  76          
  77          /****************************************
  78          *@描述: 7段数码管字符显示
  79          *@返回: void
  80          ****************************************/
  81          void display(void)
  82          {
  83   1              uchar k1, k2, k3, k4;
  84   1                      
  85   1              k1 = (GETCODE[2] >> 4) & 0x0F;
  86   1              k2 = GETCODE[2] & 0x0F;
  87   1              //k1 = GETCODE[2] / 10;
  88   1              //k2 = GETCODE[2] % 10;
  89   1              
  90   1              k3 = (GETCODE[0] >> 4) & 0x0F;
  91   1              k4 = GETCODE[0] & 0x0F;
  92   1              
  93   1              // 地址位
  94   1              POS = 0xFE;
  95   1              SEG = table[k3];
  96   1              delay(10);
  97   1              
  98   1              // 地址位
  99   1              POS = 0xFD;
 100   1              SEG = table[k4];
 101   1              delay(10);
 102   1              
 103   1              // 显示低位
 104   1              POS = 0xFB;
 105   1              SEG = table[k1];
 106   1              delay(10);
 107   1              
 108   1              // 显示高位
 109   1              POS = 0xF7;
 110   1              SEG = table[k2];
 111   1              delay(10);
 112   1      }
 113          
 114          /****************************************
 115          *@描述: 外部中断0中断函数
 116          *@返回: void
C51 COMPILER V9.54   NECDECODER                                                            01/31/2017 11:13:06 PAGE 3   

 117          ****************************************/
 118          void int0() interrupt 0 using 1
 119          {
 120   1              uchar n, i, temp = 0;
 121   1              // 关闭中断，防止重复触发
 122   1              EX0 = 0;
 123   1              
 124   1              //DECODE_OK = FALSE;
 125   1              
 126   1              // 延时3ms
 127   1              delay(275);
 128   1              //LED = 0;
 129   1              // 不是有效的信号，丢弃
 130   1              if(IRIN == 1)
 131   1              {
 132   2                      EX0 = 1;
 133   2                      return;
 134   2              }
 135   1              
 136   1              // 跳过9ms的引导码
 137   1              while(!IRIN);
 138   1              // 跳过4.5ms的起始码, 延时4.55ms
 139   1              while(IRIN);
 140   1      //      delay(418);
 141   1      //      // 不是有效的信号，丢弃
 142   1      //      if(IRIN == 1)
 143   1      //      {
 144   1      //              EX0 = 1;
 145   1      //              return;
 146   1      //      }
 147   1      //      LED = 0;
 148   1              // 接收4组数据
 149   1              for(n = 0; n < 4; n++)
 150   1              {
 151   2                      // 每组数据的8位
 152   2                      for(i = 0; i < 8; i++)
 153   2                      {
 154   3                              temp >>= 1;
 155   3                              
 156   3                              // 等待低电平
 157   3                              while(!IRIN);
 158   3                              // 延时800微秒，判断是0还是1
 159   3                              // 为0高电平维持0.565毫秒
 160   3                              // 为1高电平维持1.685毫秒
 161   3                              // 跳过800微秒，要么还是高电平，要么已经是下一个位的低电平了
 162   3                              delay(73);
 163   3                              
 164   3                              temp &= 0x7F;
 165   3                              if(IRIN)
 166   3                              {
 167   4                                      // 低位在前，高位在后
 168   4                                      temp |= 0x80;
 169   4                                      // 等待跳变为低电平
 170   4                                      while(IRIN);
 171   4                              }
 172   3                      }
 173   2                      GETCODE[n] = temp;
 174   2              }
 175   1              
 176   1              // 2.5ms结束码
 177   1              //delay(228);
 178   1              while(!IRIN);
C51 COMPILER V9.54   NECDECODER                                                            01/31/2017 11:13:06 PAGE 4   

 179   1              
 180   1              // 校验是否为错码
 181   1              if(GETCODE[2] != ~GETCODE[3])
 182   1              {
 183   2                      DECODE_OK = FALSE;
 184   2                      EX0 = 1;
 185   2                      return;
 186   2              }
 187   1              
 188   1              DECODE_OK = TRUE;
 189   1              // 重开中断，等待下一次接收数据
 190   1              EX0 = 1;
 191   1      }
 192          
 193          /****************************************
 194          *@描述: 微秒延时函数,
 195          *       此函数精确计算：time=16.28+10.85*t (us)
 196          *@参数: unsigned int
 197          *@返回: void
 198          ****************************************/
 199          void delay(uint t)
 200          {
 201   1              uint i;
 202   1              for(i = 0; i < t; i++);
 203   1      }


MODULE INFORMATION:   STATIC OVERLAYABLE
   CODE SIZE        =    302    ----
   CONSTANT SIZE    =     16    ----
   XDATA SIZE       =   ----    ----
   PDATA SIZE       =   ----    ----
   DATA SIZE        =     21    ----
   IDATA SIZE       =   ----    ----
   BIT SIZE         =   ----    ----
END OF MODULE INFORMATION.


C51 COMPILATION COMPLETE.  0 WARNING(S),  0 ERROR(S)
