C51 COMPILER V9.54   NECDECODER2                                                           01/31/2017 20:04:47 PAGE 1   


C51 COMPILER V9.54, COMPILATION OF MODULE NECDECODER2
OBJECT MODULE PLACED IN .\Objects\NECDecoder2.obj
COMPILER INVOKED BY: C:\Keil_v5\C51\BIN\C51.EXE NECDecoder2.c OPTIMIZE(0,SPEED) REGFILE(.\Objects\NECDecoder.ORC) BROWSE
                    - DEBUG OBJECTEXTEND PRINT(.\Listings\NECDecoder2.lst) OBJECT(.\Objects\NECDecoder2.obj)

line level    source

   1          /****************************************
   2          *@文件: NEC.c
   3          *@作者: Scriptfan <scriptfan@hotmail.com>
   4          *@日期: 2017-01-25
   5          *@描述: 采用NEC协议的红外接收器
   6          *@接线: P1口控制7段数码管的段显示
   7          *       P2.0-P2.3控制数码管的位选择
   8          *       P3.2用于红外信号传输
   9          ****************************************/
  10          
  11          #include <REGX52.H>
  12          //#include <intrins.h>
  13          
  14          // 宏定义
  15          typedef unsigned char uchar;
  16          typedef unsigned int uint;
  17          typedef unsigned long ulong;
  18          
  19          // 七段数码管
  20          #define SEG P1
  21          #define POS P2
  22          #define TRUE 1
  23          #define FALSE 0
  24          #define TIME 100
  25          
  26          // 红外接收头数据线
  27          sbit IRIN = P3^2;
  28          sbit LED = P3^0;
  29          uchar DECODE_OK = FALSE;
  30          
  31          // 接收到的数据
  32          uchar addr1 = 0, addr2 = 0, dat1 = 0, dat2 = 0;
  33          
  34          // 全局变量
  35          // LED显示字模 0-F 共阳模式
  36          uchar code table[]= {
  37                  0xC0,0xF9,0xA4,0xB0,
  38                  0x99,0x92,0x82,0xF8,
  39                  0x80,0x90,0x88,0x83,
  40                  0xC6,0xA1,0x86,0x8E
  41          };
  42          // 函数声明
  43          void delay(uint);
  44          void display(uchar, uchar, uchar, uchar);
  45          uchar getcode(void);
  46          
  47          /****************************************
  48          *@描述: 主函数
  49          ****************************************/
  50          void main(void)
  51          {
  52   1              uchar c1 = 0, c2 = 0, c3 = 0, c4 = 0;
  53   1              
  54   1              uchar i = 0;
C51 COMPILER V9.54   NECDECODER2                                                           01/31/2017 20:04:47 PAGE 2   

  55   1              // 初始化外部中断0
  56   1              EX0 = 1;
  57   1              // 负边沿触发
  58   1              TCON = 0x01;
  59   1              // 打开中断开关
  60   1              EA = 1;
  61   1              // 
  62   1              IRIN = 1;
  63   1                      
  64   1              while(1)
  65   1              {
  66   2                      if(DECODE_OK == TRUE)
  67   2                      {
  68   3                              
  69   3                              //c1 = dat1 / 10;
  70   3                              //c2 = dat1 % 10;
  71   3                              c1 = (dat1 >> 4) & 0x0F;
  72   3                              c2 = dat1 & 0x0F;
  73   3                              
  74   3                              c3 = (addr1 >> 4) & 0x0F;
  75   3                              c4 = addr1 & 0x0F;
  76   3                      }
  77   2      
  78   2                      display(c1, c2, c3, c4);
  79   2              }
  80   1      }
  81          
  82          /****************************************
  83          *@描述: 7段数码管字符显示
  84          *@返回: void
  85          ****************************************/
  86          void display(uchar d1, uchar d2, uchar d3, uchar d4)
  87          {
  88   1              // 显示低位
  89   1              POS = 0xFB;
  90   1              SEG = table[d1];
  91   1              delay(TIME);
  92   1              
  93   1              // 显示高位
  94   1              POS = 0xF7;
  95   1              SEG = table[d2];
  96   1              delay(TIME);
  97   1              
  98   1              // 地址位
  99   1              POS = 0xFE;
 100   1              SEG = table[d3];
 101   1              delay(TIME);
 102   1              
 103   1              // 地址位
 104   1              POS = 0xFD;
 105   1              SEG = table[d4];
 106   1              delay(TIME);
 107   1      }
 108          
 109          /****************************************
 110          *@描述: 外部中断0中断函数
 111          *@返回: void
 112          ****************************************/
 113          void int0() interrupt 0 using 1
 114          {
 115   1              uchar d1 = 0, d2 = 0, d3 = 0, d4 = 0;
 116   1              // 关闭中断
C51 COMPILER V9.54   NECDECODER2                                                           01/31/2017 20:04:47 PAGE 3   

 117   1              EA = 0;
 118   1              
 119   1              POS = 0xFF;
 120   1              
 121   1              //DECODE_OK = FALSE;
 122   1              
 123   1              // 延时3ms
 124   1              delay(275);
 125   1              //LED = 0;
 126   1              // 不是有效的信号，丢弃
 127   1              if(IRIN == 1)
 128   1              {
 129   2                      EA = 1;
 130   2                      //DECODE_OK = FALSE;
 131   2                      return;
 132   2              }
 133   1              
 134   1              // 跳过9ms的引导码
 135   1              while(!IRIN);
 136   1              // 跳过4.5ms的起始码, 延时4.55ms
 137   1              while(IRIN);
 138   1      //      delay(418);
 139   1      //      // 不是有效的信号，丢弃
 140   1      //      if(IRIN == 1)
 141   1      //      {
 142   1      //              EX0 = 1;
 143   1      //              return;
 144   1      //      }
 145   1      //      LED = 0;
 146   1              
 147   1              // 接收4组数据
 148   1              d1 = getcode();
 149   1              d2 = getcode();
 150   1              d3 = getcode();
 151   1              d4 = getcode(); 
 152   1              
 153   1              // 2.5ms结束码
 154   1              //delay(228);
 155   1              while(!IRIN);
 156   1              
 157   1              // 校验是否为错码
 158   1              if(d3 != ~d4)
 159   1              {
 160   2                      DECODE_OK = FALSE;
 161   2                      EA = 1;
 162   2                      return;
 163   2              }
 164   1              
 165   1              addr1 = d1;
 166   1              addr2 = d2;
 167   1              dat1 = d3;
 168   1              dat2 = d4;
 169   1              
 170   1              DECODE_OK = TRUE;
 171   1              // 重开中断，等待下一次接收数据
 172   1              EA = 1;
 173   1      }
 174          
 175          /****************************************
 176          *@描述: 获得每组8位数据
 177          *@参数: void
 178          *@返回: unsigned char
C51 COMPILER V9.54   NECDECODER2                                                           01/31/2017 20:04:47 PAGE 4   

 179          ****************************************/
 180          uchar getcode(void)
 181          {
 182   1              uchar i, temp = 0;
 183   1              // 每组数据的8位
 184   1              for(i = 0; i < 8; i++)
 185   1              {
 186   2                      temp >>= 1;
 187   2                      
 188   2                      // 等待低电平
 189   2                      while(!IRIN);
 190   2                      // 延时800微秒，判断是0还是1
 191   2                      // 为0高电平维持0.565毫秒
 192   2                      // 为1高电平维持1.685毫秒
 193   2                      // 跳过800微秒，要么还是高电平，要么已经是下一个位的低电平了
 194   2                      delay(73);
 195   2                      
 196   2                      temp &= 0x7F;
 197   2                      if(IRIN)
 198   2                      {
 199   3                              // 低位在前，高位在后
 200   3                              temp |= 0x80;
 201   3                              // 等待跳变为低电平
 202   3                              while(IRIN);
 203   3                      }
 204   2              }
 205   1              return temp;
 206   1      }
 207          
 208          /****************************************
 209          *@描述: 微秒延时函数,
 210          *       此函数精确计算：time=16.28+10.85*t (us)
 211          *@参数: unsigned int
 212          *@返回: void
 213          ****************************************/
 214          void delay(uint t)
 215          {
 216   1              uint i;
 217   1              for(i = 0; i < t; i++);
 218   1      }


MODULE INFORMATION:   STATIC OVERLAYABLE
   CODE SIZE        =    362    ----
   CONSTANT SIZE    =     16    ----
   XDATA SIZE       =   ----    ----
   PDATA SIZE       =   ----    ----
   DATA SIZE        =     24    ----
   IDATA SIZE       =   ----    ----
   BIT SIZE         =   ----    ----
END OF MODULE INFORMATION.


C51 COMPILATION COMPLETE.  0 WARNING(S),  0 ERROR(S)
