BL51 BANKED LINKER/LOCATER V6.22                                                        01/31/2017  20:06:14  PAGE 1


BL51 BANKED LINKER/LOCATER V6.22, INVOKED BY:
C:\KEIL_V5\C51\BIN\BL51.EXE .\Objects\STARTUP.obj, .\Objects\NECDecoder2.obj TO .\Objects\NECDecoder REGFILE (.\Objects\
>> NECDecoder.ORC) PRINT (.\Listings\NECDecoder.m51)


MEMORY MODEL: SMALL


INPUT MODULES INCLUDED:
  .\Objects\STARTUP.obj (?C_STARTUP)
  .\Objects\NECDecoder2.obj (NECDECODER2)
  C:\KEIL_V5\C51\LIB\C51S.LIB (?C_INIT)


LINK MAP OF MODULE:  .\Objects\NECDecoder (?C_STARTUP)


            TYPE    BASE      LENGTH    RELOCATION   SEGMENT NAME
            -----------------------------------------------------

            * * * * * * *   D A T A   M E M O R Y   * * * * * * *
            REG     0000H     0008H     ABSOLUTE     "REG BANK 0"
            REG     0008H     0008H     ABSOLUTE     "REG BANK 1"
            DATA    0010H     0005H     UNIT         ?DT?MAIN?NECDECODER2
            DATA    0015H     0005H     UNIT         ?DT?NECDECODER2
            DATA    001AH     0004H     UNIT         ?DT?_DISPLAY?NECDECODER2
            DATA    001EH     0004H     UNIT         ?DT?INT0?NECDECODER2
            DATA    0022H     0004H     UNIT         ?DT?_DELAY?NECDECODER2
            DATA    0026H     0002H     UNIT         ?DT?GETCODE?NECDECODER2
            IDATA   0028H     0001H     UNIT         ?STACK

            * * * * * * *   C O D E   M E M O R Y   * * * * * * *
            CODE    0000H     0003H     ABSOLUTE     
            CODE    0003H     0003H     ABSOLUTE     
            CODE    0006H     008CH     UNIT         ?C_C51STARTUP
            CODE    0092H     0075H     UNIT         ?PR?INT0?NECDECODER2
            CODE    0107H     0057H     UNIT         ?PR?_DISPLAY?NECDECODER2
            CODE    015EH     004EH     UNIT         ?PR?MAIN?NECDECODER2
            CODE    01ACH     0030H     UNIT         ?PR?GETCODE?NECDECODER2
            CODE    01DCH     0020H     UNIT         ?PR?_DELAY?NECDECODER2
            CODE    01FCH     0010H     UNIT         ?C_INITSEG
            CODE    020CH     0010H     UNIT         ?CO?NECDECODER2



OVERLAY MAP OF MODULE:   .\Objects\NECDecoder (?C_STARTUP)


SEGMENT
  +--> CALLED SEGMENT
---------------------
?C_C51STARTUP
  +--> ?PR?MAIN?NECDECODER2
  +--> ?C_INITSEG

?PR?MAIN?NECDECODER2
  +--> ?PR?_DISPLAY?NECDECODER2

BL51 BANKED LINKER/LOCATER V6.22                                                      01/31/2017  20:06:14  PAGE 2


?PR?_DISPLAY?NECDECODER2
  +--> ?CO?NECDECODER2
  +--> ?PR?_DELAY?NECDECODER2

*** NEW ROOT ***************************************************

?PR?INT0?NECDECODER2
  +--> ?PR?_DELAY?NECDECODER2
  +--> ?PR?GETCODE?NECDECODER2

?PR?GETCODE?NECDECODER2
  +--> ?PR?_DELAY?NECDECODER2



SYMBOL TABLE OF MODULE:  .\Objects\NECDecoder (?C_STARTUP)

  VALUE           TYPE          NAME
  ----------------------------------

  -------         MODULE        ?C_STARTUP
  C:0006H         SEGMENT       ?C_C51STARTUP
  I:0028H         SEGMENT       ?STACK
  C:0000H         PUBLIC        ?C_STARTUP
  D:00E0H         SYMBOL        ACC
  D:00F0H         SYMBOL        B
  D:0083H         SYMBOL        DPH
  D:0082H         SYMBOL        DPL
  N:0000H         SYMBOL        IBPSTACK
  N:0100H         SYMBOL        IBPSTACKTOP
  N:0080H         SYMBOL        IDATALEN
  C:0009H         SYMBOL        IDATALOOP
  N:0000H         SYMBOL        PBPSTACK
  N:0100H         SYMBOL        PBPSTACKTOP
  N:0000H         SYMBOL        PDATALEN
  N:0000H         SYMBOL        PDATASTART
  N:0000H         SYMBOL        PPAGE
  N:0000H         SYMBOL        PPAGEENABLE
  D:00A0H         SYMBOL        PPAGE_SFR
  D:0081H         SYMBOL        SP
  C:0006H         SYMBOL        STARTUP1
  N:0000H         SYMBOL        XBPSTACK
  N:0000H         SYMBOL        XBPSTACKTOP
  N:0000H         SYMBOL        XDATALEN
  N:0000H         SYMBOL        XDATASTART
  C:0000H         LINE#         126
  C:0006H         LINE#         133
  C:0008H         LINE#         134
  C:0009H         LINE#         135
  C:000AH         LINE#         136
  C:000CH         LINE#         185
  C:000FH         LINE#         196
  -------         ENDMOD        ?C_STARTUP

  -------         MODULE        NECDECODER2
  C:0000H         SYMBOL        _ICE_DUMMY_
  D:0090H         PUBLIC        P1
BL51 BANKED LINKER/LOCATER V6.22                                                      01/31/2017  20:06:14  PAGE 3


  D:00A0H         PUBLIC        P2
  D:00B0H         PUBLIC        P3
  B:00A8H.7       PUBLIC        EA
  C:020CH         PUBLIC        table
  C:01DCH         PUBLIC        _delay
  D:0015H         PUBLIC        DECODE_OK
  C:015EH         PUBLIC        main
  B:00B0H.2       PUBLIC        IRIN
  D:0088H         PUBLIC        TCON
  B:00A8H.0       PUBLIC        EX0
  D:0016H         PUBLIC        addr1
  D:0017H         PUBLIC        addr2
  C:01ACH         PUBLIC        getcode
  D:0018H         PUBLIC        dat1
  D:0019H         PUBLIC        dat2
  C:0107H         PUBLIC        _display
  C:0092H         PUBLIC        int0
  -------         PROC          MAIN
  -------         DO            
  D:0010H         SYMBOL        c1
  D:0011H         SYMBOL        c2
  D:0012H         SYMBOL        c3
  D:0013H         SYMBOL        c4
  D:0014H         SYMBOL        i
  -------         ENDDO         
  C:015EH         LINE#         50
  C:015EH         LINE#         51
  C:015EH         LINE#         52
  C:016AH         LINE#         54
  C:016DH         LINE#         56
  C:016FH         LINE#         58
  C:0172H         LINE#         60
  C:0174H         LINE#         62
  C:0176H         LINE#         64
  C:0176H         LINE#         65
  C:0176H         LINE#         66
  C:017BH         LINE#         67
  C:017BH         LINE#         71
  C:0186H         LINE#         72
  C:018CH         LINE#         74
  C:0197H         LINE#         75
  C:019DH         LINE#         76
  C:019DH         LINE#         78
  C:01A9H         LINE#         79
  C:01ABH         LINE#         80
  -------         ENDPROC       MAIN
  -------         PROC          _DISPLAY
  D:001AH         SYMBOL        d1
  D:001BH         SYMBOL        d2
  D:001CH         SYMBOL        d3
  D:001DH         SYMBOL        d4
  C:0107H         LINE#         86
  C:010DH         LINE#         87
  C:010DH         LINE#         89
  C:0110H         LINE#         90
  C:011AH         LINE#         91
  C:0121H         LINE#         94
BL51 BANKED LINKER/LOCATER V6.22                                                      01/31/2017  20:06:14  PAGE 4


  C:0124H         LINE#         95
  C:012EH         LINE#         96
  C:0135H         LINE#         99
  C:0138H         LINE#         100
  C:0142H         LINE#         101
  C:0149H         LINE#         104
  C:014CH         LINE#         105
  C:0156H         LINE#         106
  C:015DH         LINE#         107
  -------         ENDPROC       _DISPLAY
  -------         PROC          INT0
  -------         DO            
  D:001EH         SYMBOL        d1
  D:001FH         SYMBOL        d2
  D:0020H         SYMBOL        d3
  D:0021H         SYMBOL        d4
  -------         ENDDO         
  C:0092H         LINE#         113
  C:009FH         LINE#         115
  C:00ABH         LINE#         117
  C:00ADH         LINE#         119
  C:00B0H         LINE#         124
  C:00B7H         LINE#         127
  C:00BAH         LINE#         128
  C:00BAH         LINE#         129
  C:00BEH         LINE#         132
  C:00BEH         LINE#         135
  C:00C1H         LINE#         137
  C:00C4H         LINE#         148
  C:00C9H         LINE#         149
  C:00CEH         LINE#         150
  C:00D3H         LINE#         151
  C:00D8H         LINE#         155
  C:00DBH         LINE#         158
  C:00E4H         LINE#         159
  C:00E4H         LINE#         160
  C:00E7H         LINE#         161
  C:00EBH         LINE#         163
  C:00EBH         LINE#         165
  C:00EEH         LINE#         166
  C:00F1H         LINE#         167
  C:00F4H         LINE#         168
  C:00F7H         LINE#         170
  C:00FAH         LINE#         172
  C:00FCH         LINE#         173
  -------         ENDPROC       INT0
  -------         PROC          GETCODE
  -------         DO            
  D:0026H         SYMBOL        i
  D:0027H         SYMBOL        temp
  -------         ENDDO         
  C:01ACH         LINE#         180
  C:01ACH         LINE#         181
  C:01ACH         LINE#         182
  C:01AFH         LINE#         184
  C:01B9H         LINE#         185
  C:01B9H         LINE#         186
BL51 BANKED LINKER/LOCATER V6.22                                                      01/31/2017  20:06:14  PAGE 5


  C:01BFH         LINE#         189
  C:01C2H         LINE#         194
  C:01C9H         LINE#         196
  C:01CCH         LINE#         197
  C:01CFH         LINE#         198
  C:01CFH         LINE#         200
  C:01D2H         LINE#         202
  C:01D5H         LINE#         203
  C:01D5H         LINE#         204
  C:01D9H         LINE#         205
  C:01DBH         LINE#         206
  -------         ENDPROC       GETCODE
  -------         PROC          _DELAY
  D:0022H         SYMBOL        t
  -------         DO            
  D:0024H         SYMBOL        i
  -------         ENDDO         
  C:01DCH         LINE#         214
  C:01E0H         LINE#         215
  C:01E0H         LINE#         217
  C:01FBH         LINE#         218
  -------         ENDPROC       _DELAY
  -------         ENDMOD        NECDECODER2



FUNCTION REGISTER MASKS


FUNCTION . . . . . REG MASK
---------------------------

_DELAY . . . . . . @0xf000

Program Size: data=41.0 xdata=0 code=540
LINK/LOCATE RUN COMPLETE.  0 WARNING(S),  0 ERROR(S)
