:03000000020016E5
:0C001600787FE4F6D8FD75810A02005DD9
:1000ED00C0F9A4B0999282F880908883C6A1868EBB
:07000600010A00020800726C
:1000A200D2AFC288D2A8C28AD2AAE4F50AE50A90DF
:1000B20000ED93F5907FE87E031200C9050AE50A78
:0700C200C3941040E880E345
:0300030002000EEA
:03000E00C2A0325B
:030013000200FDEB
:0300FD00D2A0325C
:1000C900AC08AD091200DBEF1FAC0670011E4C70C5
:0200D900F6220D
:100022000200A2E493A3F8E493A34003F68001F252
:1000320008DFF48029E493A3F85407240CC8C333DF
:10004200C4540F4420C8834004F456800146F6DFAE
:10005200E4800B0102040810204080900006E47E38
:10006200019360BCA3FF543F30E509541FFEE493A3
:10007200A360010ECF54C025E060A840B8E493A36A
:10008200FAE493A3F8E493A3C8C582C8CAC583CA95
:10009200F0A3C8C582C8CAC583CADFE9DEE780BE4D
:01000D0000F2
:1000DB00EF8DF0A4A8F0CF8CF0A428CE8DF0A42E39
:0200EB00FE22F3
:00000001FF
