:0300000002000EED
:0C000E00787FE4F6D8FD75810B020055E8
:0C01A800010A00010B050109000108001C
:10018C00758CDB758AFF758901D2A9D2AFD28CD25E
:0C019C0082D283D284D28512010480FB41
:03000B0002009A56
:10009A00C0E0C0D0758CDB758AFF05090508E50943
:1000AA00B40A03750900E508B46407C28775080035
:1000BA008002D287E509C3950B502FE50A24FE601A
:1000CA00101460131460192403701BD280C281803B
:1000DA0019D280C2818004C280D281750A00800A46
:1000EA00C280D2818004C280C281E509C3950B40D7
:0A00FA0004C280C281D0D0D0E032F1
:1001040020821C120169208216050BE50BD3940989
:100114004003750B09C2863082FDD286750A012020
:10012400831012016920830AC2863083FDD286754A
:100134000A0220841012016920840AC2863084FDD8
:10014400D286750A0320851C120169208516150BB9
:10015400E50BC394015003750B01C2863085FDD2B3
:0501640086750A04226B
:040169007F2D7E0068
:10016D00EF1FAA0670011E4A60147C007D64D3ED5A
:0E017D009400EC940040E9ED1D70F31C80F03E
:01018B002251
:10001A0002018CE493A3F8E493A34003F68001F26F
:10002A0008DFF48029E493A3F85407240CC8C333E7
:10003A00C4540F4420C8834004F456800146F6DFB6
:10004A00E4800B01020408102040809001A8E47E9D
:10005A00019360BCA3FF543F30E509541FFEE493AB
:10006A00A360010ECF54C025E060A840B8E493A372
:10007A00FAE493A3F8E493A3C8C582C8CAC583CA9D
:10008A00F0A3C8C582C8CAC583CADFE9DEE780BE55
:0101B400004A
:00000001FF
