C51 COMPILER V9.54   NEC                                                                   01/25/2017 22:27:25 PAGE 1   


C51 COMPILER V9.54, COMPILATION OF MODULE NEC
OBJECT MODULE PLACED IN .\Objects\NEC.obj
COMPILER INVOKED BY: C:\Keil_v5\C51\BIN\C51.EXE NEC.c OPTIMIZE(8,SPEED) BROWSE DEBUG OBJECTEXTEND PRINT(.\Listings\NEC.l
                    -st) OBJECT(.\Objects\NEC.obj)

line level    source

   1          /****************************************
   2          *@文件: NEC.c
   3          *@作者: Scriptfan <scriptfan@hotmail.com>
   4          *@日期: 2017-01-25
   5          *@描述: 采用NEC协议的红外接收器
   6          *@接线: P0口控制7段数码管的段显示
   7          *       P2.0-P2.3控制数码管的位选择
   8          *       P3.2用于红外信号传输
   9          *       开串口，将收到的内容从串口发送出去
  10          ****************************************/
  11          
  12          #include <REGX52.H>
  13          
  14          // 宏定义
  15          typedef unsigned char uchar;
  16          typedef unsigned int uint;
  17          typedef unsigned long ulong;
  18          // 只用到4位七段数码管的第一位
  19          //#define SEG 0xFE;
  20          
  21          // 红外接收头数据线
  22          sbit IRIN = P3^2;
  23          // 接收到的数据
  24          uchar GETCODE[4] = {0x00, 0x00, 0x00, 0x00};
  25          
  26          // 全局变量
  27          // LED显示字模 0-F 共阳模式
  28          uchar code table[]= {
  29                  0xC0,0xF9,0xA4,0xB0,
  30                  0x99,0x92,0x82,0xF8,
  31                  0x80,0x90,0x88,0x83,
  32                  0xC6,0xA1,0x86,0x8E
  33          };
  34          // 函数声明
  35          void delay(uint);
  36          void display(void);
  37          
  38          /****************************************
  39          *@描述: 主函数
  40          ****************************************/
  41          void main(void)
  42          {
  43   1      //      // 定时器1工作于8位自动重载模式, 用于产生波特率
  44   1      //      TMOD = 0x20;
  45   1      //      // 波特率9600
  46   1      //      TH1 = TL1 = 0xFD;
  47   1      //      // 设定串行口工作方式
  48   1      //      SCON = 0x50;
  49   1      //      // 波特率不倍增
  50   1      //      PCON &= 0xEF;
  51   1      //      // 启动定时器1
  52   1      //      TR1 = 1;
  53   1              
  54   1              // 初始化外部中断0
C51 COMPILER V9.54   NEC                                                                   01/25/2017 22:27:25 PAGE 2   

  55   1              EX0 = 1;
  56   1              // 负边沿触发
  57   1              TCON = 0x01;
  58   1              // 打开中断开关
  59   1              EA = 1;
  60   1              // 
  61   1              IRIN = 1;
  62   1              while(1)
  63   1              {
  64   2                      display();
  65   2              }
  66   1      }
  67          
  68          /****************************************
  69          *@描述: 7段数码管字符显示
  70          *@返回: void
  71          ****************************************/
  72          void display(void)
  73          {
  74   1              uchar k1, k2, k3, k4, n;
  75   1              
  76   1              // 显示的时候禁止中断
  77   1              EA = 0;
  78   1              
  79   1              k1 = (GETCODE[2] >> 4) & 0x0F;
  80   1              k2 = GETCODE[2] & 0x0F;
  81   1              k3 = (GETCODE[1] >> 4) & 0x0F;
  82   1              k4 = GETCODE[1] & 0x0F;
  83   1              
  84   1              // 显示高位
  85   1              for(n = 0; n < 10; n++)
  86   1              {
  87   2                      P2 = 0xFD;
  88   2                      P0 = table[k1];
  89   2              }
  90   1              
  91   1              // 显示低位
  92   1              for(n = 0; n < 10; n++)
  93   1              {
  94   2                      P2 = 0xFE;
  95   2                      P0 = table[k2];
  96   2              }
  97   1              
  98   1              // 地址位
  99   1              for(n = 0; n < 10; n++)
 100   1              {
 101   2                      P2 = 0xFB;
 102   2                      P0 = table[k3];
 103   2              }
 104   1              
 105   1              // 地址位
 106   1              for(n = 0; n < 10; n++)
 107   1              {
 108   2                      P2 = 0xF7;
 109   2                      P0 = table[k4];
 110   2              }
 111   1              
 112   1              // 显示完毕打开中断
 113   1              EA = 1;
 114   1      }
 115          
 116          /****************************************
C51 COMPILER V9.54   NEC                                                                   01/25/2017 22:27:25 PAGE 3   

 117          *@描述: 外部中断0中断函数
 118          *@返回: void
 119          ****************************************/
 120          void int0() interrupt 0 using 1
 121          {
 122   1              uchar n, i;
 123   1              // 关闭中断，防止重复触发
 124   1              EX0 = 0;
 125   1              // 延时3ms
 126   1              delay(490);
 127   1              // 不是有效的信号，丢弃
 128   1              if(IRIN == 1)
 129   1              {
 130   2                      EX0 = 1;
 131   2                      return;
 132   2              }
 133   1              
 134   1              // 跳过9ms的引导码
 135   1              while(!IRIN);
 136   1              // 跳过4.5ms的起始码, 延时3ms
 137   1              delay(490);
 138   1              // while(IRIN);
 139   1                      
 140   1              // 接收4组数据
 141   1              for(n = 0; n < 4; n++)
 142   1              {
 143   2                      // 每组数据的8位
 144   2                      for(i = 0; i < 8; i++)
 145   2                      {
 146   3                              // 等待低电平
 147   3                              while(!IRIN);
 148   3                              // 延时500微秒，判断是0还是1
 149   3                              // 为0高电平维持0.565毫秒
 150   3                              // 为1高电平维持1.685毫秒
 151   3                              // 跳过500微秒，要么还是高电平，要么已经是下一个位的低电平了
 152   3                              delay(90);
 153   3                              if(IRIN == 0)
 154   3                              {
 155   4                                      // 什么也不做
 156   4                              }
 157   3                              else
 158   3                              {
 159   4                                      // 低位在前，高位在后
 160   4                                      GETCODE[n] = GETCODE[n] | (0x01 << i);
 161   4                                      // 等待跳变为低电平
 162   4                                      while(IRIN);
 163   4                              }
 164   3                      }
 165   2              }
 166   1              
 167   1              // 校验是否为错码
 168   1              if(GETCODE[2] != ~GETCODE[3])
 169   1              {
 170   2                      GETCODE[0] = GETCODE[1] = GETCODE[2] = GETCODE[3] = 0;
 171   2                      EX0 = 1;
 172   2                      return;
 173   2              }
 174   1              
 175   1              // 通过串口发送收到的内容
 176   1      //      for(n = 0; n < 4; n++)
 177   1      //      {
 178   1      //              SBUF = GETCODE[n];
C51 COMPILER V9.54   NEC                                                                   01/25/2017 22:27:25 PAGE 4   

 179   1      //              while(!TI);
 180   1      //              TI = 0;
 181   1      //      }
 182   1              
 183   1              // 重开中断，等待下一次接收数据
 184   1              EX0 = 1;
 185   1      }
 186          
 187          /****************************************
 188          *@描述: 微秒延时函数,
 189          *       此函数精确计算：18+6*(t-1)=延时时间(us)
 190          *@参数: unsigned int
 191          *@返回: void
 192          ****************************************/
 193          void delay(uint t)
 194          {
 195   1              while(--t);
 196   1      }


MODULE INFORMATION:   STATIC OVERLAYABLE
   CODE SIZE        =    252    ----
   CONSTANT SIZE    =     16    ----
   XDATA SIZE       =   ----    ----
   PDATA SIZE       =   ----    ----
   DATA SIZE        =      4       2
   IDATA SIZE       =   ----    ----
   BIT SIZE         =   ----    ----
END OF MODULE INFORMATION.


C51 COMPILATION COMPLETE.  0 WARNING(S),  0 ERROR(S)
