C51 COMPILER V9.54   TEST                                                                  01/25/2017 22:06:08 PAGE 1   


C51 COMPILER V9.54, COMPILATION OF MODULE TEST
OBJECT MODULE PLACED IN .\Objects\Test.obj
COMPILER INVOKED BY: C:\Keil_v5\C51\BIN\C51.EXE Test.c OPTIMIZE(8,SPEED) BROWSE DEBUG OBJECTEXTEND PRINT(.\Listings\Test
                    -.lst) OBJECT(.\Objects\Test.obj)

line level    source

   1          #include <REGX52.H>
   2          
   3          // 函数原型  
   4          void SystemInit(void);  
   5          void Delay_840us(void);  
   6          void Delay_2400us(void);  
   7          void LedDisp();  
   8          unsigned char GetCode(void);//获得码  
   9          void  delay(unsigned char loop);  
  10            
  11          // 位变量  
  12          sbit IRIN = P3^2;
  13          sbit BEEP = P1^6;
  14          sbit swch = P1^7;
  15            
  16          // 变量  
  17          unsigned char KeyValue;     //机器码  
  18          unsigned char MaValue;      //键值码；  
  19          unsigned char disbuf[4];    //数码管显示缓冲  
  20          unsigned char scan[4]={0xFE,0xFD,0xFB,0x07}; //p2位选择
  21          
  22          unsigned char code table[16] = {
  23                  0xC0,0xF9,0xA4,0xB0,
  24                  0x99,0x92,0x82,0xF8,
  25                  0x80,0x90,0x88,0x83,
  26                  0xC6,0xA1,0x86,0x8E
  27          };  
  28            
  29          /** 
  30           * 延时 
  31           */  
  32          void delay(unsigned char loop)   
  33          {    
  34   1          unsigned char i;
  35   1          for(i=0;i<loop;i++);
  36   1          TR1=1;   
  37   1          while(!TF1);   
  38   1          TF1=0;
  39   1          TR1=0;
  40   1      }  
  41            
  42          /** 
  43           * 延时9ms  
  44           */  
  45          void Delay_9000us(void)  
  46          {  
  47   1          TL1 = 153.6;
  48   1          TH1 = 223.6;
  49   1          TR1 = 1;  
  50   1          while(!TF1);  
  51   1          TF1 = 0;  
  52   1          TR1 = 0;  
  53   1      }  
  54            
C51 COMPILER V9.54   TEST                                                                  01/25/2017 22:06:08 PAGE 2   

  55          /** 
  56           * 延时4.5ms  
  57           */  
  58          void Delay_4500us(void)  
  59          {  
  60   1          TH1 = 239.8;  
  61   1          TL1 = 204.8;  
  62   1          TR1 = 1;  
  63   1          while(!TF1);  
  64   1          TF1 = 0;  
  65   1          TR1 = 0;  
  66   1      }  
  67            
  68          /** 
  69           * 系统初始化  
  70           */  
  71          void SystemInit(void)  
  72          {  
  73   1          IRIN = 1;  
  74   1          IT0 = 1;         //INT0负跳变触发  
  75   1          TMOD = 0x10;     //定时器1工作在方式1  
  76   1          EA = 1;  
  77   1          EX0 = 1;  
  78   1      }  
  79            
  80          /** 
  81           * 读码  
  82           */  
  83          unsigned char GetCode()  
  84          {   
  85   1          unsigned char n;  
  86   1        
  87   1          static temp = 0;   
  88   1        
  89   1          for( n = 0; n < 8; n++ )   
  90   1          {  
  91   2              while(!IRIN);  // 等待高电平，开始解码  
  92   2        
  93   2              Delay_840us(); // 延时0.84ms  
  94   2        
  95   2              if(IRIN) // 若仍然为高电平，则为1，否则为0  
  96   2              {  
  97   3                 temp = (0x80|(temp>>1));  // 1    
  98   3                 while(IRIN); //等待跳变成低电平  
  99   3              }  
 100   2              else {   
 101   3                  temp=(0x00|(temp>>1));  // 0  
 102   3              }  
 103   2          }   
 104   1        
 105   1          return temp;  
 106   1      }  
 107            
 108          /** 
 109           * 数码管显示 
 110           */  
 111          void LedDisp()  
 112          {   
 113   1          unsigned char i, t;  
 114   1          for(i=0;i<4;i++)  
 115   1          {
 116   2                      for(t = 100; t > 0; t--)
C51 COMPILER V9.54   TEST                                                                  01/25/2017 22:06:08 PAGE 3   

 117   2                      {
 118   3                              P0=table[disbuf[i]];  
 119   3                              P2 = scan[i];
 120   3                              // delay(50);  
 121   3                              // P0=0x00;
 122   3                      }
 123   2          }  
 124   1      }  
 125            
 126          void main(void)  
 127          {   
 128   1          SystemInit();  
 129   1        
 130   1          while(1)   
 131   1          {    
 132   2              //以下是查表显示  
 133   2              disbuf[0]=(((KeyValue&0xf0)>>4)&0x0f);  
 134   2              disbuf[1]=KeyValue&0x0f;  
 135   2              disbuf[2]=(((MaValue&0xf0)>>4)&0x0f);  
 136   2              disbuf[3]=MaValue&0x0f;    
 137   2              LedDisp();
 138   2          }  
 139   1      }  
 140            
 141            
 142          void interr_ir(void) interrupt 0  
 143          {   
 144   1          /** 
 145   1           * 用户码和机器码  
 146   1           */  
 147   1          unsigned char addrl,addrh,num1,num2;   
 148   1        
 149   1          EA = 0;  //先关闭外部中断0  
 150   1        
 151   1          Delay_9000us(); // 检测9ms开始码  
 152   1        
 153   1          if (IRIN) {     // 检测是否为干扰信号  
 154   2              EA = 1;     // 重新开启外部中断0  
 155   2              return ;    // 退出解码  
 156   2          }  
 157   1                   
 158   1          while(!IRIN);   // 等待跳为高电平  
 159   1        
 160   1          Delay_4500us(); // 检测4.5ms结果码  
 161   1        
 162   1          if (IRIN) {     // 检测是否为干扰信号  
 163   2              EA = 1;     // 重新开启外部中断0  
 164   2              return ;    // 退出解码  
 165   2          }  
 166   1        
 167   1          // 读码  
 168   1          addrl=GetCode(); // 用户编码高位  
 169   1          addrh=GetCode(); // 用户编码低位  
 170   1          num1=GetCode();  // 机器码  
 171   1          num2=GetCode();  // 机器码反码  
 172   1        
 173   1          //校验是否为错码  
 174   1          if(num1!=~num2)  
 175   1          {   
 176   2              KeyValue=14;   
 177   2              EA=1;   
 178   2              return;  
C51 COMPILER V9.54   TEST                                                                  01/25/2017 22:06:08 PAGE 4   

 179   2          }  
 180   1        
 181   1          KeyValue=num2;  
 182   1          MaValue=addrh;    
 183   1        
 184   1          EA=1;  
 185   1      } 


MODULE INFORMATION:   STATIC OVERLAYABLE
   CODE SIZE        =    307    ----
   CONSTANT SIZE    =     16    ----
   XDATA SIZE       =   ----    ----
   PDATA SIZE       =   ----    ----
   DATA SIZE        =     12       4
   IDATA SIZE       =   ----    ----
   BIT SIZE         =   ----    ----
END OF MODULE INFORMATION.


C51 COMPILATION COMPLETE.  0 WARNING(S),  0 ERROR(S)
