:030000000200A754
:0C00A700787FE4F6D8FD7581200200EEA1
:02017100C100CB
:10015000D2B220B2FD7F847E0312016720B2F33059
:07016000B2FD12000380EB69
:10000300E4F508C290C200F509F50A120133050AA6
:10001300E50A70020509C3945AE509940140ECD23C
:1000230090D200E4F509F50A120133050AE50A70D6
:10003300020509C394ADE509940040ECE4F508C258
:1000430090C200E4F509F50A120133050AE50A70C6
:10005300020509C39419E509940040ECD290D2003B
:10006300E4F509F50A120133050AE50A70020509E8
:10007300C39440E509940040EC0508E508C39420C7
:1000830040BDC290C200E4F509F50A120133050A26
:10009300E50A70020509C39460E509940040ECD2B7
:0300A30090D200F8
:0100A6002237
:10013300300007E4FF0FBF0EFC22E4FF0FBF08FCF3
:0C014300D290E4FF0FBF04FCA2009290D9
:01014F00228D
:0A016700EF1F70011E144E70F72206
:1000B300020150E493A3F8E493A34003F68001F212
:1000C30008DFF48029E493A3F85407240CC8C3334E
:1000D300C4540F4420C8834004F456800146F6DF1D
:1000E300E4800B0102040810204080900171E47E3B
:1000F300019360BCA3FF543F30E509541FFEE49312
:10010300A360010ECF54C025E060A840B8E493A3D8
:10011300FAE493A3F8E493A3C8C582C8CAC583CA03
:10012300F0A3C8C582C8CAC583CADFE9DEE780BEBB
:01017300008B
:00000001FF
