:0300000002023ABF
:0C023A00787FE4F6D8FD75811102008089
:1001620048656C6C6F2C20576F726C6421004920BB
:100172004C696B65204D43552100C0F9A4B099929A
:0A01820082F880908883C6A1868E63
:10008000E4FFF50812021C7F071201D17BFF7A0101
:100090007962750D10750E647D0D12012A7F0612AE
:1000A00001D17BFF7A017970750D50750E647D0B5F
:1000B00012012A7D017F3912018C7F011201B112D8
:1000C00000038F907FE87E031201F5120246EF9045
:0700D000017C93F59080FE16
:0F021C007F381201D17F0F1201D17F010201D172
:0E022B0075A0FFC2B0D2B11201EFAFA0C2B2F7
:0102390022A2
:1001D1008F11120250C2B0C2B11201F18511A012E9
:0E01E10001F1D2B27F027E001201F5C2B222FD
:1001B100E4FEEF2480FF1201D112025075A0FFD29C
:0F01C100B0D2B11201F11201EFAEA0C2B2AF067F
:0101D000220C
:10018C008F10ED2480FF1201D1120250D2B0C2B1F7
:10019C001201F18510A01201F1D2B27F027E001281
:0501AC0001F5C2B222C2
:08012A008B098A0A890B8D0C78
:10013200E4F50FF50FE50FC3950C5023AF0E7E00CB
:100142001201F5AB09AA0AA90B850F827583001269
:0F01520000D7FFE50D250FFD12018C050F80D69C
:01016100227B
:10020A00E4FFFE12022BEF5480C41313135401F4BB
:01021A00FFE4
:01021B0022C0
:09024600E4FF12022BEF547FFFCC
:01024F00228C
:08025000E4FF12020AEF60FA5C
:010258002283
:10000300EF120104004D30005031005332005633DB
:10001300005934005C35005F3600623700653800F4
:100023006839006B41006E420071430074440077ED
:1000330045007A46006B61006E6200716300746470
:10004300007765007A660000007D7FC0227FF92279
:100053007FA4227FB0227F99227F92227F82227FF8
:10006300F8227F80227F90227F88227F83227FC68F
:0D007300227FA1227F86227F8E227FFF2226
:0601EF00D2B27F017E0088
:1001F5007D0AEF1FAA0670011E4A6008AC051DECBA
:0402050060F080F82D
:0102090022D2
:1000D700BB010CE58229F582E5833AF583E02250DE
:1000E70006E92582F8E622BBFE06E92582F8E22228
:0D00F700E58229F582E5833AF583E4932242
:10010400D083D082F8E4937012740193700DA3A38A
:1001140093F8740193F5828883E47374029368609E
:06012400EFA3A3A380DF9E
:00000001FF
