C51 COMPILER V9.54   PROGRAM                                                               12/22/2016 10:15:47 PAGE 1   


C51 COMPILER V9.54, COMPILATION OF MODULE PROGRAM
OBJECT MODULE PLACED IN .\Objects\Program.obj
COMPILER INVOKED BY: C:\Keil_v5\C51\BIN\C51.EXE Program.c OPTIMIZE(8,SPEED) BROWSE DEBUG OBJECTEXTEND PRINT(.\Listings\P
                    -rogram.lst) OBJECT(.\Objects\Program.obj)

line level    source

   1          // 功能：单片机模拟IIC协议通信
   2          // 平台：Proteus
   3          // 实现：单片机模拟IIC通信协议，操作EEPROM(AT24C02)存取数据
   4          
   5          // 引脚定义：
   6          // SDA: P2.0
   7          // SCL: P2.1
   8          
   9          #include <REGX52.H>
  10          //#include <STDLIB.H>
  11          #include "Common.h"
  12          #include "IIC.h"
  13          #include "Program.h"
  14          
  15          //#define WAIT_TIME 60
  16          
  17          sbit SDA = P2^0;
  18          sbit SCL = P2^1;
  19          
  20          
  21          void main(void)
  22          {
  23   1              uchar byte;
  24   1              uchar device, i;
  25   1              uchar *ss = "FEDCBA9876543210ABCDEFA9876543210A98765";
  26   1              uchar dd[39] = "                                       ";
  27   1              uchar *ptr = dd;
  28   1              
  29   1              P1 = 0xC0;
  30   1              
  31   1              // 设置要操作的设备号
  32   1              device = 0xA0;
  33   1              
  34   1              /********************
  35   1              *  字节存取操作测试  *
  36   1              *********************/
  37   1              // 循环写入字符
  38   1      //      for(i = 0; i < 10; i++)
  39   1      //      {
  40   1      //              write_byte(device, i, 48 + i);
  41   1      //      }
  42   1      //      for(i = 0; i < 6; i++)
  43   1      //      {
  44   1      //              write_byte(device, 10 + i, 65 + i);
  45   1      //      }
  46   1      //      
  47   1      //      // 读出写入的数据
  48   1      //      for(i = 0; i < 16; i++)
  49   1      //      {
  50   1      //              byte = read_byte(device, i);
  51   1      //              // 显示读出的内容
  52   1      //              P1 = asc2led(byte);
  53   1      //              
  54   1      //              delay(2);
C51 COMPILER V9.54   PROGRAM                                                               12/22/2016 10:15:47 PAGE 2   

  55   1      //      }
  56   1      
  57   1              /********************
  58   1              *  字串存取操作测试  *
  59   1              *********************/
  60   1              write_data(device, 0, ss, 39);
  61   1              
  62   1              // malloc在Keil下分配内存不成功！暂时没有找到解决办法
  63   1              //dd = (uchar *)malloc(16);
  64   1              read_data(device, 0, dd, 39);
  65   1              
  66   1              for(i = 0; i < 39; i++)
  67   1              {
  68   2                      //byte = read_byte(device, i);
  69   2                      //P1 = asc2led(byte);
  70   2                      // 显示读出的内容
  71   2                      P1 = asc2led(*ptr++);
  72   2                      
  73   2                      delay(2);
  74   2              }
  75   1              
  76   1              while(1);
  77   1      }
*** WARNING C280 IN LINE 23 OF Program.c: 'byte': unreferenced local variable
  78          
  79          // 向设备发送任意长数据
  80          // device：设备号，末尾必须为0
  81          // addr：数据地址
  82          // str：发送的数据
  83          // strlen：字符串长度，最大长度不能超过16个字符
  84          void write_data(uchar device, uchar addr, uchar *str, uint strlen)
  85          {
  86   1              uint num = 0, i = 0, j = 0;
  87   1              uchar *ptr = str;
  88   1              
  89   1              // 缓存大小是16个字符，数据太长必须截断
  90   1              num = strlen / 16 + 1;
  91   1              
  92   1              for(j = 0; j < num; j++)
  93   1              {
  94   2                      // 开始
  95   2                      iic_start();
  96   2                      // 连接设备
  97   2                      iic_write(device);
  98   2                      while(!iic_ack());
  99   2                      // 发送存储地址
 100   2                      iic_write(addr + (j * 16));
 101   2                      while(!iic_ack());
 102   2                      
 103   2                      for(i = 0; i < 16; i++)
 104   2                      {
 105   3                              // 判断字符是否全部输出完毕
 106   3                              if((j * 16 + i) < strlen)
 107   3                              {
 108   4                                      // 写数据
 109   4                                      iic_write(*ptr++);
 110   4                                      while(!iic_ack());
 111   4                              }
 112   3                      }
 113   2                      
 114   2                      // 结束
 115   2                      iic_stop();
C51 COMPILER V9.54   PROGRAM                                                               12/22/2016 10:15:47 PAGE 3   

 116   2              }
 117   1      }
 118          
 119          // 从设备读取任意长数据
 120          // device：设备号，末尾必须为0
 121          // addr：数据地址
 122          // str：接收到的数据
 123          // strlen：要获得的数据长度
 124          void read_data(uchar device, uchar addr, uchar *str, uint strlen)
 125          {
 126   1              uint i = 0;
 127   1              uchar *ptr = str;
 128   1                      
 129   1              // 开始
 130   1              iic_start();
 131   1              // 连接设备
 132   1              iic_write(device);
 133   1              while(!iic_ack());
 134   1              // 发送存储地址
 135   1              iic_write(addr);
 136   1              while(!iic_ack());
 137   1              
 138   1              // 发送读操作命令
 139   1              iic_start();
 140   1              iic_write((device | 1));
 141   1              while(!iic_ack());
 142   1              
 143   1              //for(i = 0; i < strlen; i++)
 144   1              while(strlen--)
 145   1              {
 146   2                      *ptr++ = iic_read();
 147   2      
 148   2                      iic_sendack(strlen);
 149   2              }
 150   1              
 151   1              // 结束
 152   1              iic_stop();
 153   1      }
 154          
 155          // 向设备发送数据
 156          // device：设备号，末尾必须为0
 157          // addr：数据地址
 158          // byte：发送的内容
 159          void write_byte(uchar device, uchar addr, uchar byte)
 160          {       
 161   1              // 开始
 162   1              iic_start();
 163   1              // 连接设备
 164   1              iic_write((device | 0));
 165   1              while(!iic_ack());
 166   1              // 发送存储地址
 167   1              iic_write(addr);
 168   1              while(!iic_ack());
 169   1              // 写数据
 170   1              iic_write(byte);
 171   1              while(!iic_ack());
 172   1              // 结束
 173   1              iic_stop();
 174   1      }
 175          
 176          // 从设备读取数据
 177          // device：设备号，末尾必须为0
C51 COMPILER V9.54   PROGRAM                                                               12/22/2016 10:15:47 PAGE 4   

 178          // addr：数据地址
 179          uchar read_byte(uchar device, uchar addr)
 180          {
 181   1              uchar byte = 0;
 182   1              
 183   1              // 开始
 184   1              iic_start();
 185   1              // 连接设备
 186   1              iic_write(device);
 187   1              while(!iic_ack());
 188   1              // 发送存储地址
 189   1              iic_write(addr);
 190   1              while(!iic_ack());
 191   1              
 192   1              // 发送读操作命令
 193   1              iic_start();
 194   1              iic_write((device | 1));
 195   1              while(!iic_ack());
 196   1              // 写数据
 197   1              byte = iic_read();
 198   1              iic_ack();
 199   1              // 结束
 200   1              iic_stop();
 201   1              
 202   1              return byte;
 203   1      }
 204          
 205          #include "Common.c"
 206          #include "IIC.c"


MODULE INFORMATION:   STATIC OVERLAYABLE
   CODE SIZE        =    891    ----
   CONSTANT SIZE    =     79    ----
   XDATA SIZE       =   ----    ----
   PDATA SIZE       =   ----    ----
   DATA SIZE        =   ----      83
   IDATA SIZE       =   ----    ----
   BIT SIZE         =   ----       3
END OF MODULE INFORMATION.


C51 COMPILATION COMPLETE.  1 WARNING(S),  0 ERROR(S)
