BL51 BANKED LINKER/LOCATER V6.22                                                        12/22/2016  10:15:47  PAGE 1


BL51 BANKED LINKER/LOCATER V6.22, INVOKED BY:
C:\KEIL_V5\C51\BIN\BL51.EXE .\Objects\STARTUP.obj, .\Objects\Program.obj TO .\Objects\Project PRINT (.\Listings\Project.
>> m51) RAMSIZE (256)


MEMORY MODEL: SMALL


INPUT MODULES INCLUDED:
  .\Objects\STARTUP.obj (?C_STARTUP)
  .\Objects\Program.obj (PROGRAM)
  C:\KEIL_V5\C51\LIB\C51S.LIB (?C?COPY)
  C:\KEIL_V5\C51\LIB\C51S.LIB (?C?CLDPTR)
  C:\KEIL_V5\C51\LIB\C51S.LIB (?C?CSTPTR)
  C:\KEIL_V5\C51\LIB\C51S.LIB (?C?CCASE)


LINK MAP OF MODULE:  .\Objects\Project (?C_STARTUP)


            TYPE    BASE      LENGTH    RELOCATION   SEGMENT NAME
            -----------------------------------------------------

            * * * * * * *   D A T A   M E M O R Y   * * * * * * *
            REG     0000H     0008H     ABSOLUTE     "REG BANK 0"
            DATA    0008H     0003H     UNIT         ?DT?_WRITE_BYTE?PROGRAM
            DATA    000BH     0003H     UNIT         ?DT?_READ_BYTE?PROGRAM
                    000EH     0012H                  *** GAP ***
            BIT     0020H.0   0000H.1   UNIT         _BIT_GROUP_
                    0020H.1   0000H.7                *** GAP ***
            DATA    0021H     0041H     UNIT         _DATA_GROUP_
            IDATA   0062H     0001H     UNIT         ?STACK

            * * * * * * *   C O D E   M E M O R Y   * * * * * * *
            CODE    0000H     0003H     ABSOLUTE     
            CODE    0003H     0147H     UNIT         ?C?LIB_CODE
            CODE    014AH     00BEH     UNIT         ?PR?_WRITE_DATA?PROGRAM
            CODE    0208H     007DH     UNIT         ?PR?MAIN?PROGRAM
            CODE    0285H     007DH     UNIT         ?PR?_ASC2LED?PROGRAM
            CODE    0302H     0068H     UNIT         ?PR?_READ_DATA?PROGRAM
            CODE    036AH     004FH     UNIT         ?CO?PROGRAM
            CODE    03B9H     003CH     UNIT         ?PR?_READ_BYTE?PROGRAM
            CODE    03F5H     002CH     UNIT         ?PR?IIC_READ?PROGRAM
            CODE    0421H     002CH     UNIT         ?PR?_IIC_WRITE?PROGRAM
            CODE    044DH     002AH     UNIT         ?PR?_WRITE_BYTE?PROGRAM
            CODE    0477H     0023H     UNIT         ?PR?IIC_SENDACK?PROGRAM
            CODE    049AH     001FH     UNIT         ?PR?IIC_ACK?PROGRAM
            CODE    04B9H     001BH     UNIT         ?PR?_DELAY?PROGRAM
            CODE    04D4H     0019H     UNIT         ?PR?IIC_STOP?PROGRAM
            CODE    04EDH     0017H     UNIT         ?PR?IIC_START?PROGRAM
            CODE    0504H     0010H     UNIT         ?PR?_WAIT?PROGRAM
            CODE    0514H     000CH     UNIT         ?C_C51STARTUP



OVERLAY MAP OF MODULE:   .\Objects\Project (?C_STARTUP)


BL51 BANKED LINKER/LOCATER V6.22                                                      12/22/2016  10:15:47  PAGE 2


SEGMENT                            BIT_GROUP          DATA_GROUP 
  +--> CALLED SEGMENT           START    LENGTH     START    LENGTH
-------------------------------------------------------------------
?C_C51STARTUP                   -----    -----      -----    -----
  +--> ?PR?MAIN?PROGRAM

?PR?MAIN?PROGRAM                -----    -----      0021H    0030H
  +--> ?CO?PROGRAM
  +--> ?PR?_WRITE_DATA?PROGRAM
  +--> ?PR?_READ_DATA?PROGRAM
  +--> ?PR?_ASC2LED?PROGRAM
  +--> ?PR?_DELAY?PROGRAM

?PR?_WRITE_DATA?PROGRAM         -----    -----      0051H    0010H
  +--> ?PR?IIC_START?PROGRAM
  +--> ?PR?_IIC_WRITE?PROGRAM
  +--> ?PR?IIC_ACK?PROGRAM
  +--> ?PR?IIC_STOP?PROGRAM

?PR?IIC_START?PROGRAM           -----    -----      -----    -----
  +--> ?PR?_WAIT?PROGRAM

?PR?_IIC_WRITE?PROGRAM          0020H.0  0000H.1    -----    -----
  +--> ?PR?_WAIT?PROGRAM

?PR?IIC_ACK?PROGRAM             0020H.0  0000H.1    0061H    0001H
  +--> ?PR?_WAIT?PROGRAM

?PR?IIC_STOP?PROGRAM            -----    -----      -----    -----
  +--> ?PR?_WAIT?PROGRAM

?PR?_READ_DATA?PROGRAM          -----    -----      0051H    000CH
  +--> ?PR?IIC_START?PROGRAM
  +--> ?PR?_IIC_WRITE?PROGRAM
  +--> ?PR?IIC_ACK?PROGRAM
  +--> ?PR?IIC_READ?PROGRAM
  +--> ?PR?IIC_SENDACK?PROGRAM
  +--> ?PR?IIC_STOP?PROGRAM

?PR?IIC_READ?PROGRAM            -----    -----      -----    -----
  +--> ?PR?_WAIT?PROGRAM

?PR?IIC_SENDACK?PROGRAM         0020H.0  0000H.1    -----    -----
  +--> ?PR?_WAIT?PROGRAM



SYMBOL TABLE OF MODULE:  .\Objects\Project (?C_STARTUP)

  VALUE           TYPE          NAME
  ----------------------------------

  -------         MODULE        ?C_STARTUP
  C:0514H         SEGMENT       ?C_C51STARTUP
  I:0062H         SEGMENT       ?STACK
  C:0000H         PUBLIC        ?C_STARTUP
  D:00E0H         SYMBOL        ACC
BL51 BANKED LINKER/LOCATER V6.22                                                      12/22/2016  10:15:47  PAGE 3


  D:00F0H         SYMBOL        B
  D:0083H         SYMBOL        DPH
  D:0082H         SYMBOL        DPL
  N:0000H         SYMBOL        IBPSTACK
  N:0100H         SYMBOL        IBPSTACKTOP
  N:0080H         SYMBOL        IDATALEN
  C:0517H         SYMBOL        IDATALOOP
  N:0000H         SYMBOL        PBPSTACK
  N:0100H         SYMBOL        PBPSTACKTOP
  N:0000H         SYMBOL        PDATALEN
  N:0000H         SYMBOL        PDATASTART
  N:0000H         SYMBOL        PPAGE
  N:0000H         SYMBOL        PPAGEENABLE
  D:00A0H         SYMBOL        PPAGE_SFR
  D:0081H         SYMBOL        SP
  C:0514H         SYMBOL        STARTUP1
  N:0000H         SYMBOL        XBPSTACK
  N:0000H         SYMBOL        XBPSTACKTOP
  N:0000H         SYMBOL        XDATALEN
  N:0000H         SYMBOL        XDATASTART
  C:0000H         LINE#         126
  C:0514H         LINE#         133
  C:0516H         LINE#         134
  C:0517H         LINE#         135
  C:0518H         LINE#         136
  C:051AH         LINE#         185
  C:051DH         LINE#         196
  -------         ENDMOD        ?C_STARTUP

  -------         MODULE        PROGRAM
  C:0000H         SYMBOL        _ICE_DUMMY_
  D:0090H         PUBLIC        P1
  D:00A0H         PUBLIC        P2
  C:04B9H         PUBLIC        _delay
  C:0302H         PUBLIC        _read_data
  C:0285H         PUBLIC        _asc2led
  C:0208H         PUBLIC        main
  C:014AH         PUBLIC        _write_data
  C:03B9H         PUBLIC        _read_byte
  C:03F5H         PUBLIC        iic_read
  C:050DH         PUBLIC        _wait
  C:0392H         SYMBOL        _?ix1000
  C:044DH         PUBLIC        _write_byte
  C:0421H         PUBLIC        _iic_write
  C:049AH         PUBLIC        iic_ack
  C:04EDH         PUBLIC        iic_start
  B:00A0H.0       PUBLIC        SDA
  C:04D4H         PUBLIC        iic_stop
  B:00A0H.1       PUBLIC        SCL
  C:0477H         PUBLIC        iic_sendack
  -------         PROC          MAIN
  -------         DO            
  D:0021H         SYMBOL        byte
  D:0022H         SYMBOL        device
  D:0023H         SYMBOL        i
  D:0024H         SYMBOL        ss
  D:0027H         SYMBOL        dd
BL51 BANKED LINKER/LOCATER V6.22                                                      12/22/2016  10:15:47  PAGE 4


  D:004EH         SYMBOL        ptr
  -------         ENDDO         
  C:0208H         LINE#         21
  C:0208H         LINE#         22
  C:0208H         LINE#         25
  C:0211H         LINE#         26
  C:0224H         LINE#         27
  C:022DH         LINE#         29
  C:0230H         LINE#         32
  C:0233H         LINE#         60
  C:0246H         LINE#         64
  C:0259H         LINE#         66
  C:025CH         LINE#         67
  C:025CH         LINE#         71
  C:0273H         LINE#         73
  C:027AH         LINE#         74
  C:0283H         LINE#         76
  -------         ENDPROC       MAIN
  -------         PROC          _WRITE_DATA
  D:0051H         SYMBOL        device
  D:0052H         SYMBOL        addr
  D:0001H         SYMBOL        str
  D:0056H         SYMBOL        strlen
  -------         DO            
  D:0058H         SYMBOL        num
  D:005AH         SYMBOL        i
  D:005CH         SYMBOL        j
  D:005EH         SYMBOL        ptr
  -------         ENDDO         
  C:014AH         LINE#         84
  C:014EH         LINE#         85
  C:014EH         LINE#         86
  C:015BH         LINE#         87
  C:0161H         LINE#         90
  C:0178H         LINE#         92
  C:0188H         LINE#         93
  C:0188H         LINE#         95
  C:018BH         LINE#         97
  C:0190H         LINE#         98
  C:0195H         LINE#         100
  C:01A0H         LINE#         101
  C:01A5H         LINE#         103
  C:01AAH         LINE#         104
  C:01AAH         LINE#         106
  C:01CBH         LINE#         107
  C:01CBH         LINE#         109
  C:01E0H         LINE#         110
  C:01E5H         LINE#         111
  C:01E5H         LINE#         112
  C:01F6H         LINE#         115
  C:01F9H         LINE#         116
  C:0207H         LINE#         117
  -------         ENDPROC       _WRITE_DATA
  -------         PROC          _READ_DATA
  D:0051H         SYMBOL        device
  D:0052H         SYMBOL        addr
  D:0001H         SYMBOL        str
BL51 BANKED LINKER/LOCATER V6.22                                                      12/22/2016  10:15:47  PAGE 5


  D:0056H         SYMBOL        strlen
  -------         DO            
  D:0058H         SYMBOL        i
  D:005AH         SYMBOL        ptr
  -------         ENDDO         
  C:0302H         LINE#         124
  C:0306H         LINE#         125
  C:0306H         LINE#         126
  C:030BH         LINE#         127
  C:0311H         LINE#         130
  C:0314H         LINE#         132
  C:0319H         LINE#         133
  C:031EH         LINE#         135
  C:0323H         LINE#         136
  C:0328H         LINE#         139
  C:032BH         LINE#         140
  C:0333H         LINE#         141
  C:0338H         LINE#         144
  C:0345H         LINE#         145
  C:0345H         LINE#         146
  C:035AH         LINE#         148
  C:0365H         LINE#         149
  C:0367H         LINE#         152
  -------         ENDPROC       _READ_DATA
  -------         PROC          _WRITE_BYTE
  D:0008H         SYMBOL        device
  D:0009H         SYMBOL        addr
  D:000AH         SYMBOL        byte
  C:044DH         LINE#         159
  C:0453H         LINE#         160
  C:0453H         LINE#         162
  C:0456H         LINE#         164
  C:045BH         LINE#         165
  C:0460H         LINE#         167
  C:0465H         LINE#         168
  C:046AH         LINE#         170
  C:046FH         LINE#         171
  C:0474H         LINE#         173
  -------         ENDPROC       _WRITE_BYTE
  -------         PROC          _READ_BYTE
  D:000BH         SYMBOL        device
  D:000CH         SYMBOL        addr
  -------         DO            
  D:000DH         SYMBOL        byte
  -------         ENDDO         
  C:03B9H         LINE#         179
  C:03BDH         LINE#         180
  C:03BDH         LINE#         181
  C:03C0H         LINE#         184
  C:03C3H         LINE#         186
  C:03C8H         LINE#         187
  C:03CDH         LINE#         189
  C:03D2H         LINE#         190
  C:03D7H         LINE#         193
  C:03DAH         LINE#         194
  C:03E2H         LINE#         195
  C:03E7H         LINE#         197
BL51 BANKED LINKER/LOCATER V6.22                                                      12/22/2016  10:15:47  PAGE 6


  C:03ECH         LINE#         198
  C:03EFH         LINE#         200
  C:03F2H         LINE#         202
  C:03F4H         LINE#         203
  -------         ENDPROC       _READ_BYTE
  -------         PROC          _ASC2LED
  D:0007H         SYMBOL        ascii
  C:0285H         LINE#         6
  C:0285H         LINE#         7
  C:0285H         LINE#         8
  C:02CFH         LINE#         9
  C:02CFH         LINE#         10
  C:02CFH         LINE#         11
  C:02D2H         LINE#         12
  C:02D2H         LINE#         13
  C:02D5H         LINE#         14
  C:02D5H         LINE#         15
  C:02D8H         LINE#         16
  C:02D8H         LINE#         17
  C:02DBH         LINE#         18
  C:02DBH         LINE#         19
  C:02DEH         LINE#         20
  C:02DEH         LINE#         21
  C:02E1H         LINE#         22
  C:02E1H         LINE#         23
  C:02E4H         LINE#         24
  C:02E4H         LINE#         25
  C:02E7H         LINE#         26
  C:02E7H         LINE#         27
  C:02EAH         LINE#         28
  C:02EAH         LINE#         29
  C:02EDH         LINE#         30
  C:02EDH         LINE#         31
  C:02EDH         LINE#         32
  C:02F0H         LINE#         33
  C:02F0H         LINE#         34
  C:02F0H         LINE#         35
  C:02F3H         LINE#         36
  C:02F3H         LINE#         37
  C:02F3H         LINE#         38
  C:02F6H         LINE#         39
  C:02F6H         LINE#         40
  C:02F6H         LINE#         41
  C:02F9H         LINE#         42
  C:02F9H         LINE#         43
  C:02F9H         LINE#         44
  C:02FCH         LINE#         45
  C:02FCH         LINE#         46
  C:02FCH         LINE#         47
  C:02FFH         LINE#         48
  C:02FFH         LINE#         49
  C:0301H         LINE#         50
  -------         ENDPROC       _ASC2LED
  -------         PROC          _DELAY
  D:0006H         SYMBOL        t
  -------         DO            
  D:0004H         SYMBOL        tm
BL51 BANKED LINKER/LOCATER V6.22                                                      12/22/2016  10:15:47  PAGE 7


  -------         ENDDO         
  C:04B9H         LINE#         53
  C:04B9H         LINE#         54
  C:04B9H         LINE#         55
  C:04BDH         LINE#         56
  C:04C7H         LINE#         57
  C:04C7H         LINE#         58
  C:04D3H         LINE#         60
  -------         ENDPROC       _DELAY
  C:0506H         SYMBOL        L?0103
  -------         PROC          L?0102
  -------         ENDPROC       L?0102
  C:0506H         SYMBOL        L?0103
  -------         PROC          _WAIT
  D:0007H         SYMBOL        t
  C:050DH         LINE#         63
  C:050DH         LINE#         64
  C:050DH         LINE#         65
  C:0513H         LINE#         66
  -------         ENDPROC       _WAIT
  -------         PROC          IIC_START
  C:04EDH         LINE#         7
  C:04EDH         LINE#         8
  C:04EDH         LINE#         9
  C:04EFH         LINE#         10
  C:04F1H         LINE#         11
  C:04F6H         LINE#         12
  C:04F8H         LINE#         13
  C:04FDH         LINE#         14
  C:04FFH         LINE#         15
  -------         ENDPROC       IIC_START
  -------         PROC          IIC_STOP
  C:04D4H         LINE#         19
  C:04D4H         LINE#         20
  C:04D4H         LINE#         21
  C:04D6H         LINE#         22
  C:04D8H         LINE#         23
  C:04DAH         LINE#         24
  C:04DFH         LINE#         25
  C:04E1H         LINE#         26
  C:04E6H         LINE#         27
  C:04E8H         LINE#         28
  -------         ENDPROC       IIC_STOP
  -------         PROC          IIC_ACK
  -------         DO            
  B:0020H.0       SYMBOL        v
  D:0061H         SYMBOL        i
  -------         ENDDO         
  C:049AH         LINE#         35
  C:049AH         LINE#         36
  C:049AH         LINE#         37
  C:049CH         LINE#         38
  C:049FH         LINE#         40
  C:04A1H         LINE#         41
  C:04A3H         LINE#         42
  C:04A8H         LINE#         43
  C:04ACH         LINE#         45
BL51 BANKED LINKER/LOCATER V6.22                                                      12/22/2016  10:15:47  PAGE 8


  C:04AEH         LINE#         47
  C:04AEH         LINE#         48
  C:04B1H         LINE#         50
  C:04B8H         LINE#         51
  -------         ENDPROC       IIC_ACK
  -------         PROC          IIC_SENDACK
  B:0020H.0       SYMBOL        ack
  C:0477H         LINE#         54
  C:0477H         LINE#         55
  C:0477H         LINE#         57
  C:0479H         LINE#         58
  C:047EH         LINE#         61
  C:0481H         LINE#         62
  C:0481H         LINE#         63
  C:0483H         LINE#         64
  C:0485H         LINE#         67
  C:0485H         LINE#         68
  C:0487H         LINE#         69
  C:0487H         LINE#         71
  C:048CH         LINE#         72
  C:048EH         LINE#         73
  C:0493H         LINE#         75
  C:0495H         LINE#         76
  -------         ENDPROC       IIC_SENDACK
  -------         PROC          IIC_READ
  -------         DO            
  D:0005H         SYMBOL        byte
  D:0004H         SYMBOL        n
  -------         ENDDO         
  C:03F5H         LINE#         82
  C:03F5H         LINE#         83
  C:03F5H         LINE#         84
  C:03F8H         LINE#         87
  C:03FAH         LINE#         88
  C:03FFH         LINE#         90
  C:0401H         LINE#         91
  C:0406H         LINE#         93
  C:0406H         LINE#         94
  C:0406H         LINE#         95
  C:040AH         LINE#         98
  C:040CH         LINE#         99
  C:0411H         LINE#         100
  C:0417H         LINE#         101
  C:0417H         LINE#         102
  C:0417H         LINE#         103
  C:041AH         LINE#         104
  C:041EH         LINE#         106
  C:0420H         LINE#         107
  -------         ENDPROC       IIC_READ
  -------         PROC          _IIC_WRITE
  D:0005H         SYMBOL        byte
  -------         DO            
  B:0020H.0       SYMBOL        temp
  D:0004H         SYMBOL        n
  -------         ENDDO         
  C:0421H         LINE#         114
  C:0423H         LINE#         115
BL51 BANKED LINKER/LOCATER V6.22                                                      12/22/2016  10:15:47  PAGE 9


  C:0423H         LINE#         117
  C:0425H         LINE#         119
  C:0427H         LINE#         121
  C:0427H         LINE#         122
  C:0427H         LINE#         124
  C:0435H         LINE#         126
  C:0439H         LINE#         127
  C:043BH         LINE#         128
  C:043BH         LINE#         129
  C:043BH         LINE#         130
  C:043EH         LINE#         132
  C:0442H         LINE#         133
  C:0446H         LINE#         136
  C:0448H         LINE#         137
  -------         ENDPROC       _IIC_WRITE
  -------         ENDMOD        PROGRAM

  -------         MODULE        ?C?COPY
  C:00D3H         PUBLIC        ?C?COPY
  -------         ENDMOD        ?C?COPY

  -------         MODULE        ?C?CLDPTR
  C:00F9H         PUBLIC        ?C?CLDPTR
  -------         ENDMOD        ?C?CLDPTR

  -------         MODULE        ?C?CSTPTR
  C:0112H         PUBLIC        ?C?CSTPTR
  -------         ENDMOD        ?C?CSTPTR

  -------         MODULE        ?C?CCASE
  C:0124H         PUBLIC        ?C?CCASE
  -------         ENDMOD        ?C?CCASE

*** WARNING L16: UNCALLED SEGMENT, IGNORED FOR OVERLAY PROCESS
    SEGMENT: ?PR?_WRITE_BYTE?PROGRAM

*** WARNING L16: UNCALLED SEGMENT, IGNORED FOR OVERLAY PROCESS
    SEGMENT: ?PR?_READ_BYTE?PROGRAM

Program Size: data=80.1 xdata=0 code=1312
LINK/LOCATE RUN COMPLETE.  2 WARNING(S),  0 ERROR(S)
