C51 COMPILER V9.54   LEARNING05                                                            12/04/2016 23:15:23 PAGE 1   


C51 COMPILER V9.54, COMPILATION OF MODULE LEARNING05
OBJECT MODULE PLACED IN .\Objects\learning05.obj
COMPILER INVOKED BY: C:\Keil_v5\C51\BIN\C51.EXE learning05.c OPTIMIZE(8,SPEED) BROWSE DEBUG OBJECTEXTEND PRINT(.\Listing
                    -s\learning05.lst) OBJECT(.\Objects\learning05.obj)

line level    source

   1          #include <REGX52.H>
   2          
   3          #define unit unsigned int
   4          #define uchar unsigned char
   5                  
   6          sbit p2_0 = P2^0;
   7          sbit p2_1 = P2^1;
   8          unit state = 0x0FFF;    // 每次四盏灯亮
   9          unit temp = 0;
  10          uchar u1 = 0;
  11          uchar u2 = 0;
  12          
  13          const int timer = 83;
  14          int i = 0;
  15          
  16          void delay(unit t);
  17          
  18          void main(void)
  19          {
  20   1              p2_0 = p2_1 = 0;
  21   1              
  22   1              while(1)
  23   1              {
  24   2                      // 状态字的高8位
  25   2                      u1 = (uchar)((state >> 8) & 0x00FF);
  26   2                      // 状态字的低8位
  27   2                      u2 = (uchar)(state & 0x00FF);
  28   2                      
  29   2                      // 显示第一排LED
  30   2                      //p2_0 = (u1 < 256) ? 1 : 0;
  31   2                      p2_0 = 1;
  32   2                      P1 = u1;
  33   2                      //delay(100);
  34   2                      p2_0 = 0;
  35   2                      //delay(100);
  36   2                      
  37   2                      // 显示第二排LED
  38   2                      //p2_1 = (u2 < 256) ? 1 : 0;
  39   2                      p2_1 = 1;
  40   2                      P1 = u2;
  41   2                      //delay(100);
  42   2                      p2_1 = 0;
  43   2                      
  44   2                      delay(50);
  45   2                      
  46   2                      // 状态字的最高位
  47   2                      temp = state >> 15;
  48   2                      temp &= 0x0001;
  49   2                      state <<= 1;
  50   2                      state |= temp;
  51   2                      
  52   2              }               
  53   1      }
  54          
C51 COMPILER V9.54   LEARNING05                                                            12/04/2016 23:15:23 PAGE 2   

  55          void delay(unit t)
  56          {
  57   1              while(t--)
  58   1              {
  59   2                      for(i = timer; i>=0; i--); //1毫秒
  60   2              }
  61   1      }


MODULE INFORMATION:   STATIC OVERLAYABLE
   CODE SIZE        =    109    ----
   CONSTANT SIZE    =   ----    ----
   XDATA SIZE       =   ----    ----
   PDATA SIZE       =   ----    ----
   DATA SIZE        =     10    ----
   IDATA SIZE       =   ----    ----
   BIT SIZE         =   ----    ----
END OF MODULE INFORMATION.


C51 COMPILATION COMPLETE.  0 WARNING(S),  0 ERROR(S)
