:03000000020003F8
:0C000300787FE4F6D8FD75810C02004AFD
:10010B003F065B4F666D7D077F6F777C395E79713C
:06011B00040800000000D2
:10008F00E4F508E508C3941050F6D2A0E5089001F6
:10009F000B93F590C2A00508E4F509E509C3941088
:1000AF0050E1D2A1E50990010B93F590C2A105098A
:1000BF00E4F50AE50AC3941050E1D2A2E50A9001D3
:1000CF000B93F590C2A2050AE4F50BE50BC3941050
:1000DF0050E1D2A3E50B90010B93F590C2A3050B52
:0700EF007F1E1200F680E401
:1000F600AE071FEE600E750C54E50CD3940040F06D
:05010600150C80F5223C
:10000F0002008FE493A3F8E493A34003F68001F278
:10001F0008DFF48029E493A3F85407240CC8C333F2
:10002F00C4540F4420C8834004F456800146F6DFC1
:10003F00E4800B010204081020408090011BE47E35
:10004F00019360BCA3FF543F30E509541FFEE493B6
:10005F00A360010ECF54C025E060A840B8E493A37D
:10006F00FAE493A3F8E493A3C8C582C8CAC583CAA8
:10007F00F0A3C8C582C8CAC583CADFE9DEE780BE60
:0101210000DD
:00000001FF
