:0300000002008D6E
:0C008D00787FE4F6D8FD7581090200269A
:10006E00C0F9A4B0999282F880908883C6A1868E3A
:01007E00FF82
:10002600E4F508F509759850758920758BFA758D74
:10003600FAD28ED2ACD2AF90007EE493FFFEF5A04A
:100046008E908FA08F90AF080508EFB4FF03E4F5FC
:1000560008E508540FF50990006E93F599F5907F21
:08006600057E0012000380CFAB
:0300230002007F59
:0E007F003098058599A0C298309902C2993236
:100003007D727C00EF1FAA0670011E4A600CED1D75
:0A001300AA0470011C4A60EC80F49E
:01001D0022C0
:00000001FF
