:030000000201BB3F
:0C01BB00787FE4F6D8FD75810D02020289
:1000030020202020200020005050F850F8505000AD
:100013002078C07028F02000C0C810204098180035
:1000230040A0A040A890680010204040402010004D
:10003300402010101020400020A8702070A820003D
:10004300202020F820202000000000F800000000FD
:1000530000000000006060000008102040800000E5
:10006300708898A8C8887000206020202020700025
:10007300708808304080F800F80810300888700055
:1000830010305090F8101000F880F00808887000C5
:10009300384080F088887000F80810204040400005
:1000A3007088887088887000708888780810E000ED
:1000B30000606000606000000060600060608000BD
:1000C30010204080402010000000F800F8000000DD
:1000D30040201008102040007088102020002000CD
:1000E3007088B8A8B880780020508888F88888007D
:1000F300F08888F08888F00070888080808870009D
:10010300F08888888888F000F88080F08080F80084
:10011300F88080F08080800070888080B8887800C4
:10012300888888F888888800702020202020700024
:1001330038101010109060008890A0C0A090880024
:10014300808080808080F80088D8A8A8888888006C
:100153008888C8A8988888007088888888887000EC
:10016300F08888F08080800070888888A890680074
:10017300F08888F0A09088007088807008887000EC
:10018300F820202020202000888888888888700014
:100193008888888888502000888888A8A8D88800FC
:1001A300888850205088880088885020202020008C
:0801B300F80810204080F8005C
:0F02BB00010BFE010A00010800010C00010900FF
:10024700E4F50DE4F508E4F509AF090509EFC394F2
:10025700C85041750BFEE4F50CE50CC3940850E952
:10026700850B90E50B5480F50AE50B25E0F50BE5CA
:100277000AC41313135401420BE50875F008A425AB
:100287000CF50D90000393F5807F017E001202A606
:0F029700050C80C50508E508C3943740A980A46D
:1002A6007D72EF1FAA0670011E4A6008AC051DECA0
:0402B60060F080F87C
:0102BA002221
:1001C700020247E493A3F8E493A34003F68001F205
:1001D70008DFF48029E493A3F85407240CC8C33339
:1001E700C4540F4420C8834004F456800146F6DF08
:1001F700E4800B01020408102040809002BBE47EDB
:10020700019360BCA3FF543F30E509541FFEE493FC
:10021700A360010ECF54C025E060A840B8E493A3C3
:10022700FAE493A3F8E493A3C8C582C8CAC583CAEE
:10023700F0A3C8C582C8CAC583CADFE9DEE780BEA6
:0102CA000033
:00000001FF
