C51 COMPILER V9.54   PROGRAM                                                               12/16/2016 15:25:29 PAGE 1   


C51 COMPILER V9.54, COMPILATION OF MODULE PROGRAM
OBJECT MODULE PLACED IN .\Objects\Program.obj
COMPILER INVOKED BY: C:\Keil_v5\C51\BIN\C51.EXE Program.c OPTIMIZE(8,SPEED) BROWSE DEBUG OBJECTEXTEND PRINT(.\Listings\P
                    -rogram.lst) OBJECT(.\Objects\Program.obj)

line level    source

   1          // 功能：智能蓄水池
   2          // 平台：Proteus
   3          // 器材：AT89C52,开关（模拟缺水、水满），LED（指示缺水、水满状态），非门，NPN三极管，继电器，等
   4          // 实现：缺水（SW1断开，触发外部中断0，继电器工作、开始抽水）
   5          //       水满（SW1和SW2都闭合，触发外部中断1，继电器停止工作，抽水停止）
   6          
   7          #include <REGX52.H>
   8          
   9          #define uint unsigned int
  10          #define uchar unsigned char
  11          
  12          sbit Work = P1^0;
  13          
  14          void main(void)
  15          {
  16   1              // 设置外部中断0工作方式为低电平触发
  17   1              IT0 = 0;
  18   1              // 开外部中断0
  19   1              EX0 = 1;
  20   1              // 设置外部中断1工作方式为低电平触发
  21   1              IT1 = 0;
  22   1              // 开外部中断1
  23   1              EX1 = 1;
  24   1              // 打开中断开关
  25   1              EA = 1;
  26   1              
  27   1              while(1);
  28   1      }
  29          
  30          // 外部中断0函数
  31          void int0() interrupt 0
  32          {
  33   1              // 关闭中断，防止重复中断
  34   1              EA = 0;
  35   1              // 启动继电器工作
  36   1              Work = 0;
  37   1              // 开中断
  38   1              EA = 1;
  39   1      }
  40          
  41          // 外部中断1函数
  42          void int1() interrupt 2
  43          {
  44   1              EA = 0;
  45   1              Work = 1;
  46   1              EA = 1;
  47   1      }


MODULE INFORMATION:   STATIC OVERLAYABLE
   CODE SIZE        =     26    ----
   CONSTANT SIZE    =   ----    ----
   XDATA SIZE       =   ----    ----
   PDATA SIZE       =   ----    ----
C51 COMPILER V9.54   PROGRAM                                                               12/16/2016 15:25:29 PAGE 2   

   DATA SIZE        =   ----    ----
   IDATA SIZE       =   ----    ----
   BIT SIZE         =   ----    ----
END OF MODULE INFORMATION.


C51 COMPILATION COMPLETE.  0 WARNING(S),  0 ERROR(S)
