C51 COMPILER V9.54   PROGRAM                                                               12/20/2016 19:16:14 PAGE 1   


C51 COMPILER V9.54, COMPILATION OF MODULE PROGRAM
OBJECT MODULE PLACED IN .\Objects\Program.obj
COMPILER INVOKED BY: C:\Keil_v5\C51\BIN\C51.EXE Program.c OPTIMIZE(8,SPEED) BROWSE DEBUG OBJECTEXTEND PRINT(.\Listings\P
                    -rogram.lst) OBJECT(.\Objects\Program.obj)

line level    source

   1          // 功能：驱动1602LCD液晶显示器
   2          // 平台：Proteus
   3          // 实现：单片机驱动1602LCD模组
   4          
   5          #include <REGX52.H>
   6          #include "Me51.h"
   7          
   8          sbit RS = P3^0;
   9          sbit RW = P3^1;
  10          sbit E = P3^2;
  11          
  12          // 数码管编码表
  13          uchar code table[] = {
  14                  0xC0,0xF9,0xA4,0xB0,
  15                  0x99,0x92,0x82,0xF8,
  16                  0x80,0x90,0x88,0x83,
  17                  0xC6,0xA1,0x86,0x8E
  18          };
  19          
  20          void main()
  21          {
  22   1              uchar dat = 0, n = 0;
  23   1              
  24   1              init();
  25   1              
  26   1      //      write_data('A', 0);
  27   1      //      
  28   1      //      write_data('9', 2);
  29   1      //      
  30   1      //      write_data('C', 5);
  31   1      //      
  32   1      //      write_data('%', 0x43);
  33   1      //      write_string("0123456789ABCDEF---", 16, 0, 0);
  34   1              write_cmd(0x07);
  35   1              write_string("Hello, World!", 13, 0x10, 100);
  36   1      //      delay(1000);
  37   1              write_cmd(0x06);
  38   1              write_string("I Like MCU!", 11, 0x50, 100);
  39   1              
  40   1      //      P1 = 0xC0;
  41   1      //      for(n = 0; n < 16; n++)
  42   1      //      {
  43   1      //              delay(1000);
  44   1      //              P1 = ~read_data(n);
  45   1      //      }
  46   1              write_data('9', 1);
  47   1              dat = read_data(1);
  48   1              P1 = show_led(dat);
  49   1              
  50   1              delay(1000);
  51   1              dat = current_addr();
  52   1              P1 = table[dat];
  53   1      //      P1 = 0xC6;
  54   1              
C51 COMPILER V9.54   PROGRAM                                                               12/20/2016 19:16:14 PAGE 2   

  55   1              while(1);
  56   1      }
  57          
  58          // 液晶初始化
  59          void init()
  60          {
  61   1              // 显示模式设置
  62   1              write_cmd(0x38);
  63   1              // 开显示，显示光标，光标闪烁
  64   1              write_cmd(0x0F);
  65   1              // 设置写一个字符，整屏左移
  66   1              //write_cmd(0x07);
  67   1              // 清屏
  68   1              write_cmd(0x01);
  69   1      }
  70          
  71          // 读状态
  72          uchar read_state()
  73          {
  74   1              uchar tmp;
  75   1              
  76   1              P2 = 0xFF;
  77   1              
  78   1              RS = 0;
  79   1              RW = 1;
  80   1              E = 1;  
  81   1              delay(1);
  82   1              tmp = P2;
  83   1              E = 0;
  84   1              
  85   1              return tmp;
  86   1      }
  87          
  88          // 写命令
  89          void write_cmd(uchar cmd)
  90          {
  91   1              wait_allow();
  92   1              
  93   1              RS = 0;
  94   1              RW = 0;
  95   1              delay(1);
  96   1              P2 = cmd;
  97   1              delay(1);
  98   1              E = 1;
  99   1              delay(2);
 100   1              E = 0;
 101   1      }
 102          
 103          // 读数据
 104          // uchar addr, 字符所在地址的偏移值，如：3
 105          uchar read_data(uchar addr)
 106          {
 107   1              uchar dat = 0;
 108   1              
 109   1              // 设置地址
 110   1              write_cmd(0x80 + addr);
 111   1              
 112   1              wait_allow();
 113   1                      
 114   1      //      RS = 0;
 115   1      //      RW = 0;
 116   1      //      E = 0;
C51 COMPILER V9.54   PROGRAM                                                               12/20/2016 19:16:14 PAGE 3   

 117   1      //      delay(1);
 118   1              P2 = 0xFF;
 119   1              RS = 1; 
 120   1              RW = 1;
 121   1              delay(1);
 122   1              E = 1;
 123   1              delay(1);
 124   1              dat = P2;
 125   1              E = 0;
 126   1      //      RW = 0;
 127   1      //      RS = 0;
 128   1              
 129   1              return dat;
 130   1      }
 131          
 132          // 写数据
 133          // uchar dat, 要写入的字符
 134          // uchar addr, 字符写入的地址的偏移值，如：3
 135          void write_data(uchar dat, uchar addr)
 136          {
 137   1              // 设置写入地址
 138   1              write_cmd(0x80 + addr);
 139   1              
 140   1              wait_allow();
 141   1              
 142   1              RS = 1;
 143   1              RW = 0;
 144   1              delay(1);
 145   1              P2 = dat;
 146   1              delay(1);
 147   1              E = 1;
 148   1              delay(2);
 149   1              E = 0;
 150   1      }
 151          
 152          // 写字符串
 153          void write_string(uchar* str, uchar strlen, uchar addr, uchar time)
 154          {
 155   1              uchar i = 0;
 156   1              for(i = 0; i < strlen; i++)
 157   1              {
 158   2                      delay(time);
 159   2                      write_data(str[i], addr+i);
 160   2              }
 161   1      }
 162          
 163          // 是否能读写
 164          // 读状态时返回一个Byte的状态字
 165          // 最高位为读写使能操作，1：禁止，0：允许
 166          // 返回：1：允许，0：不允许
 167          uchar can_rw()
 168          {
 169   1              uchar state = 0, temp = 0;
 170   1              
 171   1              state = read_state();
 172   1              
 173   1              temp = state & 0x80;
 174   1              temp >>= 7;
 175   1              
 176   1              return ~temp;
 177   1      }
 178          
C51 COMPILER V9.54   PROGRAM                                                               12/20/2016 19:16:14 PAGE 4   

 179          // 当前数据地址
 180          // 读状态时返回一个Byte的状态字
 181          // 低7位为当前数据地址指针
 182          uchar current_addr()
 183          {
 184   1              uchar state = 0;
 185   1              state = read_state();
 186   1              
 187   1              return (state & 0x7F);
 188   1      }
 189          
 190          // 等待读写允许
 191          void wait_allow()
 192          {
 193   1              uchar allow = 0;
 194   1              do
 195   1              {
 196   2                      allow = can_rw();
 197   2              } 
 198   1              while(!allow);
 199   1      }
 200          
 201          // ASCII码转化为数码管编码
 202          uchar show_led(uchar ascii)
 203          {
 204   1              switch(ascii)
 205   1              {
 206   2                      case '0':
 207   2                              return 0xC0;
 208   2                      case '1':
 209   2                              return 0xF9;
 210   2                      case '2':
 211   2                              return 0xA4;
 212   2                      case '3':
 213   2                              return 0xB0;
 214   2                      case '4':
 215   2                              return 0x99;
 216   2                      case '5':
 217   2                              return 0x92;
 218   2                      case '6':
 219   2                              return 0x82;
 220   2                      case '7':
 221   2                              return 0xF8;
 222   2                      case '8':
 223   2                              return 0x80;
 224   2                      case '9':
 225   2                              return 0x90;
 226   2                      case 'a':
 227   2                      case 'A':
 228   2                              return 0x88;
 229   2                      case 'b':
 230   2                      case 'B':
 231   2                              return 0x83;
 232   2                      case 'c':
 233   2                      case 'C':
 234   2                              return 0xC6;
 235   2                      case 'd':
 236   2                      case 'D':
 237   2                              return 0xA1;
 238   2                      case 'e':
 239   2                      case 'E':
 240   2                              return 0x86;
C51 COMPILER V9.54   PROGRAM                                                               12/20/2016 19:16:14 PAGE 5   

 241   2                      case 'f':
 242   2                      case 'F':
 243   2                              return 0x8E;
 244   2              }
 245   1              return 0xFF;
 246   1      }
 247          
 248          // 延时函数
 249          // 最小延时1ms
 250          void delay(uint t)
 251          {
 252   1              uchar tm = 10;
 253   1              while(t--)
 254   1              {
 255   2                      while(tm--);
 256   2              }
 257   1      }


MODULE INFORMATION:   STATIC OVERLAYABLE
   CODE SIZE        =    461    ----
   CONSTANT SIZE    =     42    ----
   XDATA SIZE       =   ----    ----
   PDATA SIZE       =   ----    ----
   DATA SIZE        =   ----      10
   IDATA SIZE       =   ----    ----
   BIT SIZE         =   ----    ----
END OF MODULE INFORMATION.


C51 COMPILATION COMPLETE.  0 WARNING(S),  0 ERROR(S)
