BL51 BANKED LINKER/LOCATER V6.22                                                        12/20/2016  19:16:14  PAGE 1


BL51 BANKED LINKER/LOCATER V6.22, INVOKED BY:
C:\KEIL_V5\C51\BIN\BL51.EXE .\Objects\STARTUP.obj, .\Objects\Program.obj TO .\Objects\Project PRINT (.\Listings\Project.
>> m51) RAMSIZE (256)


MEMORY MODEL: SMALL


INPUT MODULES INCLUDED:
  .\Objects\STARTUP.obj (?C_STARTUP)
  .\Objects\Program.obj (PROGRAM)
  C:\KEIL_V5\C51\LIB\C51S.LIB (?C?CLDOPTR)
  C:\KEIL_V5\C51\LIB\C51S.LIB (?C?CCASE)


LINK MAP OF MODULE:  .\Objects\Project (?C_STARTUP)


            TYPE    BASE      LENGTH    RELOCATION   SEGMENT NAME
            -----------------------------------------------------

            * * * * * * *   D A T A   M E M O R Y   * * * * * * *
            REG     0000H     0008H     ABSOLUTE     "REG BANK 0"
            DATA    0008H     000AH     UNIT         _DATA_GROUP_
            IDATA   0012H     0001H     UNIT         ?STACK

            * * * * * * *   C O D E   M E M O R Y   * * * * * * *
            CODE    0000H     0003H     ABSOLUTE     
            CODE    0003H     007DH     UNIT         ?PR?_SHOW_LED?PROGRAM
            CODE    0080H     0057H     UNIT         ?PR?MAIN?PROGRAM
            CODE    00D7H     0053H     UNIT         ?C?LIB_CODE
            CODE    012AH     0038H     UNIT         ?PR?_WRITE_STRING?PROGRAM
            CODE    0162H     002AH     UNIT         ?CO?PROGRAM
            CODE    018CH     0025H     UNIT         ?PR?_WRITE_DATA?PROGRAM
            CODE    01B1H     0020H     UNIT         ?PR?_READ_DATA?PROGRAM
            CODE    01D1H     001EH     UNIT         ?PR?_WRITE_CMD?PROGRAM
            CODE    01EFH     001BH     UNIT         ?PR?_DELAY?PROGRAM
            CODE    020AH     0012H     UNIT         ?PR?CAN_RW?PROGRAM
            CODE    021CH     000FH     UNIT         ?PR?INIT?PROGRAM
            CODE    022BH     000FH     UNIT         ?PR?READ_STATE?PROGRAM
            CODE    023AH     000CH     UNIT         ?C_C51STARTUP
            CODE    0246H     000AH     UNIT         ?PR?CURRENT_ADDR?PROGRAM
            CODE    0250H     0009H     UNIT         ?PR?WAIT_ALLOW?PROGRAM



OVERLAY MAP OF MODULE:   .\Objects\Project (?C_STARTUP)


SEGMENT                             DATA_GROUP 
  +--> CALLED SEGMENT             START    LENGTH
-------------------------------------------------
?C_C51STARTUP                     -----    -----
  +--> ?PR?MAIN?PROGRAM

?PR?MAIN?PROGRAM                  0008H    0001H
  +--> ?PR?INIT?PROGRAM
  +--> ?PR?_WRITE_CMD?PROGRAM
BL51 BANKED LINKER/LOCATER V6.22                                                      12/20/2016  19:16:14  PAGE 2


  +--> ?CO?PROGRAM
  +--> ?PR?_WRITE_STRING?PROGRAM
  +--> ?PR?_WRITE_DATA?PROGRAM
  +--> ?PR?_READ_DATA?PROGRAM
  +--> ?PR?_SHOW_LED?PROGRAM
  +--> ?PR?_DELAY?PROGRAM
  +--> ?PR?CURRENT_ADDR?PROGRAM

?PR?INIT?PROGRAM                  -----    -----
  +--> ?PR?_WRITE_CMD?PROGRAM

?PR?_WRITE_CMD?PROGRAM            0011H    0001H
  +--> ?PR?WAIT_ALLOW?PROGRAM
  +--> ?PR?_DELAY?PROGRAM

?PR?WAIT_ALLOW?PROGRAM            -----    -----
  +--> ?PR?CAN_RW?PROGRAM

?PR?CAN_RW?PROGRAM                -----    -----
  +--> ?PR?READ_STATE?PROGRAM

?PR?READ_STATE?PROGRAM            -----    -----
  +--> ?PR?_DELAY?PROGRAM

?PR?_WRITE_STRING?PROGRAM         0009H    0007H
  +--> ?PR?_DELAY?PROGRAM
  +--> ?PR?_WRITE_DATA?PROGRAM

?PR?_WRITE_DATA?PROGRAM           0010H    0001H
  +--> ?PR?_WRITE_CMD?PROGRAM
  +--> ?PR?WAIT_ALLOW?PROGRAM
  +--> ?PR?_DELAY?PROGRAM

?PR?_READ_DATA?PROGRAM            -----    -----
  +--> ?PR?_WRITE_CMD?PROGRAM
  +--> ?PR?WAIT_ALLOW?PROGRAM
  +--> ?PR?_DELAY?PROGRAM

?PR?CURRENT_ADDR?PROGRAM          -----    -----
  +--> ?PR?READ_STATE?PROGRAM



SYMBOL TABLE OF MODULE:  .\Objects\Project (?C_STARTUP)

  VALUE           TYPE          NAME
  ----------------------------------

  -------         MODULE        ?C_STARTUP
  C:023AH         SEGMENT       ?C_C51STARTUP
  I:0012H         SEGMENT       ?STACK
  C:0000H         PUBLIC        ?C_STARTUP
  D:00E0H         SYMBOL        ACC
  D:00F0H         SYMBOL        B
  D:0083H         SYMBOL        DPH
  D:0082H         SYMBOL        DPL
  N:0000H         SYMBOL        IBPSTACK
BL51 BANKED LINKER/LOCATER V6.22                                                      12/20/2016  19:16:14  PAGE 3


  N:0100H         SYMBOL        IBPSTACKTOP
  N:0080H         SYMBOL        IDATALEN
  C:023DH         SYMBOL        IDATALOOP
  N:0000H         SYMBOL        PBPSTACK
  N:0100H         SYMBOL        PBPSTACKTOP
  N:0000H         SYMBOL        PDATALEN
  N:0000H         SYMBOL        PDATASTART
  N:0000H         SYMBOL        PPAGE
  N:0000H         SYMBOL        PPAGEENABLE
  D:00A0H         SYMBOL        PPAGE_SFR
  D:0081H         SYMBOL        SP
  C:023AH         SYMBOL        STARTUP1
  N:0000H         SYMBOL        XBPSTACK
  N:0000H         SYMBOL        XBPSTACKTOP
  N:0000H         SYMBOL        XDATALEN
  N:0000H         SYMBOL        XDATASTART
  C:0000H         LINE#         126
  C:023AH         LINE#         133
  C:023CH         LINE#         134
  C:023DH         LINE#         135
  C:023EH         LINE#         136
  C:0240H         LINE#         185
  C:0243H         LINE#         196
  -------         ENDMOD        ?C_STARTUP

  -------         MODULE        PROGRAM
  C:0000H         SYMBOL        _ICE_DUMMY_
  D:0090H         PUBLIC        P1
  D:00A0H         PUBLIC        P2
  D:00B0H         PUBLIC        P3
  C:0246H         PUBLIC        current_addr
  C:017CH         PUBLIC        table
  C:01F5H         PUBLIC        _delay
  C:01B1H         PUBLIC        _read_data
  C:022BH         PUBLIC        read_state
  B:00B0H.0       PUBLIC        RS
  C:0080H         PUBLIC        main
  B:00B0H.1       PUBLIC        RW
  C:012AH         PUBLIC        _write_string
  C:018CH         PUBLIC        _write_data
  C:021CH         PUBLIC        init
  C:0250H         PUBLIC        wait_allow
  B:00B0H.2       PUBLIC        E
  C:01D1H         PUBLIC        _write_cmd
  C:0003H         PUBLIC        _show_led
  C:020AH         PUBLIC        can_rw
  -------         PROC          MAIN
  -------         DO            
  D:0007H         SYMBOL        dat
  D:0008H         SYMBOL        n
  -------         ENDDO         
  C:0080H         LINE#         20
  C:0080H         LINE#         21
  C:0080H         LINE#         22
  C:0084H         LINE#         24
  C:0087H         LINE#         34
  C:008CH         LINE#         35
BL51 BANKED LINKER/LOCATER V6.22                                                      12/20/2016  19:16:14  PAGE 4


  C:009DH         LINE#         37
  C:00A2H         LINE#         38
  C:00B3H         LINE#         46
  C:00BAH         LINE#         47
  C:00BFH         LINE#         48
  C:00C4H         LINE#         50
  C:00CBH         LINE#         51
  C:00CEH         LINE#         52
  C:00D5H         LINE#         55
  -------         ENDPROC       MAIN
  -------         PROC          INIT
  C:021CH         LINE#         59
  C:021CH         LINE#         60
  C:021CH         LINE#         62
  C:0221H         LINE#         64
  C:0226H         LINE#         68
  -------         ENDPROC       INIT
  -------         PROC          READ_STATE
  -------         DO            
  D:0007H         SYMBOL        tmp
  -------         ENDDO         
  C:022BH         LINE#         72
  C:022BH         LINE#         73
  C:022BH         LINE#         76
  C:022EH         LINE#         78
  C:0230H         LINE#         79
  C:0232H         LINE#         80
  C:0232H         LINE#         81
  C:0235H         LINE#         82
  C:0237H         LINE#         83
  C:0239H         LINE#         85
  C:0239H         LINE#         86
  -------         ENDPROC       READ_STATE
  -------         PROC          _WRITE_CMD
  D:0011H         SYMBOL        cmd
  C:01D1H         LINE#         89
  C:01D3H         LINE#         90
  C:01D3H         LINE#         91
  C:01D6H         LINE#         93
  C:01D8H         LINE#         94
  C:01DAH         LINE#         95
  C:01DDH         LINE#         96
  C:01E0H         LINE#         97
  C:01E3H         LINE#         98
  C:01E5H         LINE#         99
  C:01ECH         LINE#         100
  C:01EEH         LINE#         101
  -------         ENDPROC       _WRITE_CMD
  -------         PROC          _READ_DATA
  D:0007H         SYMBOL        addr
  -------         DO            
  D:0006H         SYMBOL        dat
  -------         ENDDO         
  C:01B1H         LINE#         105
  C:01B1H         LINE#         106
  C:01B1H         LINE#         107
  C:01B3H         LINE#         110
BL51 BANKED LINKER/LOCATER V6.22                                                      12/20/2016  19:16:14  PAGE 5


  C:01BAH         LINE#         112
  C:01BDH         LINE#         118
  C:01C0H         LINE#         119
  C:01C2H         LINE#         120
  C:01C4H         LINE#         121
  C:01C7H         LINE#         122
  C:01C7H         LINE#         123
  C:01CAH         LINE#         124
  C:01CCH         LINE#         125
  C:01CEH         LINE#         129
  C:01D0H         LINE#         130
  -------         ENDPROC       _READ_DATA
  -------         PROC          _WRITE_DATA
  D:0010H         SYMBOL        dat
  D:0005H         SYMBOL        addr
  C:018CH         LINE#         135
  C:018EH         LINE#         136
  C:018EH         LINE#         138
  C:0195H         LINE#         140
  C:0198H         LINE#         142
  C:019AH         LINE#         143
  C:019CH         LINE#         144
  C:019FH         LINE#         145
  C:01A2H         LINE#         146
  C:01A5H         LINE#         147
  C:01A7H         LINE#         148
  C:01AEH         LINE#         149
  C:01B0H         LINE#         150
  -------         ENDPROC       _WRITE_DATA
  -------         PROC          _WRITE_STRING
  D:0009H         SYMBOL        str
  D:000CH         SYMBOL        strlen
  D:000DH         SYMBOL        addr
  D:000EH         SYMBOL        time
  -------         DO            
  D:000FH         SYMBOL        i
  -------         ENDDO         
  C:012AH         LINE#         153
  C:0132H         LINE#         154
  C:0132H         LINE#         155
  C:0135H         LINE#         156
  C:013EH         LINE#         157
  C:013EH         LINE#         158
  C:0145H         LINE#         159
  C:015DH         LINE#         160
  C:0161H         LINE#         161
  -------         ENDPROC       _WRITE_STRING
  -------         PROC          CAN_RW
  -------         DO            
  D:0007H         SYMBOL        state
  D:0006H         SYMBOL        temp
  -------         ENDDO         
  C:020AH         LINE#         167
  C:020AH         LINE#         168
  C:020AH         LINE#         169
  C:020DH         LINE#         171
  C:0210H         LINE#         173
BL51 BANKED LINKER/LOCATER V6.22                                                      12/20/2016  19:16:14  PAGE 6


  C:0213H         LINE#         174
  C:0219H         LINE#         176
  C:021BH         LINE#         177
  -------         ENDPROC       CAN_RW
  -------         PROC          CURRENT_ADDR
  -------         DO            
  D:0007H         SYMBOL        state
  -------         ENDDO         
  C:0246H         LINE#         182
  C:0246H         LINE#         183
  C:0246H         LINE#         184
  C:0248H         LINE#         185
  C:024BH         LINE#         187
  C:024FH         LINE#         188
  -------         ENDPROC       CURRENT_ADDR
  -------         PROC          WAIT_ALLOW
  -------         DO            
  D:0007H         SYMBOL        allow
  -------         ENDDO         
  C:0250H         LINE#         191
  C:0250H         LINE#         192
  C:0250H         LINE#         193
  C:0252H         LINE#         195
  C:0252H         LINE#         196
  C:0255H         LINE#         197
  C:0255H         LINE#         198
  C:0258H         LINE#         199
  -------         ENDPROC       WAIT_ALLOW
  -------         PROC          _SHOW_LED
  D:0007H         SYMBOL        ascii
  C:0003H         LINE#         202
  C:0003H         LINE#         203
  C:0003H         LINE#         204
  C:004DH         LINE#         205
  C:004DH         LINE#         206
  C:004DH         LINE#         207
  C:0050H         LINE#         208
  C:0050H         LINE#         209
  C:0053H         LINE#         210
  C:0053H         LINE#         211
  C:0056H         LINE#         212
  C:0056H         LINE#         213
  C:0059H         LINE#         214
  C:0059H         LINE#         215
  C:005CH         LINE#         216
  C:005CH         LINE#         217
  C:005FH         LINE#         218
  C:005FH         LINE#         219
  C:0062H         LINE#         220
  C:0062H         LINE#         221
  C:0065H         LINE#         222
  C:0065H         LINE#         223
  C:0068H         LINE#         224
  C:0068H         LINE#         225
  C:006BH         LINE#         226
  C:006BH         LINE#         227
  C:006BH         LINE#         228
BL51 BANKED LINKER/LOCATER V6.22                                                      12/20/2016  19:16:14  PAGE 7


  C:006EH         LINE#         229
  C:006EH         LINE#         230
  C:006EH         LINE#         231
  C:0071H         LINE#         232
  C:0071H         LINE#         233
  C:0071H         LINE#         234
  C:0074H         LINE#         235
  C:0074H         LINE#         236
  C:0074H         LINE#         237
  C:0077H         LINE#         238
  C:0077H         LINE#         239
  C:0077H         LINE#         240
  C:007AH         LINE#         241
  C:007AH         LINE#         242
  C:007AH         LINE#         243
  C:007DH         LINE#         244
  C:007DH         LINE#         245
  C:007FH         LINE#         246
  -------         ENDPROC       _SHOW_LED
  C:01F1H         SYMBOL        L?0050
  -------         PROC          L?0049
  -------         ENDPROC       L?0049
  C:01F1H         SYMBOL        L?0050
  -------         PROC          _DELAY
  D:0006H         SYMBOL        t
  -------         DO            
  D:0005H         SYMBOL        tm
  -------         ENDDO         
  C:01F5H         LINE#         250
  C:01F5H         LINE#         251
  C:01F5H         LINE#         252
  C:01F7H         LINE#         253
  C:0201H         LINE#         254
  C:0201H         LINE#         255
  C:0209H         LINE#         257
  -------         ENDPROC       _DELAY
  -------         ENDMOD        PROGRAM

  -------         MODULE        ?C?CLDOPTR
  C:00D7H         PUBLIC        ?C?CLDOPTR
  -------         ENDMOD        ?C?CLDOPTR

  -------         MODULE        ?C?CCASE
  C:0104H         PUBLIC        ?C?CCASE
  -------         ENDMOD        ?C?CCASE

Program Size: data=19.0 xdata=0 code=601
LINK/LOCATE RUN COMPLETE.  0 WARNING(S),  0 ERROR(S)
