C51 COMPILER V9.54   PROGRAM                                                               12/08/2016 22:37:59 PAGE 1   


C51 COMPILER V9.54, COMPILATION OF MODULE PROGRAM
OBJECT MODULE PLACED IN .\Objects\Program.obj
COMPILER INVOKED BY: C:\Keil_v5\C51\BIN\C51.EXE Program.c OPTIMIZE(8,SPEED) BROWSE DEBUG OBJECTEXTEND PRINT(.\Listings\P
                    -rogram.lst) OBJECT(.\Objects\Program.obj)

line level    source

   1          // 定时器中断控制数码管的显示
   2          // 外部中断控制数码管显示位的跳跃
   3          
   4          #include <REGX52.H>
   5          
   6          #define uchar unsigned char
   7          #define uint unsigned int
   8                  
   9          // 4位位选信号表
  10          uchar sign[] = {0x0E, 0x0D, 0x0B, 0x07};
  11          // 数码管数字0-9编码表, 0不显示内容
  12          uchar code table[] = {
  13                  0xC0,0xF9,0xA4,0xB0,
  14                  0x99,0x92,0x82,0xF8,
  15                  0x80,0x90
  16          };
  17          
  18          uint time = 0;
  19          // 当前位
  20          uchar position = 0;
  21          // 当前显示值
  22          uchar num = 0;
  23          
  24          void main(void)
  25          {
  26   1              // 定时器中断设置
  27   1              // 设置定时器工作模式, 16位定时器
  28   1              TMOD = 0x01;
  29   1              // 
  30   1              TH0 = 0xD8;
  31   1              TL0 = 0xF0;
  32   1              // 设置为定时器模式
  33   1              ET0 = 1;        
  34   1              // 开始定时
  35   1              TR0 = 1;
  36   1              
  37   1              // 外部中断0设置
  38   1              IT0 = 0;
  39   1              EX0 = 1;
  40   1              
  41   1              // 开总中断
  42   1              EA = 1;
  43   1              
  44   1              P2 = sign[position];
  45   1              P1 = table[num];
  46   1              while(1);
  47   1      }
  48          
  49          
  50          // 外部中断程序
  51          void int0() interrupt 0
  52          {
  53   1              // 防止连续中断
  54   1              EA = 0;
C51 COMPILER V9.54   PROGRAM                                                               12/08/2016 22:37:59 PAGE 2   

  55   1              
  56   1              ++position;
  57   1              
  58   1              position %= 4;
  59   1              
  60   1              EA = 1;
  61   1      }
  62          
  63          // 定时器中断程序
  64          void timer0() interrupt 1
  65          {
  66   1              // 关定时器
  67   1              TR0 = 0;
  68   1              // 每10毫秒中断一次
  69   1              TH0 = 0xD8;
  70   1              TL0 = 0xF0;
  71   1              
  72   1              TR0 = 1;
  73   1              
  74   1              time++;
  75   1              
  76   1              if(time == 100)
  77   1              {
  78   2                      if(num == 10) num = 0;
  79   2                      
  80   2                      P2 = sign[position];
  81   2                      P1 = table[num];
  82   2                      
  83   2                      time = 0;
  84   2                      num++;
  85   2              }
  86   1      }


MODULE INFORMATION:   STATIC OVERLAYABLE
   CODE SIZE        =    127    ----
   CONSTANT SIZE    =     10    ----
   XDATA SIZE       =   ----    ----
   PDATA SIZE       =   ----    ----
   DATA SIZE        =      8    ----
   IDATA SIZE       =   ----    ----
   BIT SIZE         =   ----    ----
END OF MODULE INFORMATION.


C51 COMPILATION COMPLETE.  0 WARNING(S),  0 ERROR(S)
