C51 COMPILER V9.54   PROGRAM                                                               01/14/2017 07:51:33 PAGE 1   


C51 COMPILER V9.54, COMPILATION OF MODULE PROGRAM
OBJECT MODULE PLACED IN .\Objects\Program.obj
COMPILER INVOKED BY: C:\Keil_v5\C51\BIN\C51.EXE Program.c OPTIMIZE(8,SPEED) BROWSE DEBUG OBJECTEXTEND PRINT(.\Listings\P
                    -rogram.lst) OBJECT(.\Objects\Program.obj)

line level    source

   1          // 标题：计数器仿真实验
   2          // 材料：51单片机，共阳极4段数码管，数字时钟发生器
   3          // 功能：数字时钟产生方波给计数器T0产生计数中断，累积的数值在数码管上显示
   4          
   5          #include <REGX52.H>
   6          
   7          #define uint unsigned int
   8          #define uchar unsigned char
   9          
  10          // 片选信号
  11          uchar code sign[] = {0x01, 0x02, 0x04, 0x08};
  12          
  13          // 共阳极数码管0-9编码
  14          uchar code table[] = {
  15                  0xC0,0xF9,0xA4,0xB0,
  16                  0x99,0x92,0x82,0xF8,
  17                  0x80,0x90
  18          };
  19          
  20          // 当前显示的内容
  21          uchar screen[] = {0, 0, 0, 0};
  22          
  23          // 1毫秒执行的指令数
  24          uchar times = 114;
  25          // 计数器累加值
  26          uint num = 0;
  27          uint count = 0;
  28          // 
  29          uint temp = 0;
  30          uchar n = 0;
  31          
  32          
  33          // 声明延时函数
  34          void delay(uint t);
  35          
  36          void main(void)
  37          {
  38   1              // 设置计数器初值, 每个脉冲计数一次
  39   1              TH0 = 0xFF;
  40   1              TL0 = 0xFE;
  41   1              // 设置T0为计数器模式
  42   1              TMOD = 0x05;
  43   1              // 开计数器中断
  44   1              ET0 = 1;
  45   1              // 开始计数
  46   1              TR0 = 1;
  47   1              // 开总中断
  48   1              EA = 1;
  49   1      
  50   1              while(1)
  51   1              {
  52   2                      // 分离出千位、百位、十位、个位
  53   2                      // 千位
  54   2                      n = count / 1000;
C51 COMPILER V9.54   PROGRAM                                                               01/14/2017 07:51:33 PAGE 2   

  55   2                      screen[0] = table[n];
  56   2                      // 百位
  57   2                      n = (count % 1000) / 100;
  58   2                      screen[1] = table[n];
  59   2                      // 十位
  60   2                      n = ((count % 1000) % 100) / 10;
  61   2                      screen[2] = table[n];
  62   2                      // 个位
  63   2                      n = count % 10;
  64   2                      screen[3] = table[n];
  65   2                      
  66   2                      // 每位显示时长
  67   2                      num = 20;
  68   2                      while(num--)
  69   2                      {
  70   3                              // 扫描数码管
  71   3                              // 扫描显示的时候，不要进行任何其它操作，否则显示会乱
  72   3                              for(n = 0; n < 4; n++)
  73   3                              {
  74   4                                      P2 = sign[n];
  75   4                                      P1 = screen[n];
  76   4                                      delay(1);
  77   4                              }
  78   3                      }
  79   2              }
  80   1      }
  81          
  82          // 计数器T0中断函数
  83          void counter0() interrupt 1
  84          {       
  85   1              EA = 0;
  86   1              TH0 = 0xFF;
  87   1              TL0 = 0xFE;
  88   1              
  89   1              count++;
  90   1              if(count >= 9999)
  91   1              {
  92   2                      count = 0;
  93   2              }
  94   1              EA = 1;
  95   1      }
  96          
  97          // 延时函数
  98          void delay(uint t)
  99          {
 100   1              times = 114;
 101   1              while(t--)
 102   1              {
 103   2                      while(times--);
 104   2              }
 105   1      }
 106                             


MODULE INFORMATION:   STATIC OVERLAYABLE
   CODE SIZE        =    236    ----
   CONSTANT SIZE    =     14    ----
   XDATA SIZE       =   ----    ----
   PDATA SIZE       =   ----    ----
   DATA SIZE        =     12    ----
   IDATA SIZE       =   ----    ----
   BIT SIZE         =   ----    ----
C51 COMPILER V9.54   PROGRAM                                                               01/14/2017 07:51:33 PAGE 3   

END OF MODULE INFORMATION.


C51 COMPILATION COMPLETE.  0 WARNING(S),  0 ERROR(S)
