BL51 BANKED LINKER/LOCATER V6.22                                                        12/10/2016  15:37:36  PAGE 1


BL51 BANKED LINKER/LOCATER V6.22, INVOKED BY:
C:\KEIL_V5\C51\BIN\BL51.EXE .\Objects\STARTUP.obj, .\Objects\Program.obj TO .\Objects\Project PRINT (.\Listings\Project.
>> m51) RAMSIZE (256)


MEMORY MODEL: SMALL


INPUT MODULES INCLUDED:
  .\Objects\STARTUP.obj (?C_STARTUP)
  .\Objects\Program.obj (PROGRAM)
  C:\KEIL_V5\C51\LIB\C51S.LIB (?C_INIT)
  C:\KEIL_V5\C51\LIB\C51S.LIB (?C?UIDIV)


LINK MAP OF MODULE:  .\Objects\Project (?C_STARTUP)


            TYPE    BASE      LENGTH    RELOCATION   SEGMENT NAME
            -----------------------------------------------------

            * * * * * * *   D A T A   M E M O R Y   * * * * * * *
            REG     0000H     0008H     ABSOLUTE     "REG BANK 0"
            DATA    0008H     0007H     UNIT         ?DT?PROGRAM
            IDATA   000FH     0001H     UNIT         ?STACK

            * * * * * * *   C O D E   M E M O R Y   * * * * * * *
            CODE    0000H     0003H     ABSOLUTE     
                    0003H     0008H                  *** GAP ***
            CODE    000BH     0003H     ABSOLUTE     
            CODE    000EH     0093H     UNIT         ?PR?MAIN?PROGRAM
            CODE    00A1H     008CH     UNIT         ?C_C51STARTUP
            CODE    012DH     0055H     UNIT         ?C?LIB_CODE
            CODE    0182H     0028H     UNIT         ?PR?_DELAY?PROGRAM
            CODE    01AAH     001FH     UNIT         ?PR?COUNTER0?PROGRAM
            CODE    01C9H     0010H     UNIT         ?C_INITSEG
            CODE    01D9H     000EH     UNIT         ?CO?PROGRAM



OVERLAY MAP OF MODULE:   .\Objects\Project (?C_STARTUP)


SEGMENT
  +--> CALLED SEGMENT
---------------------
?C_C51STARTUP
  +--> ?PR?MAIN?PROGRAM
  +--> ?C_INITSEG

?PR?MAIN?PROGRAM
  +--> ?CO?PROGRAM
  +--> ?PR?_DELAY?PROGRAM



SYMBOL TABLE OF MODULE:  .\Objects\Project (?C_STARTUP)

BL51 BANKED LINKER/LOCATER V6.22                                                      12/10/2016  15:37:36  PAGE 2


  VALUE           TYPE          NAME
  ----------------------------------

  -------         MODULE        ?C_STARTUP
  C:00A1H         SEGMENT       ?C_C51STARTUP
  I:000FH         SEGMENT       ?STACK
  C:0000H         PUBLIC        ?C_STARTUP
  D:00E0H         SYMBOL        ACC
  D:00F0H         SYMBOL        B
  D:0083H         SYMBOL        DPH
  D:0082H         SYMBOL        DPL
  N:0000H         SYMBOL        IBPSTACK
  N:0100H         SYMBOL        IBPSTACKTOP
  N:0080H         SYMBOL        IDATALEN
  C:00A4H         SYMBOL        IDATALOOP
  N:0000H         SYMBOL        PBPSTACK
  N:0100H         SYMBOL        PBPSTACKTOP
  N:0000H         SYMBOL        PDATALEN
  N:0000H         SYMBOL        PDATASTART
  N:0000H         SYMBOL        PPAGE
  N:0000H         SYMBOL        PPAGEENABLE
  D:00A0H         SYMBOL        PPAGE_SFR
  D:0081H         SYMBOL        SP
  C:00A1H         SYMBOL        STARTUP1
  N:0000H         SYMBOL        XBPSTACK
  N:0000H         SYMBOL        XBPSTACKTOP
  N:0000H         SYMBOL        XDATALEN
  N:0000H         SYMBOL        XDATASTART
  C:0000H         LINE#         126
  C:00A1H         LINE#         133
  C:00A3H         LINE#         134
  C:00A4H         LINE#         135
  C:00A5H         LINE#         136
  C:00A7H         LINE#         185
  C:00AAH         LINE#         196
  -------         ENDMOD        ?C_STARTUP

  -------         MODULE        PROGRAM
  C:0000H         SYMBOL        _ICE_DUMMY_
  D:0090H         PUBLIC        P1
  D:00A0H         PUBLIC        P2
  B:00A8H.7       PUBLIC        EA
  C:01DDH         PUBLIC        table
  C:0193H         PUBLIC        _delay
  D:0008H         PUBLIC        times
  C:000EH         PUBLIC        main
  D:0009H         PUBLIC        count
  C:01D9H         PUBLIC        sign
  C:01AAH         PUBLIC        counter0
  D:0089H         PUBLIC        TMOD
  D:000BH         PUBLIC        temp
  B:00A8H.1       PUBLIC        ET0
  D:008CH         PUBLIC        TH0
  D:008AH         PUBLIC        TL0
  D:000DH         PUBLIC        num
  B:0088H.4       PUBLIC        TR0
  -------         PROC          MAIN
BL51 BANKED LINKER/LOCATER V6.22                                                      12/10/2016  15:37:36  PAGE 3


  C:000EH         LINE#         36
  C:000EH         LINE#         37
  C:000EH         LINE#         39
  C:0011H         LINE#         41
  C:0013H         LINE#         43
  C:0015H         LINE#         45
  C:0017H         LINE#         47
  C:0017H         LINE#         48
  C:0017H         LINE#         50
  C:001DH         LINE#         52
  C:002AH         LINE#         53
  C:002AH         LINE#         55
  C:0031H         LINE#         56
  C:003AH         LINE#         58
  C:0041H         LINE#         59
  C:0049H         LINE#         60
  C:004CH         LINE#         62
  C:0053H         LINE#         63
  C:0060H         LINE#         64
  C:0063H         LINE#         66
  C:006AH         LINE#         67
  C:0084H         LINE#         68
  C:0087H         LINE#         70
  C:008EH         LINE#         71
  C:009BH         LINE#         72
  C:009EH         LINE#         73
  -------         ENDPROC       MAIN
  -------         PROC          COUNTER0
  C:01AAH         LINE#         78
  C:01AEH         LINE#         80
  C:01B6H         LINE#         81
  C:01BEH         LINE#         82
  C:01BEH         LINE#         83
  C:01C1H         LINE#         84
  C:01C4H         LINE#         85
  C:01C4H         LINE#         86
  -------         ENDPROC       COUNTER0
  C:018AH         SYMBOL        L?0018
  C:018FH         SYMBOL        L?0019
  -------         PROC          L?0017
  -------         ENDPROC       L?0017
  C:018AH         SYMBOL        L?0018
  C:018FH         SYMBOL        L?0019
  -------         PROC          _DELAY
  D:0006H         SYMBOL        t
  C:0193H         LINE#         90
  C:0193H         LINE#         91
  C:0193H         LINE#         92
  C:0196H         LINE#         93
  C:01A0H         LINE#         94
  C:01A0H         LINE#         95
  C:01A9H         LINE#         97
  -------         ENDPROC       _DELAY
  -------         ENDMOD        PROGRAM

  -------         MODULE        ?C?UIDIV
  C:012DH         PUBLIC        ?C?UIDIV
BL51 BANKED LINKER/LOCATER V6.22                                                      12/10/2016  15:37:36  PAGE 4


  -------         ENDMOD        ?C?UIDIV

Program Size: data=16.0 xdata=0 code=479
LINK/LOCATE RUN COMPLETE.  0 WARNING(S),  0 ERROR(S)
