:03000000020003F8
:0C000300787FE4F6D8FD75811102004AF8
:1000FC00020A0FFF020E0000010C00010D000208A5
:06010C0000530210000088
:10008F00C2A1C2A0E50AF50CE50BF50DD2A0850CB7
:10009F0090C2A0D2A1850D90C2A17F327E00120026
:1000AF00D8E50AC41313135401F50F750E00530F3F
:1000BF0001750E00E50B25E0F50BE50A33F50AE5B2
:0900CF000F420BE50E420A80BB52
:1000D800EF1FAC0670011E4C6019850810850911C8
:1000E800C3E5106480948040E7E511151170F1159F
:0400F8001080ED2265
:10000F0002008FE493A3F8E493A34003F68001F278
:10001F0008DFF48029E493A3F85407240CC8C333F2
:10002F00C4540F4420C8834004F456800146F6DFC1
:10003F00E4800B01020408102040809000FCE47E55
:10004F00019360BCA3FF543F30E509541FFEE493B6
:10005F00A360010ECF54C025E060A840B8E493A37D
:10006F00FAE493A3F8E493A3C8C582C8CAC583CAA8
:10007F00F0A3C8C582C8CAC583CADFE9DEE780BE60
:0101120000EC
:00000001FF
