C51 COMPILER V9.54   PROGRAM                                                               12/17/2016 20:58:34 PAGE 1   


C51 COMPILER V9.54, COMPILATION OF MODULE PROGRAM
OBJECT MODULE PLACED IN .\Objects\Program.obj
COMPILER INVOKED BY: C:\Keil_v5\C51\BIN\C51.EXE Program.c OPTIMIZE(8,SPEED) BROWSE DEBUG OBJECTEXTEND PRINT(.\Listings\P
                    -rogram.lst) OBJECT(.\Objects\Program.obj)

line level    source

   1          // 功能：8×8LED模组显示英文字符
   2          // 平台：Proteus
   3          // 实现：
   4          
   5          #include <REGX52.H>
   6          //#include <intrins.h>
   7          
   8          #define uint unsigned int
   9          #define uchar unsigned char
  10                  
  11          uchar pos = 0xFE;
  12          uchar temp = 0;
  13          uchar offset = 0;
  14          uchar n = 0;
  15          uchar times = 0;
  16          
  17          // 16×16字符编码
  18          uchar code fonts[] = {
  19          //      //"你",
  20          //      0x11,0x00,0x11,0x00,0x11,0x00,0x23,0xFC,
  21          //      0x22,0x04,0x64,0x08,0xA8,0x40,0x20,0x40,
  22          //      0x21,0x50,0x21,0x48,0x22,0x4C,0x24,0x44,
  23          //      0x20,0x40,0x20,0x40,0x21,0x40,0x20,0x80,
  24          
  25          //      //"好", 
  26          //      0x10,0x00,0x11,0xFC,0x10,0x04,0x10,0x08,
  27          //      0xFC,0x10,0x24,0x20,0x24,0x24,0x27,0xFE,
  28          //      0x24,0x20,0x44,0x20,0x28,0x20,0x10,0x20,
  29          //      0x28,0x20,0x44,0x20,0x84,0xA0,0x00,0x40,
  30          
  31          //      //"啊", 
  32          //      0x00,0x04,0x2F,0x7E,0xF9,0x04,0xA9,0x04,
  33          //      0xAA,0x14,0xAA,0x7C,0xAC,0x54,0xAA,0x54,
  34          //      0xAA,0x54,0xA9,0x54,0xE9,0x74,0xAD,0x54,
  35          //      0x0A,0x04,0x08,0x04,0x08,0x14,0x08,0x0C,
  36          
  37                  //"我",
  38                  0x04,0x80,0x0E,0xA0,0x78,0x90,0x08,0x90,
  39                  0x08,0x84,0xFF,0xFE,0x08,0x80,0x08,0x90,
  40                  0x0A,0x90,0x0C,0x60,0x18,0x40,0x68,0xA0,
  41                  0x09,0x20,0x0A,0x14,0x28,0x14,0x10,0x0C,
  42          
  43                  //"爱", 
  44                  0x00,0x78,0x3F,0x80,0x11,0x10,0x09,0x20,
  45                  0x7F,0xFE,0x42,0x02,0x82,0x04,0x7F,0xF8,
  46                  0x04,0x00,0x07,0xF0,0x0A,0x20,0x09,0x40,
  47                  0x10,0x80,0x11,0x60,0x22,0x1C,0x0C,0x08,
  48          
  49                  //"中", 
  50                  0x01,0x00,0x01,0x00,0x01,0x04,0x7F,0xFE,
  51                  0x41,0x04,0x41,0x04,0x41,0x04,0x41,0x04,
  52                  0x7F,0xFC,0x41,0x04,0x01,0x00,0x01,0x00,
  53                  0x01,0x00,0x01,0x00,0x01,0x00,0x01,0x00,
  54          
C51 COMPILER V9.54   PROGRAM                                                               12/17/2016 20:58:34 PAGE 2   

  55                  //"国", 
  56                  0x00,0x04,0x7F,0xFE,0x40,0x24,0x5F,0xF4,
  57                  0x41,0x04,0x41,0x04,0x41,0x44,0x4F,0xE4,
  58                  0x41,0x04,0x41,0x44,0x41,0x24,0x41,0x04,
  59                  0x5F,0xF4,0x40,0x04,0x7F,0xFC,0x40,0x04,
  60          
  61                  //"，", 
  62                  0x00,0x00,0x00,0x00,0x00,0x00,0x00,0x00,
  63                  0x00,0x00,0x00,0x00,0x00,0x00,0x00,0x00,
  64                  0x0C,0x00,0x1E,0x00,0x1E,0x00,0x0C,0x00,
  65                  0x04,0x00,0x08,0x00,0x10,0x00,0x00,0x00,
  66          
  67                  //"和", 
  68                  0x02,0x00,0x07,0x00,0x78,0x00,0x08,0x04,
  69                  0x0A,0xFE,0xFF,0x84,0x08,0x84,0x18,0x84,
  70                  0x1C,0x84,0x2A,0x84,0x2A,0x84,0x48,0x84,
  71                  0x88,0xFC,0x08,0x84,0x08,0x00,0x08,0x00,
  72          
  73                  //"可", 
  74                  0x00,0x04,0xFF,0xFE,0x00,0x10,0x00,0x90,
  75                  0x1F,0xD0,0x10,0x90,0x10,0x90,0x10,0x90,
  76                  0x10,0x90,0x10,0x90,0x1F,0x90,0x10,0x90,
  77                  0x00,0x10,0x00,0x10,0x00,0x50,0x00,0x20,
  78          
  79                  //"的", 
  80                  0x10,0x40,0x10,0x40,0x22,0x44,0x7F,0x7E,
  81                  0x42,0x84,0x43,0x04,0x42,0x04,0x42,0x84,
  82                  0x7E,0x64,0x42,0x24,0x42,0x04,0x42,0x04,
  83                  0x42,0x04,0x7E,0x04,0x42,0x28,0x00,0x10,
  84          
  85                  //"单", 
  86                  0x10,0x10,0x08,0x20,0x04,0x48,0x3F,0xFC,
  87                  0x21,0x08,0x21,0x08,0x3F,0xF8,0x21,0x08,
  88                  0x21,0x08,0x3F,0xF8,0x21,0x00,0x01,0x04,
  89                  0xFF,0xFE,0x01,0x00,0x01,0x00,0x01,0x00,
  90          
  91                  //"片", 
  92                  0x00,0x80,0x20,0x80,0x20,0x80,0x20,0x80,
  93                  0x20,0x84,0x3F,0xFE,0x20,0x00,0x20,0x00,
  94                  0x3F,0xC0,0x20,0x40,0x20,0x40,0x20,0x40,
  95                  0x20,0x40,0x20,0x40,0x40,0x40,0x80,0x40,
  96          
  97                  //"机", 
  98                  0x10,0x00,0x10,0x10,0x11,0xF8,0x11,0x10,
  99                  0xFD,0x10,0x11,0x10,0x31,0x10,0x39,0x10,
 100                  0x55,0x10,0x51,0x10,0x91,0x10,0x11,0x10,
 101                  0x11,0x12,0x12,0x12,0x14,0x0E,0x18,0x00,
 102          
 103                  //"！", 
 104                  0x00,0x00,0x01,0x80,0x03,0xC0,0x03,0xC0,
 105                  0x03,0xC0,0x03,0xC0,0x03,0xC0,0x01,0x80,
 106                  0x01,0x80,0x01,0x80,0x00,0x00,0x01,0x80,
 107                  0x03,0xC0,0x01,0x80,0x00,0x00,0x00,0x00
 108          };
 109          
 110          void delay(uint t);
 111          
 112          void main(void)
 113          {
 114   1              uchar i = 0;
 115   1              while(1)
 116   1              {
C51 COMPILER V9.54   PROGRAM                                                               12/17/2016 20:58:34 PAGE 3   

 117   2                      for(offset = 0; offset < 12; offset++)
 118   2                      {
 119   3                              times = 0;
 120   3                              // 每个字母显示的时间
 121   3                              while(times++ < 200)
 122   3                              {
 123   4                                      // 显示一个字符
 124   4                                      
 125   4                                      // 字符的上半部
 126   4                                      pos = 0xFE;
 127   4                                      P3 = 0xFF;
 128   4                                      for(n = 0; n < 16; n+=2)
 129   4                                      {
 130   5                                              // 行定位
 131   5                                              P1 = pos;                                       
 132   5                                              // 字符的前8位
 133   5                                              i = offset * 32 + n;
 134   5                                              P2 = fonts[i];
 135   5                                              
 136   5                                              // 字符的后8位
 137   5                                              i += 1;
 138   5                                              P0 = fonts[i];
 139   5                                              
 140   5                                              delay(1);
 141   5                                              
 142   5                                              // 循环左移
 143   5                                              temp = pos & 0x80;
 144   5                                              pos <<= 1;
 145   5                                              pos |= (temp >> 7);
 146   5                                      }
 147   4                                      
 148   4                                      
 149   4                                      // 字符的下半部
 150   4                                      pos = 0xFE;
 151   4                                      P1 = 0xFF;
 152   4                                      for(n = 16; n < 32; n+=2)
 153   4                                      {
 154   5                                              // 行定位
 155   5                                              P3 = pos;
 156   5                                              // 字符的前8位
 157   5                                              i = offset * 32 + n;
 158   5                                              P2 = fonts[i];
 159   5                                              
 160   5                                              // 字符的后8位
 161   5                                              i += 1;
 162   5                                              P0 = fonts[i];
 163   5                                              
 164   5                                              delay(1);
 165   5                                              
 166   5                                              // 循环左移
 167   5                                              temp = pos & 0x80;
 168   5                                              pos <<= 1;
 169   5                                              pos |= (temp >> 7);
 170   5                                      }
 171   4                              }
 172   3                      }
 173   2              }
 174   1      }
 175          
 176          void delay(uint t)
 177          {
 178   1              uchar tm = 114;
C51 COMPILER V9.54   PROGRAM                                                               12/17/2016 20:58:34 PAGE 4   

 179   1              while(t--)
 180   1              {
 181   2                      while(tm--);
 182   2              }
 183   1      }


MODULE INFORMATION:   STATIC OVERLAYABLE
   CODE SIZE        =    179    ----
   CONSTANT SIZE    =    384    ----
   XDATA SIZE       =   ----    ----
   PDATA SIZE       =   ----    ----
   DATA SIZE        =      5       1
   IDATA SIZE       =   ----    ----
   BIT SIZE         =   ----    ----
END OF MODULE INFORMATION.


C51 COMPILATION COMPLETE.  0 WARNING(S),  0 ERROR(S)
