C51 COMPILER V9.54   PROGRAM                                                               12/07/2016 22:50:19 PAGE 1   


C51 COMPILER V9.54, COMPILATION OF MODULE PROGRAM
OBJECT MODULE PLACED IN .\Objects\Program.obj
COMPILER INVOKED BY: C:\Keil_v5\C51\BIN\C51.EXE Program.c OPTIMIZE(8,SPEED) BROWSE DEBUG OBJECTEXTEND PRINT(.\Listings\P
                    -rogram.lst) OBJECT(.\Objects\Program.obj)

line level    source

   1          // 51实验板演示程序
   2          // 定时器0中断演示
   3          // 本程序使用了共阳极数码管
   4          // 通过定时器中断实现数码管的动态显示
   5          
   6          #include <REGX52.H>
   7          
   8          #define uchar unsigned char
   9          #define uint unsigned int
  10          
  11          uchar num = 0;
  12          uchar time = 0;
  13                  
  14          
  15          // 共阳极数码管编码表
  16          uchar code table[] = {
  17                  0xc0,0xf9,0xa4,0xb0,
  18                  0x99,0x92,0x82,0xf8,
  19                  0x80,0x90,0x88,0x83,
  20                  0xc6,0xa1,0x86,0x8e
  21          };
  22          
  23          void main(void)
  24          {
  25   1              // 定时计数器初值
  26   1              TH0 = (65536 - 10000) / 256;
  27   1              TL0 = (65536 - 10000) % 256;
  28   1              
  29   1              // 中断总开关
  30   1              EA = 1;
  31   1              // 定时器0中断允许开关
  32   1              ET0 = 1;
  33   1              //设置定时器0为工作方式1
  34   1              TMOD = 0x11;
  35   1              // 启动定时器0
  36   1              TR0 = 1;
  37   1              
  38   1              while(1);
  39   1      }
  40          
  41          // 定时10m秒
  42          void timer0() interrupt 1
  43          {
  44   1              // 定时计数器初值
  45   1              TH0 = (65536 - 10000) / 256;
  46   1              TL0 = (65536 - 10000) % 256;
  47   1              
  48   1              time++;
  49   1              
  50   1              if(time == 100)
  51   1              {
  52   2                      time = 0;
  53   2                      if(num > 15) num = 0;
  54   2                      
C51 COMPILER V9.54   PROGRAM                                                               12/07/2016 22:50:19 PAGE 2   

  55   2                      P1 = table[num++];
  56   2              }
  57   1      }


MODULE INFORMATION:   STATIC OVERLAYABLE
   CODE SIZE        =     78    ----
   CONSTANT SIZE    =     16    ----
   XDATA SIZE       =   ----    ----
   PDATA SIZE       =   ----    ----
   DATA SIZE        =      2    ----
   IDATA SIZE       =   ----    ----
   BIT SIZE         =   ----    ----
END OF MODULE INFORMATION.


C51 COMPILATION COMPLETE.  0 WARNING(S),  0 ERROR(S)
