:03000000020100FA
:10010000854F81C2D3C2D475900FE590540FB40FC0
:100110000280F4753018120179E590540FB40F0283
:1001200080E5F5317590F0E59054F0B4F00280D799
:10013000753018120179E59054F0B4F00280C8F5DA
:10014000324531F533120152E533F4F5B080B8028F
:10015000019EC0D0C0E0C2D3D2D47C1F7B00EB9004
:10016000018E93FA0B1CEC6008EAB533F18B3380F7
:1001700003753300D0E0D0D022C0D0C0E0C2D3D2CB
:10018000D4AA307BFADBFEDAFAD0E0D0D022EEDE61
:0E019000BE7EEDDDBD7DEBDBBB7BE7D7B77739
:00000001FF
