:0300000002000EED
:0C000E00787FE4F6D8FD75810F020055E4
:0A012A00C0F9A4B0999282F8809009
:10010F00040A0E0D0B0702080000010F00010E007C
:1000EA00758901758CD8758AF0D2A9D28CC288D24A
:1000FA00A8D2AF740A250FF8E6F5A0E50E90012AFA
:05010A0093F59080FE5A
:03000300020120D7
:0A012000C2AF050F530F03D2AF3238
:03000B0002009A56
:10009A00C0E0C083C082C0D075D000C000C28C75D9
:1000AA008CD8758AF0D28C0509E5097002050864B6
:1000BA006445087020E50EB40A03750E00740A251B
:1000CA000FF8E6F5A0E50E90012A93F59075080061
:1000DA00750900050ED000D0D0D082D083D0E0328E
:10001A000200EAE493A3F8E493A34003F68001F212
:10002A0008DFF48029E493A3F85407240CC8C333E7
:10003A00C4540F4420C8834004F456800146F6DFB6
:10004A00E4800B010204081020408090010FE47E36
:10005A00019360BCA3FF543F30E509541FFEE493AB
:10006A00A360010ECF54C025E060A840B8E493A372
:10007A00FAE493A3F8E493A3C8C582C8CAC583CA9D
:10008A00F0A3C8C582C8CAC583CADFE9DEE780BE55
:01011F0000DF
:00000001FF
