BL51 BANKED LINKER/LOCATER V6.22                                                        01/26/2017  20:35:05  PAGE 1


BL51 BANKED LINKER/LOCATER V6.22, INVOKED BY:
C:\KEIL_V5\C51\BIN\BL51.EXE .\Objects\NECEncoder.obj TO .\Objects\NECEncoder REGFILE (.\Objects\NECEncoder.ORC) PRINT (.
>> \Listings\NECEncoder.m51) RAMSIZE (256)


MEMORY MODEL: SMALL


INPUT MODULES INCLUDED:
  .\Objects\NECEncoder.obj (NECENCODER)
  C:\KEIL_V5\C51\LIB\C51S.LIB (?C_STARTUP)
  C:\KEIL_V5\C51\LIB\C51S.LIB (?C_INIT)


LINK MAP OF MODULE:  .\Objects\NECEncoder (NECENCODER)


            TYPE    BASE      LENGTH    RELOCATION   SEGMENT NAME
            -----------------------------------------------------

            * * * * * * *   D A T A   M E M O R Y   * * * * * * *
            REG     0000H     0008H     ABSOLUTE     "REG BANK 0"
            DATA    0008H     0005H     UNIT         ?DT?MAIN?NECENCODER
            DATA    000DH     0003H     UNIT         ?DT?_MAKESIGNAL?NECENCODER
            DATA    0010H     0003H     UNIT         ?DT?KEYSCAN?NECENCODER
            DATA    0013H     0002H     UNIT         ?DT?_SENDBYTE?NECENCODER
            DATA    0015H     0002H     UNIT         ?DT?_DELAY?NECENCODER
                    0017H     0009H                  *** GAP ***
            BIT     0020H.0   0000H.1   UNIT         ?BI?NECENCODER
                    0020H.1   0000H.7                *** GAP ***
            IDATA   0021H     0001H     UNIT         ?STACK

            * * * * * * *   C O D E   M E M O R Y   * * * * * * *
            CODE    0000H     0003H     ABSOLUTE     
            CODE    0003H     008CH     UNIT         ?C_C51STARTUP
            CODE    008FH     005DH     UNIT         ?PR?MAIN?NECENCODER
            CODE    00ECH     005CH     UNIT         ?PR?KEYSCAN?NECENCODER
            CODE    0148H     004AH     UNIT         ?PR?_MAKESIGNAL?NECENCODER
            CODE    0192H     0024H     UNIT         ?PR?_SENDBYTE?NECENCODER
            CODE    01B6H     0017H     UNIT         ?PR?SENDBIT0?NECENCODER
            CODE    01CDH     0017H     UNIT         ?PR?SENDBIT1?NECENCODER
            CODE    01E4H     0015H     UNIT         ?PR?_DELAY?NECENCODER
            CODE    01F9H     0010H     UNIT         ?CO?NECENCODER
            CODE    0209H     0003H     UNIT         ?C_INITSEG



OVERLAY MAP OF MODULE:   .\Objects\NECEncoder (NECENCODER)


SEGMENT
  +--> CALLED SEGMENT
---------------------
?C_C51STARTUP
  +--> ?PR?MAIN?NECENCODER
  +--> ?C_INITSEG

?PR?MAIN?NECENCODER
BL51 BANKED LINKER/LOCATER V6.22                                                      01/26/2017  20:35:05  PAGE 2


  +--> ?PR?KEYSCAN?NECENCODER
  +--> ?CO?NECENCODER
  +--> ?PR?_MAKESIGNAL?NECENCODER
  +--> ?PR?_SENDBYTE?NECENCODER

?PR?KEYSCAN?NECENCODER
  +--> ?PR?_DELAY?NECENCODER
  +--> ?CO?NECENCODER

?PR?_SENDBYTE?NECENCODER
  +--> ?PR?SENDBIT1?NECENCODER
  +--> ?PR?SENDBIT0?NECENCODER

?PR?SENDBIT1?NECENCODER
  +--> ?PR?_MAKESIGNAL?NECENCODER

?PR?SENDBIT0?NECENCODER
  +--> ?PR?_MAKESIGNAL?NECENCODER



SYMBOL TABLE OF MODULE:  .\Objects\NECEncoder (NECENCODER)

  VALUE           TYPE          NAME
  ----------------------------------

  -------         MODULE        NECENCODER
  C:0000H         SYMBOL        _ICE_DUMMY_
  C:01CDH         PUBLIC        sendBit1
  D:0080H         PUBLIC        P0
  D:0090H         PUBLIC        P1
  C:0148H         PUBLIC        _makeSignal
  B:0020H.0       PUBLIC        STATE
  C:01E4H         PUBLIC        _delay
  B:0080H.7       PUBLIC        IROUT
  C:008FH         PUBLIC        main
  C:0192H         PUBLIC        _sendByte
  C:00ECH         PUBLIC        keyScan
  B:0080H.0       PUBLIC        LED
  C:01F9H         PUBLIC        keyboard
  C:01B6H         PUBLIC        sendBit0
  -------         PROC          MAIN
  -------         DO            
  D:0008H         SYMBOL        key
  D:0009H         SYMBOL        dat
  D:000AH         SYMBOL        rdat
  D:000BH         SYMBOL        addr
  D:000CH         SYMBOL        raddr
  -------         ENDDO         
  C:008FH         LINE#         49
  C:008FH         LINE#         50
  C:008FH         LINE#         52
  C:0092H         LINE#         54
  C:0092H         LINE#         55
  C:0092H         LINE#         56
  C:0097H         LINE#         60
  C:009EH         LINE#         61
BL51 BANKED LINKER/LOCATER V6.22                                                      01/26/2017  20:35:05  PAGE 3


  C:009EH         LINE#         62
  C:00A8H         LINE#         63
  C:00ADH         LINE#         64
  C:00B2H         LINE#         67
  C:00B4H         LINE#         68
  C:00B6H         LINE#         70
  C:00BDH         LINE#         73
  C:00BFH         LINE#         74
  C:00C1H         LINE#         76
  C:00C8H         LINE#         79
  C:00CDH         LINE#         81
  C:00D2H         LINE#         83
  C:00D7H         LINE#         85
  C:00DCH         LINE#         88
  C:00DEH         LINE#         89
  C:00E0H         LINE#         91
  C:00E7H         LINE#         93
  C:00E9H         LINE#         94
  C:00E9H         LINE#         95
  C:00EBH         LINE#         96
  -------         ENDPROC       MAIN
  -------         PROC          _SENDBYTE
  D:0013H         SYMBOL        byte
  -------         DO            
  D:0014H         SYMBOL        i
  -------         ENDDO         
  C:0192H         LINE#         103
  C:0194H         LINE#         104
  C:0194H         LINE#         106
  C:019EH         LINE#         107
  C:019EH         LINE#         109
  C:01A3H         LINE#         110
  C:01A3H         LINE#         111
  C:01A6H         LINE#         112
  C:01A8H         LINE#         115
  C:01A8H         LINE#         116
  C:01ABH         LINE#         117
  C:01ABH         LINE#         119
  C:01B1H         LINE#         120
  C:01B5H         LINE#         121
  -------         ENDPROC       _SENDBYTE
  -------         PROC          SENDBIT0
  C:01B6H         LINE#         130
  C:01B6H         LINE#         131
  C:01B6H         LINE#         132
  C:01B8H         LINE#         133
  C:01BAH         LINE#         135
  C:01C1H         LINE#         137
  C:01C3H         LINE#         138
  C:01C5H         LINE#         140
  C:01CCH         LINE#         141
  -------         ENDPROC       SENDBIT0
  -------         PROC          SENDBIT1
  C:01CDH         LINE#         148
  C:01CDH         LINE#         149
  C:01CDH         LINE#         150
  C:01CFH         LINE#         151
BL51 BANKED LINKER/LOCATER V6.22                                                      01/26/2017  20:35:05  PAGE 4


  C:01D1H         LINE#         154
  C:01D8H         LINE#         156
  C:01DAH         LINE#         157
  C:01DCH         LINE#         159
  C:01E3H         LINE#         160
  -------         ENDPROC       SENDBIT1
  -------         PROC          _MAKESIGNAL
  D:000DH         SYMBOL        t
  -------         DO            
  D:000FH         SYMBOL        i
  -------         ENDDO         
  C:0148H         LINE#         169
  C:014CH         LINE#         170
  C:014CH         LINE#         173
  C:014FH         LINE#         174
  C:014FH         LINE#         176
  C:015EH         LINE#         177
  C:015EH         LINE#         179
  C:0161H         LINE#         180
  C:0164H         LINE#         181
  C:0167H         LINE#         182
  C:016AH         LINE#         183
  C:016DH         LINE#         185
  C:016EH         LINE#         187
  C:016EH         LINE#         189
  C:017DH         LINE#         190
  C:017DH         LINE#         192
  C:0180H         LINE#         193
  C:0183H         LINE#         196
  C:0185H         LINE#         197
  C:0188H         LINE#         198
  C:018BH         LINE#         200
  C:018FH         LINE#         201
  C:0191H         LINE#         203
  C:0191H         LINE#         204
  -------         ENDPROC       _MAKESIGNAL
  -------         PROC          _DELAY
  D:0015H         SYMBOL        t
  C:01E4H         LINE#         211
  C:01E8H         LINE#         212
  C:01E8H         LINE#         213
  C:01F8H         LINE#         214
  -------         ENDPROC       _DELAY
  -------         PROC          KEYSCAN
  -------         DO            
  D:0010H         SYMBOL        keycode
  D:0011H         SYMBOL        row
  D:0012H         SYMBOL        col
  -------         ENDDO         
  C:00ECH         LINE#         221
  C:00ECH         LINE#         222
  C:00ECH         LINE#         225
  C:00EFH         LINE#         228
  C:00F9H         LINE#         229
  C:00F9H         LINE#         230
  C:00FBH         LINE#         232
  C:0102H         LINE#         234
BL51 BANKED LINKER/LOCATER V6.22                                                      01/26/2017  20:35:05  PAGE 5


  C:010CH         LINE#         235
  C:010CH         LINE#         236
  C:0112H         LINE#         239
  C:0115H         LINE#         240
  C:011BH         LINE#         243
  C:0120H         LINE#         244
  C:0122H         LINE#         245
  C:0122H         LINE#         246
  C:0122H         LINE#         248
  C:0128H         LINE#         250
  C:0132H         LINE#         251
  C:0132H         LINE#         252
  C:013EH         LINE#         253
  C:013EH         LINE#         254
  C:0141H         LINE#         255
  C:0141H         LINE#         256
  C:0145H         LINE#         258
  C:0147H         LINE#         259
  -------         ENDPROC       KEYSCAN
  -------         ENDMOD        NECENCODER



FUNCTION REGISTER MASKS


FUNCTION . . . . . REG MASK
---------------------------

KEYSCAN. . . . . . @0xf303
_DELAY . . . . . . @0xe003
_MAKESIGNAL. . . . @0xf003

Program Size: data=24.1 xdata=0 code=524
LINK/LOCATE RUN COMPLETE.  0 WARNING(S),  0 ERROR(S)
