C51 COMPILER V9.54   TEST                                                                  01/26/2017 01:51:01 PAGE 1   


C51 COMPILER V9.54, COMPILATION OF MODULE TEST
OBJECT MODULE PLACED IN .\Objects\Test.obj
COMPILER INVOKED BY: C:\Keil_v5\C51\BIN\C51.EXE Test.c OPTIMIZE(8,SPEED) BROWSE DEBUG OBJECTEXTEND PRINT(.\Listings\Test
                    -.lst) OBJECT(.\Objects\Test.obj)

line level    source

   1          /********************************* 深圳市航太电子有限公司 *******************************
   2          * 实 验 名 ：红外遥控发射
   3          * 实验说明 ：烧录成功后，将单片机的红外发射口对着另外一个运行 遥控键值解码实验 程序的单片机，
   4          *            按下相应的矩阵键盘按键即可实现键值发送
   5          * 实验平台 ：航太DIY51单片机开发板V1.0
   6          * 连接方式 ：CN19的HW_DRI接CN15的P16
   7                       CN6接CN14，KEY1到KEY8分别对应P30到P37
   8                             CN5接CN16，按pin编号从小到大连接，L1到L8分别接P00到P07
   9          * 注    意 ：程序通过关断和打开TR1来实现发送低电平和高电平，打开TR1时，发送38k高电平载波，接收端经过反相后
             -接收到低电平，
  10          *            关断TR1时，发送端不发送载波，接收端经反相后接收到高电平
  11          * 作    者 ：航太电子产品研发部    QQ ：1909197536
  12          * 店    铺 ：http://shop120013844.taobao.com/
  13          ****************************************************************************************/
  14          #include <reg52.h> 
  15          
  16          #define FOSC 11059200L //晶振设置，默认使用11.0592M Hz
  17          //#define FOSC 12000000L //晶振设置，使用12M Hz
  18          //#define FOSC 24000000L //晶振设置，使用24M Hz
  19          
  20          //IO接口定义
  21          sbit IR_OUT=P0^0 ;
  22          sbit LED = P0^7; 
  23          
  24          #define LED_PORT LED
  25          #define KEY_PORT P1
  26          
  27          unsigned char KeyScan();
  28          void LEDdisplay(unsigned char num);
  29          
  30          /*******************************************************************************
  31          * 函 数 名 ：Delayms
  32          * 函数功能 ：实现 ms级的延时
  33          * 输    入 ：ms
  34          * 输    出 ：无
  35          *******************************************************************************/
  36          void Delayms(unsigned int ms)
  37          {
  38   1              unsigned int i,j;
  39   1              for(i=0;i<ms;i++)
  40   1              #if FOSC == 11059200L
  41   1                      for(j=0;j<114;j++);
  42   1              #elif FOSC == 12000000L
                        for(j=0;j<123;j++);
                      #elif FOSC == 24000000L
                              for(j=0;j<249;j++);
                      #else
                              for(j=0;j<114;j++);
                      #endif
  49   1      }
  50          
  51          /*******************************************************************************
  52          * 函 数 名 ：Init_Timer
  53          * 函数功能 ：定时器1初始化 13us产生一次中断 用于产生38K载波 
C51 COMPILER V9.54   TEST                                                                  01/26/2017 01:51:01 PAGE 2   

  54          * 输    入 ：无
  55          * 输    出 ：无
  56          *******************************************************************************/
  57          void Init_Timer(void) 
  58          { 
  59   1              TMOD=0x21;       //T0 mode 1      T1 mode 2     
  60   1              TH1=256-(1000*11.002/38.0/12)/2+0.5;                                            
  61   1              //特殊
  62   1              TL1=TH1; 
  63   1              ET1=1; 
  64   1              EA=1; 
  65   1      } 
  66          
  67          /*******************************************************************************
  68          * 函 数 名 ：Send_Start_Bit
  69          * 函数功能 ：发送引导码  发送方:9ms高电平 4.5ms低电平 
  70          * 输    入 ：无
  71          * 输    出 ：无
  72          *******************************************************************************/
  73          void Send_Start_Bit(void)    //TR1的值=发送的电平 
  74          { 
  75   1              //9ms 1 
  76   1              TH0=(65536-8295)/256;  
  77   1              TL0=(65536-8295)%256; 
  78   1              TR0=1; 
  79   1              TR1=1; 
  80   1              
  81   1              while(!TF0); 
  82   1              
  83   1              TR1=0; 
  84   1              TF0=0;
  85   1              TR0=0; 
  86   1              
  87   1              IR_OUT=1; 
  88   1              //4.5ms 0 
  89   1              TH0=(65536-4146)/256;  
  90   1              TL0=(65536-4146)%256; 
  91   1              TR0=1; 
  92   1              TR1=0; 
  93   1              
  94   1              while(!TF0); 
  95   1              
  96   1              TR1=0; 
  97   1              TF0=0;
  98   1              TR0=0; 
  99   1              
 100   1              IR_OUT=1; 
 101   1      } 
 102          
 103          /*******************************************************************************
 104          * 函 数 名 ：Send_Bit_0
 105          * 函数功能 ：发送bit0
 106          * 输    入 ：无
 107          * 输    出 ：无
 108          *******************************************************************************/
 109          void Send_Bit_0(void) 
 110          { 
 111   1              //0.565ms 1 
 112   1              TH0=(65536-521)/256;  
 113   1              TL0=(65536-521)%256; 
 114   1              TR0=1; 
 115   1              TR1=1; 
C51 COMPILER V9.54   TEST                                                                  01/26/2017 01:51:01 PAGE 3   

 116   1              
 117   1              while(!TF0); 
 118   1              
 119   1              TR1=0; 
 120   1              TF0=0;
 121   1              TR0=0; 
 122   1              
 123   1              IR_OUT=1; 
 124   1              //0.565ms 0 
 125   1              TH0=(65536-521)/256;  
 126   1              TL0=(65536-521)%256; 
 127   1              TR0=1; 
 128   1              TR1=0; 
 129   1              
 130   1              while(!TF0); 
 131   1              
 132   1              TR1=0; 
 133   1              TF0=0;
 134   1              TR0=0; 
 135   1              
 136   1              IR_OUT=1; 
 137   1      } 
 138          
 139          /*******************************************************************************
 140          * 函 数 名 ：Send_Bit_1
 141          * 函数功能 ：发送bit1
 142          * 输    入 ：无
 143          * 输    出 ：无
 144          *******************************************************************************/
 145          void Send_Bit_1(void) 
 146          { 
 147   1      //0.565ms 1 
 148   1              TH0=(65536-521)/256;  
 149   1              TL0=(65536-521)%256; 
 150   1              TR0=1; 
 151   1              TR1=1; 
 152   1              
 153   1              while(!TF0); 
 154   1              
 155   1              TR1=0; 
 156   1              TF0=0;
 157   1              TR0=0; 
 158   1              
 159   1              IR_OUT=1;
 160   1              //1.685ms 0 
 161   1              TH0=(65536-1563)/256;  
 162   1              TL0=(65536-1563)%256; 
 163   1              TR0=1; 
 164   1              TR1=0; 
 165   1              
 166   1              while(!TF0); 
 167   1              
 168   1              TR1=0; 
 169   1              TF0=0;
 170   1              TR0=0; 
 171   1              
 172   1              IR_OUT=1;  
 173   1      } 
 174          
 175          /*******************************************************************************
 176          * 函 数 名 ：Send_over
 177          * 函数功能 ：发送一个结束码，因为最后一个位只有遇到下降沿才能读取（发射端的上升沿）
C51 COMPILER V9.54   TEST                                                                  01/26/2017 01:51:01 PAGE 4   

 178          * 输    入 ：无
 179          * 输    出 ：无
 180          *******************************************************************************/
 181          void Send_over(void)       //
 182          { 
 183   1      //0.500ms 1                        //小于0.5ms 接收端很难识别到
 184   1              TH0=(65536-500)/256;  
 185   1              TL0=(65536-500)%256; 
 186   1              TR0=1; 
 187   1              TR1=1; 
 188   1              
 189   1              while(!TF0); 
 190   1              
 191   1              TR1=0; 
 192   1              TF0=0;
 193   1              TR0=0; 
 194   1              
 195   1              IR_OUT=1;
 196   1              //0.500ms 0 
 197   1              TH0=(65536-500)/256;  
 198   1              TL0=(65536-500)%256; 
 199   1              TR0=1; 
 200   1              TR1=0; 
 201   1              
 202   1              while(!TF0); 
 203   1              
 204   1              TR1=0; 
 205   1              TF0=0;
 206   1              TR0=0; 
 207   1              
 208   1              IR_OUT=1;  
 209   1      } 
 210          
 211          /*******************************************************************************
 212          * 函 数 名 ：Send_Char
 213          * 函数功能 ：发送一个8位的字节，注意反码也要发送
 214          * 输    入 ：add 地址  date 数据
 215          * 输    出 ：无
 216          *******************************************************************************/
 217          void Send_Char(unsigned char add,unsigned char date) 
 218          { 
 219   1              unsigned char i,j1,j2,j3,j4; 
 220   1              j1=add;
 221   1              j2=~add;
 222   1              j3=date;
 223   1              j4=~date;
 224   1              Send_Start_Bit();                                                               
 225   1      
 226   1        //发射引导码
 227   1              for(i=0;i<8;i++) 
 228   1              { 
 229   2                      if(j1&0x01) 
 230   2                              Send_Bit_1(); 
 231   2                      else 
 232   2                              Send_Bit_0(); 
 233   2                      j1=j1>>1;                                                               
 234   2      
 235   2                      //先发射低位
 236   2              } 
 237   1      
 238   1              for(i=0;i<8;i++) 
 239   1              { 
C51 COMPILER V9.54   TEST                                                                  01/26/2017 01:51:01 PAGE 5   

 240   2                      if(j2&0x01) 
 241   2                              Send_Bit_1(); 
 242   2                      else 
 243   2                              Send_Bit_0(); 
 244   2                      j2=j2>>1;                                                               
 245   2      
 246   2                      //先发射低位
 247   2              } 
 248   1      
 249   1              for(i=0;i<8;i++) 
 250   1              { 
 251   2                      if(j3&0x01) 
 252   2                              Send_Bit_1(); 
 253   2                      else 
 254   2                              Send_Bit_0(); 
 255   2                      j3=j3>>1;                                                               
 256   2      
 257   2                      //先发射低位
 258   2              } 
 259   1              
 260   1              for(i=0;i<8;i++) 
 261   1              { 
 262   2                      if(j4&0x01) 
 263   2                              Send_Bit_1(); 
 264   2                      else 
 265   2                              Send_Bit_0(); 
 266   2                      j4=j4>>1;                                                               
 267   2      
 268   2                      //先发射低位
 269   2              } 
 270   1              
 271   1              Send_over();                                                                    
 272   1      
 273   1              //结束符
 274   1      } 
 275          
 276          /*******************************************************************************
 277          * 函 数 名 ：T1_ISR
 278          * 函数功能 ：定时器1中断服务函数，用于产生38k载频
 279          * 输    入 ：无
 280          * 输    出 ：无
 281          *******************************************************************************/
 282          void T1_ISR(void) interrupt 3 
 283          { 
 284   1              IR_OUT=!IR_OUT; 
 285   1      } 
 286          
 287          /*******************************************************************************
 288          * 函 数 名 ：main
 289          * 函数功能 ：主函数
 290          * 输    入 ：无
 291          * 输    出 ：无
 292          *******************************************************************************/
 293          void main(void) 
 294          { 
 295   1          unsigned char date = 0;
 296   1              unsigned char disp_data = 0;
 297   1              IR_OUT=1;
 298   1              Init_Timer(); 
 299   1              while(1) 
 300   1              { 
 301   2      //      Send_Start_Bit(); 
C51 COMPILER V9.54   TEST                                                                  01/26/2017 01:51:01 PAGE 6   

 302   2      
 303   2      //      Send_Bit_1(); 
 304   2              // Send_Char(date+2,date);
 305   2              // date++;      
 306   2              // Delayms(1000); 
 307   2              // if(date == 100) date = 0;
 308   2              
 309   2              date = KeyScan();
 310   2              if(date != 0xff)
 311   2              {
 312   3                      disp_data = date;
 313   3                      Send_Char(0x55,date);
 314   3              }
 315   2              LEDdisplay(disp_data);
 316   2              } 
 317   1      } 
 318          
 319          /*******************************************************************************
 320          * 函 数 名 ：KeyScan
 321          * 函数功能 ：4*4键盘扫描
 322          * 输    入 ：无
 323          * 输    出 ：num 获取的键值，若没有键值则返回 0xff
 324          *******************************************************************************/
 325          unsigned char KeyScan()
 326          {
 327   1              unsigned char temp,num;
 328   1              num = 0xff;
 329   1              KEY_PORT=0xfe;
 330   1              temp=KEY_PORT;
 331   1              temp=temp&0xf0;
 332   1              while(temp!=0xf0)
 333   1              {
 334   2                      Delayms(5); //延时消抖
 335   2                      temp=KEY_PORT;
 336   2                      temp=temp&0xf0;
 337   2                      while(temp!=0xf0)
 338   2                      {
 339   3                              temp=KEY_PORT;
 340   3                      switch(temp)
 341   3                              {
 342   4                                      case 0xee:num=1;
 343   4                                              break;
 344   4                                      case 0xde:num=2;
 345   4                                              break;
 346   4                                      case 0xbe:num=3;
 347   4                                              break;
 348   4                                      case 0x7e:num=4;
 349   4                                              break;
 350   4                              }
 351   3                      while(temp!=0xf0)
 352   3                              {
 353   4                                      temp=KEY_PORT;
 354   4                                      temp=temp&0xf0;
 355   4                              }
 356   3                      }
 357   2              }
 358   1      
 359   1              KEY_PORT=0xfd;
 360   1              temp=KEY_PORT;
 361   1              temp=temp&0xf0;
 362   1              while(temp!=0xf0)
 363   1              {
C51 COMPILER V9.54   TEST                                                                  01/26/2017 01:51:01 PAGE 7   

 364   2                      Delayms(5); //延时消抖
 365   2                      temp=KEY_PORT;
 366   2                      temp=temp&0xf0;
 367   2                      while(temp!=0xf0)
 368   2                      {
 369   3                              temp=KEY_PORT;
 370   3                      switch(temp)
 371   3                              {
 372   4                                      case 0xed:num=5;
 373   4                                              break;
 374   4                                      case 0xdd:num=6;
 375   4                                              break;
 376   4                                      case 0xbd:num=7;
 377   4                                              break;
 378   4                                      case 0x7d:num=8;
 379   4                                              break;
 380   4                              }
 381   3                      while(temp!=0xf0)
 382   3                              {
 383   4                                      temp=KEY_PORT;
 384   4                                      temp=temp&0xf0;
 385   4                              }
 386   3                      }
 387   2              }
 388   1      
 389   1              KEY_PORT=0xfb;
 390   1              temp=KEY_PORT;
 391   1              temp=temp&0xf0;
 392   1              while(temp!=0xf0)
 393   1              {
 394   2                      Delayms(5); //延时消抖
 395   2                      temp=KEY_PORT;
 396   2                      temp=temp&0xf0;
 397   2                      while(temp!=0xf0)
 398   2                      {
 399   3                              temp=KEY_PORT;
 400   3                      switch(temp)
 401   3                              {
 402   4                                      case 0xeb:num=9;
 403   4                                              break;
 404   4                                      case 0xdb:num=10;
 405   4                                              break;
 406   4                                      case 0xbb:num=11;
 407   4                                              break;
 408   4                                      case 0x7b:num=12;
 409   4                                              break;
 410   4                              }
 411   3                      while(temp!=0xf0)
 412   3                              {
 413   4                                      temp=KEY_PORT;
 414   4                                      temp=temp&0xf0;
 415   4                              }
 416   3                      }
 417   2              }
 418   1      
 419   1              KEY_PORT=0xf7;
 420   1              temp=KEY_PORT;
 421   1              temp=temp&0xf0;
 422   1              while(temp!=0xf0)
 423   1              {
 424   2                      Delayms(5); //延时消抖
 425   2                      temp=KEY_PORT;
C51 COMPILER V9.54   TEST                                                                  01/26/2017 01:51:01 PAGE 8   

 426   2                      temp=temp&0xf0;
 427   2                      while(temp!=0xf0)
 428   2                      {
 429   3                              temp=KEY_PORT;
 430   3                      switch(temp)
 431   3                              {
 432   4                                      case 0xe7:num=13;
 433   4                                              break;
 434   4                                      case 0xd7:num=14;
 435   4                                              break;
 436   4                                      case 0xb7:num=15;
 437   4                                              break;
 438   4                                      case 0x77:num=0;
 439   4                                              break;
 440   4                              }
 441   3                      while(temp!=0xf0)
 442   3                              {
 443   4                                      temp=KEY_PORT;
 444   4                                      temp=temp&0xf0;
 445   4                              }
 446   3                      }
 447   2              }
 448   1      return num;
 449   1      }
 450          
 451          /*******************************************************************************
 452          * 函 数 名 ：LEDdisplay
 453          * 函数功能 ：LED以二进制的方式显示值
 454          * 输    入 ：num 要显示的值
 455          * 输    出 ：无
 456          *******************************************************************************/
 457          void LEDdisplay(unsigned char num)
 458          {
 459   1              LED_PORT = num;
 460   1      }


MODULE INFORMATION:   STATIC OVERLAYABLE
   CODE SIZE        =    710    ----
   CONSTANT SIZE    =   ----    ----
   XDATA SIZE       =   ----    ----
   PDATA SIZE       =   ----    ----
   DATA SIZE        =   ----       4
   IDATA SIZE       =   ----    ----
   BIT SIZE         =   ----    ----
END OF MODULE INFORMATION.


C51 COMPILATION COMPLETE.  0 WARNING(S),  0 ERROR(S)
