:0300000002000EED
:0C000E00787FE4F6D8FD758109020055EA
:1000E800C0F9A4B0999282F880908883C6A1868EC0
:06000300010900010800E4
:1000D700758CD8758AF0D2AFD2A9758911D28C8068
:0100E700FE1A
:03000B0002009A56
:10009A00C0E0C083C082C0D075D000C007758CD8BC
:1000AA00758AF00508E508B46418750800E509D3EF
:1000BA00940F4003750900AF090509EF9000E89312
:0D00CA00F590D007D0D0D082D083D0E032A6
:10001A000200D7E493A3F8E493A34003F68001F225
:10002A0008DFF48029E493A3F85407240CC8C333E7
:10003A00C4540F4420C8834004F456800146F6DFB6
:10004A00E4800B0102040810204080900003E47E43
:10005A00019360BCA3FF543F30E509541FFEE493AB
:10006A00A360010ECF54C025E060A840B8E493A372
:10007A00FAE493A3F8E493A3C8C582C8CAC583CA9D
:10008A00F0A3C8C582C8CAC583CADFE9DEE780BE55
:0100090000F6
:00000001FF
