:03000000020121D9
:0C012100787FE4F6D8FD75810F020168BC
:1001C400C0F9A4B0999282F880908883C6A1868EE3
:0501D400FFEFDFBF7F1B
:1001D900010A72020D0000020B0000010F00020863
:0201E900000014
:0B01EC00C288D2A8D2AF75A00F80FE21
:03000300020006F2
:10000600C0E0C0F0C083C082C0D075D000C000C0C0
:1000160001C002C003C004C005C006C007C2AF7558
:10002600A00FE5A0640F60287F057E001201ADE5F4
:10003600A0640F601BE5A0540F750B00F50C75A0AE
:10004600F0E5A064F06009E5A054F0750D00F50E2A
:1000560075A00FE5A0B40FFBE50D7030E50E2490FA
:10006600602424C0601824E0600C24F0701E75081B
:10007600007509008016750800750901800E75085F
:10008600007509028006750800750903E50B705BAB
:10009600E50C24F9604024FC602B24FE60161470E5
:1000A6004AE509AE087802C333CE33CED8F9F5094E
:1000B6008E088037E509AE087802C333CE33CED832
:1000C600F924018020E509AE087802C333CE33CE89
:1000D600D8F92402800FE509AE087802C333CE337F
:1000E600CED8F92403F509E43EF50874C42509F5CC
:1000F6008274013508F583E493F59075A00FD2AFAD
:10010600D007D006D005D004D003D002D001D0004D
:0B011600D0D0D082D083D0F0D0E032F7
:1001AD00750A72EF1FAC0670011E4C6009AD0A1581
:0701BD000AED60EF80F7225C
:10012D000201ECE493A3F8E493A34003F68001F2FB
:10013D0008DFF48029E493A3F85407240CC8C333D3
:10014D00C4540F4420C8834004F456800146F6DFA2
:10015D00E4800B01020408102040809001D9E47E58
:10016D00019360BCA3FF543F30E509541FFEE49397
:10017D00A360010ECF54C025E060A840B8E493A35E
:10018D00FAE493A3F8E493A3C8C582C8CAC583CA89
:10019D00F0A3C8C582C8CAC583CADFE9DEE780BE41
:0101EB000013
:00000001FF
