BL51 BANKED LINKER/LOCATER V6.22                                                        12/12/2016  10:28:07  PAGE 1


BL51 BANKED LINKER/LOCATER V6.22, INVOKED BY:
C:\KEIL_V5\C51\BIN\BL51.EXE .\Objects\STARTUP.obj, .\Objects\Program.obj TO .\Objects\Project PRINT (.\Listings\Project.
>> m51) RAMSIZE (256)


MEMORY MODEL: SMALL


INPUT MODULES INCLUDED:
  .\Objects\STARTUP.obj (?C_STARTUP)
  .\Objects\Program.obj (PROGRAM)
  C:\KEIL_V5\C51\LIB\C51S.LIB (?C_INIT)


LINK MAP OF MODULE:  .\Objects\Project (?C_STARTUP)


            TYPE    BASE      LENGTH    RELOCATION   SEGMENT NAME
            -----------------------------------------------------

            * * * * * * *   D A T A   M E M O R Y   * * * * * * *
            REG     0000H     0008H     ABSOLUTE     "REG BANK 0"
            DATA    0008H     0008H     UNIT         ?DT?PROGRAM
            IDATA   0010H     0001H     UNIT         ?STACK

            * * * * * * *   C O D E   M E M O R Y   * * * * * * *
            CODE    0000H     0003H     ABSOLUTE     
            CODE    0003H     0003H     ABSOLUTE     
            CODE    0006H     011BH     UNIT         ?PR?INT0?PROGRAM
            CODE    0121H     008CH     UNIT         ?C_C51STARTUP
            CODE    01ADH     0017H     UNIT         ?PR?_DELAY?PROGRAM
            CODE    01C4H     0015H     UNIT         ?CO?PROGRAM
            CODE    01D9H     0013H     UNIT         ?C_INITSEG
            CODE    01ECH     000BH     UNIT         ?PR?MAIN?PROGRAM



OVERLAY MAP OF MODULE:   .\Objects\Project (?C_STARTUP)


SEGMENT
  +--> CALLED SEGMENT
---------------------
?C_C51STARTUP
  +--> ?PR?MAIN?PROGRAM
  +--> ?C_INITSEG

*** NEW ROOT ***************************************************

?PR?INT0?PROGRAM
  +--> ?PR?_DELAY?PROGRAM
  +--> ?CO?PROGRAM



SYMBOL TABLE OF MODULE:  .\Objects\Project (?C_STARTUP)

  VALUE           TYPE          NAME
BL51 BANKED LINKER/LOCATER V6.22                                                      12/12/2016  10:28:07  PAGE 2


  ----------------------------------

  -------         MODULE        ?C_STARTUP
  C:0121H         SEGMENT       ?C_C51STARTUP
  I:0010H         SEGMENT       ?STACK
  C:0000H         PUBLIC        ?C_STARTUP
  D:00E0H         SYMBOL        ACC
  D:00F0H         SYMBOL        B
  D:0083H         SYMBOL        DPH
  D:0082H         SYMBOL        DPL
  N:0000H         SYMBOL        IBPSTACK
  N:0100H         SYMBOL        IBPSTACKTOP
  N:0080H         SYMBOL        IDATALEN
  C:0124H         SYMBOL        IDATALOOP
  N:0000H         SYMBOL        PBPSTACK
  N:0100H         SYMBOL        PBPSTACKTOP
  N:0000H         SYMBOL        PDATALEN
  N:0000H         SYMBOL        PDATASTART
  N:0000H         SYMBOL        PPAGE
  N:0000H         SYMBOL        PPAGEENABLE
  D:00A0H         SYMBOL        PPAGE_SFR
  D:0081H         SYMBOL        SP
  C:0121H         SYMBOL        STARTUP1
  N:0000H         SYMBOL        XBPSTACK
  N:0000H         SYMBOL        XBPSTACKTOP
  N:0000H         SYMBOL        XDATALEN
  N:0000H         SYMBOL        XDATASTART
  C:0000H         LINE#         126
  C:0121H         LINE#         133
  C:0123H         LINE#         134
  C:0124H         LINE#         135
  C:0125H         LINE#         136
  C:0127H         LINE#         185
  C:012AH         LINE#         196
  -------         ENDMOD        ?C_STARTUP

  -------         MODULE        PROGRAM
  C:0000H         SYMBOL        _ICE_DUMMY_
  D:0090H         PUBLIC        P1
  D:00A0H         PUBLIC        P2
  B:00A8H.7       PUBLIC        EA
  C:01C4H         PUBLIC        table
  C:01ADH         PUBLIC        _delay
  C:01ECH         PUBLIC        main
  D:0008H         PUBLIC        scan
  D:000AH         PUBLIC        time
  C:01D5H         PUBLIC        sign
  D:000BH         PUBLIC        col
  B:00A8H.0       PUBLIC        EX0
  B:0088H.0       PUBLIC        IT0
  D:000DH         PUBLIC        row
  D:000FH         PUBLIC        n
  C:0006H         PUBLIC        int0
  -------         PROC          MAIN
  C:01ECH         LINE#         35
  C:01ECH         LINE#         36
  C:01ECH         LINE#         38
BL51 BANKED LINKER/LOCATER V6.22                                                      12/12/2016  10:28:07  PAGE 3


  C:01EEH         LINE#         40
  C:01F0H         LINE#         42
  C:01F2H         LINE#         44
  C:01F5H         LINE#         46
  -------         ENDPROC       MAIN
  -------         PROC          INT0
  C:0006H         LINE#         51
  C:0023H         LINE#         54
  C:0025H         LINE#         81
  C:0028H         LINE#         82
  C:002EH         LINE#         83
  C:002EH         LINE#         85
  C:0035H         LINE#         86
  C:003BH         LINE#         87
  C:003BH         LINE#         89
  C:0044H         LINE#         90
  C:0047H         LINE#         91
  C:004DH         LINE#         92
  C:004DH         LINE#         94
  C:0056H         LINE#         95
  C:0056H         LINE#         96
  C:0056H         LINE#         97
  C:0056H         LINE#         100
  C:0059H         LINE#         101
  C:005EH         LINE#         103
  C:0074H         LINE#         104
  C:0074H         LINE#         105
  C:0074H         LINE#         106
  C:007AH         LINE#         107
  C:007CH         LINE#         108
  C:007CH         LINE#         109
  C:0082H         LINE#         110
  C:0084H         LINE#         111
  C:0084H         LINE#         112
  C:008AH         LINE#         113
  C:008CH         LINE#         114
  C:008CH         LINE#         115
  C:0092H         LINE#         116
  C:0092H         LINE#         117
  C:0092H         LINE#         119
  C:00A7H         LINE#         120
  C:00A7H         LINE#         121
  C:00A7H         LINE#         122
  C:00B8H         LINE#         123
  C:00BAH         LINE#         124
  C:00BAH         LINE#         125
  C:00C9H         LINE#         126
  C:00CBH         LINE#         127
  C:00CBH         LINE#         128
  C:00DAH         LINE#         129
  C:00DCH         LINE#         130
  C:00DCH         LINE#         131
  C:00F1H         LINE#         132
  C:00F1H         LINE#         133
  C:00F1H         LINE#         138
  C:0101H         LINE#         140
  C:0104H         LINE#         142
BL51 BANKED LINKER/LOCATER V6.22                                                      12/12/2016  10:28:07  PAGE 4


  C:0106H         LINE#         143
  -------         ENDPROC       INT0
  -------         PROC          _DELAY
  D:0006H         SYMBOL        t
  C:01ADH         LINE#         146
  C:01ADH         LINE#         147
  C:01ADH         LINE#         148
  C:01B0H         LINE#         149
  C:01BAH         LINE#         150
  C:01BAH         LINE#         151
  C:01C3H         LINE#         153
  -------         ENDPROC       _DELAY
  -------         ENDMOD        PROGRAM

Program Size: data=17.0 xdata=0 code=503
LINK/LOCATE RUN COMPLETE.  0 WARNING(S),  0 ERROR(S)
