BL51 BANKED LINKER/LOCATER V6.22                                                        11/29/2016  20:21:54  PAGE 1


BL51 BANKED LINKER/LOCATER V6.22, INVOKED BY:
C:\KEIL_V5\C51\BIN\BL51.EXE .\Objects\STARTUP.obj, .\Objects\LED.obj TO .\Objects\LED指示灯 PRINT (.\Listings\LED指示灯.
>> m51) RAMSIZE (256)


MEMORY MODEL: SMALL


INPUT MODULES INCLUDED:
  .\Objects\STARTUP.obj (?C_STARTUP)
  .\Objects\LED.obj (LED)


LINK MAP OF MODULE:  .\Objects\LED指示灯 (?C_STARTUP)


            TYPE    BASE      LENGTH    RELOCATION   SEGMENT NAME
            -----------------------------------------------------

            * * * * * * *   D A T A   M E M O R Y   * * * * * * *
            REG     0000H     0008H     ABSOLUTE     "REG BANK 0"
            DATA    0008H     0001H     UNIT         _DATA_GROUP_
            IDATA   0009H     0001H     UNIT         ?STACK

            * * * * * * *   C O D E   M E M O R Y   * * * * * * *
            CODE    0000H     0003H     ABSOLUTE     
            CODE    0003H     002AH     UNIT         ?PR?MAIN?LED
            CODE    002DH     000CH     UNIT         ?C_C51STARTUP
            CODE    0039H     000AH     UNIT         ?PR?_DELAY?LED



OVERLAY MAP OF MODULE:   .\Objects\LED指示灯 (?C_STARTUP)


SEGMENT                          DATA_GROUP 
  +--> CALLED SEGMENT          START    LENGTH
----------------------------------------------
?C_C51STARTUP                  -----    -----
  +--> ?PR?MAIN?LED

?PR?MAIN?LED                   0008H    0001H
  +--> ?PR?_DELAY?LED



SYMBOL TABLE OF MODULE:  .\Objects\LED指示灯 (?C_STARTUP)

  VALUE           TYPE          NAME
  ----------------------------------

  -------         MODULE        ?C_STARTUP
  C:002DH         SEGMENT       ?C_C51STARTUP
  I:0009H         SEGMENT       ?STACK
  C:0000H         PUBLIC        ?C_STARTUP
  D:00E0H         SYMBOL        ACC
  D:00F0H         SYMBOL        B
  D:0083H         SYMBOL        DPH
BL51 BANKED LINKER/LOCATER V6.22                                                      11/29/2016  20:21:54  PAGE 2


  D:0082H         SYMBOL        DPL
  N:0000H         SYMBOL        IBPSTACK
  N:0100H         SYMBOL        IBPSTACKTOP
  N:0080H         SYMBOL        IDATALEN
  C:0030H         SYMBOL        IDATALOOP
  N:0000H         SYMBOL        PBPSTACK
  N:0100H         SYMBOL        PBPSTACKTOP
  N:0000H         SYMBOL        PDATALEN
  N:0000H         SYMBOL        PDATASTART
  N:0000H         SYMBOL        PPAGE
  N:0000H         SYMBOL        PPAGEENABLE
  D:00A0H         SYMBOL        PPAGE_SFR
  D:0081H         SYMBOL        SP
  C:002DH         SYMBOL        STARTUP1
  N:0000H         SYMBOL        XBPSTACK
  N:0000H         SYMBOL        XBPSTACKTOP
  N:0000H         SYMBOL        XDATALEN
  N:0000H         SYMBOL        XDATASTART
  C:0000H         LINE#         126
  C:002DH         LINE#         133
  C:002FH         LINE#         134
  C:0030H         LINE#         135
  C:0031H         LINE#         136
  C:0033H         LINE#         185
  C:0036H         LINE#         196
  -------         ENDMOD        ?C_STARTUP

  -------         MODULE        LED
  C:0000H         SYMBOL        _ICE_DUMMY_
  D:0090H         PUBLIC        P1
  D:00B0H         PUBLIC        P3
  D:00A8H         PUBLIC        IE
  C:0039H         PUBLIC        _delay
  B:0090H.1       PUBLIC        P1_1
  D:00B8H         PUBLIC        IP
  C:0003H         PUBLIC        main
  D:0098H         PUBLIC        SCON
  D:0088H         PUBLIC        TCON
  D:00C8H         PUBLIC        T2CON
  D:00D0H         PUBLIC        PSW
  -------         PROC          MAIN
  -------         DO            
  D:0008H         SYMBOL        k
  -------         ENDDO         
  C:0003H         LINE#         12
  C:0003H         LINE#         13
  C:0003H         LINE#         16
  C:0003H         LINE#         17
  C:0003H         LINE#         18
  C:0006H         LINE#         19
  C:000CH         LINE#         20
  C:000CH         LINE#         21
  C:0013H         LINE#         22
  C:0015H         LINE#         23
  C:0017H         LINE#         24
  C:001AH         LINE#         25
  C:0020H         LINE#         26
BL51 BANKED LINKER/LOCATER V6.22                                                      11/29/2016  20:21:54  PAGE 3


  C:0020H         LINE#         27
  C:0027H         LINE#         28
  C:0029H         LINE#         29
  C:002BH         LINE#         30
  -------         ENDPROC       MAIN
  -------         PROC          _DELAY
  D:0006H         SYMBOL        t
  C:0039H         LINE#         35
  C:0039H         LINE#         36
  C:0039H         LINE#         37
  C:0042H         LINE#         38
  -------         ENDPROC       _DELAY
  -------         ENDMOD        LED

Program Size: data=10.0 xdata=0 code=67
LINK/LOCATE RUN COMPLETE.  0 WARNING(S),  0 ERROR(S)
